{
  "_format": "hh-sol-artifact-1",
  "contractName": "HodlMarket",
  "sourceName": "contracts/HodlMarket.sol",
  "abi": [
    {
      "anonymous": false,
      "inputs": [
        {
          "indexed": false,
          "internalType": "uint8",
          "name": "version",
          "type": "uint8"
        }
      ],
      "name": "Initialized",
      "type": "event"
    },
    {
      "anonymous": false,
      "inputs": [
        {
          "indexed": true,
          "internalType": "address",
          "name": "previousOwner",
          "type": "address"
        },
        {
          "indexed": true,
          "internalType": "address",
          "name": "newOwner",
          "type": "address"
        }
      ],
      "name": "OwnershipTransferred",
      "type": "event"
    },
    {
      "anonymous": false,
      "inputs": [
        {
          "indexed": false,
          "internalType": "address",
          "name": "account",
          "type": "address"
        }
      ],
      "name": "Paused",
      "type": "event"
    },
    {
      "anonymous": false,
      "inputs": [
        {
          "indexed": true,
          "internalType": "address",
          "name": "buyer",
          "type": "address"
        },
        {
          "indexed": true,
          "internalType": "address",
          "name": "seller",
          "type": "address"
        },
        {
          "indexed": true,
          "internalType": "uint256",
          "name": "tokenId",
          "type": "uint256"
        },
        {
          "indexed": false,
          "internalType": "uint256",
          "name": "price",
          "type": "uint256"
        }
      ],
      "name": "TokenBought",
      "type": "event"
    },
    {
      "anonymous": false,
      "inputs": [
        {
          "indexed": true,
          "internalType": "address",
          "name": "seller",
          "type": "address"
        },
        {
          "indexed": true,
          "internalType": "uint256",
          "name": "tokenId",
          "type": "uint256"
        }
      ],
      "name": "TokenDelisted",
      "type": "event"
    },
    {
      "anonymous": false,
      "inputs": [
        {
          "indexed": true,
          "internalType": "address",
          "name": "seller",
          "type": "address"
        },
        {
          "indexed": true,
          "internalType": "uint256",
          "name": "tokenId",
          "type": "uint256"
        },
        {
          "indexed": false,
          "internalType": "uint256",
          "name": "price",
          "type": "uint256"
        }
      ],
      "name": "TokenListed",
      "type": "event"
    },
    {
      "anonymous": false,
      "inputs": [
        {
          "indexed": false,
          "internalType": "address",
          "name": "account",
          "type": "address"
        }
      ],
      "name": "Unpaused",
      "type": "event"
    },
    {
      "inputs": [
        {
          "internalType": "address",
          "name": "",
          "type": "address"
        },
        {
          "internalType": "uint256",
          "name": "",
          "type": "uint256"
        }
      ],
      "name": "addressToTokenIds",
      "outputs": [
        {
          "internalType": "uint256",
          "name": "",
          "type": "uint256"
        }
      ],
      "stateMutability": "view",
      "type": "function"
    },
    {
      "inputs": [
        {
          "internalType": "address",
          "name": "_address",
          "type": "address"
        }
      ],
      "name": "balanceOf",
      "outputs": [
        {
          "internalType": "uint256",
          "name": "",
          "type": "uint256"
        }
      ],
      "stateMutability": "view",
      "type": "function"
    },
    {
      "inputs": [
        {
          "internalType": "address",
          "name": "tokenContract",
          "type": "address"
        },
        {
          "internalType": "uint256",
          "name": "tokenId",
          "type": "uint256"
        }
      ],
      "name": "buyToken",
      "outputs": [],
      "stateMutability": "payable",
      "type": "function"
    },
    {
      "inputs": [
        {
          "internalType": "address",
          "name": "tokenContract",
          "type": "address"
        },
        {
          "internalType": "uint256",
          "name": "tokenId",
          "type": "uint256"
        }
      ],
      "name": "delistToken",
      "outputs": [],
      "stateMutability": "payable",
      "type": "function"
    },
    {
      "inputs": [
        {
          "internalType": "uint256",
          "name": "offset",
          "type": "uint256"
        },
        {
          "internalType": "uint256",
          "name": "limit",
          "type": "uint256"
        }
      ],
      "name": "fetchMarketItems",
      "outputs": [
        {
          "components": [
            {
              "internalType": "uint256",
              "name": "tokenId",
              "type": "uint256"
            },
            {
              "internalType": "uint256",
              "name": "price",
              "type": "uint256"
            },
            {
              "internalType": "address payable",
              "name": "seller",
              "type": "address"
            }
          ],
          "internalType": "struct HodlMarket.Listing[]",
          "name": "page",
          "type": "tuple[]"
        },
        {
          "internalType": "uint256",
          "name": "nextOffset",
          "type": "uint256"
        },
        {
          "internalType": "uint256",
          "name": "totalItems",
          "type": "uint256"
        }
      ],
      "stateMutability": "view",
      "type": "function"
    },
    {
      "inputs": [
        {
          "internalType": "uint256",
          "name": "tokenId",
          "type": "uint256"
        }
      ],
      "name": "getListing",
      "outputs": [
        {
          "components": [
            {
              "internalType": "uint256",
              "name": "tokenId",
              "type": "uint256"
            },
            {
              "internalType": "uint256",
              "name": "price",
              "type": "uint256"
            },
            {
              "internalType": "address payable",
              "name": "seller",
              "type": "address"
            }
          ],
          "internalType": "struct HodlMarket.Listing",
          "name": "",
          "type": "tuple"
        }
      ],
      "stateMutability": "view",
      "type": "function"
    },
    {
      "inputs": [
        {
          "internalType": "address",
          "name": "_address",
          "type": "address"
        },
        {
          "internalType": "uint256",
          "name": "offset",
          "type": "uint256"
        },
        {
          "internalType": "uint256",
          "name": "limit",
          "type": "uint256"
        }
      ],
      "name": "getListingsForAddress",
      "outputs": [
        {
          "components": [
            {
              "internalType": "uint256",
              "name": "tokenId",
              "type": "uint256"
            },
            {
              "internalType": "uint256",
              "name": "price",
              "type": "uint256"
            },
            {
              "internalType": "address payable",
              "name": "seller",
              "type": "address"
            }
          ],
          "internalType": "struct HodlMarket.Listing[]",
          "name": "page",
          "type": "tuple[]"
        },
        {
          "internalType": "uint256",
          "name": "nextOffset",
          "type": "uint256"
        },
        {
          "internalType": "uint256",
          "name": "totalItems",
          "type": "uint256"
        }
      ],
      "stateMutability": "view",
      "type": "function"
    },
    {
      "inputs": [],
      "name": "initialize",
      "outputs": [],
      "stateMutability": "nonpayable",
      "type": "function"
    },
    {
      "inputs": [
        {
          "internalType": "address",
          "name": "tokenContract",
          "type": "address"
        },
        {
          "internalType": "uint256",
          "name": "tokenId",
          "type": "uint256"
        },
        {
          "internalType": "uint256",
          "name": "price",
          "type": "uint256"
        }
      ],
      "name": "listToken",
      "outputs": [],
      "stateMutability": "payable",
      "type": "function"
    },
    {
      "inputs": [
        {
          "internalType": "uint256",
          "name": "",
          "type": "uint256"
        }
      ],
      "name": "listings",
      "outputs": [
        {
          "internalType": "uint256",
          "name": "tokenId",
          "type": "uint256"
        },
        {
          "internalType": "uint256",
          "name": "price",
          "type": "uint256"
        },
        {
          "internalType": "address payable",
          "name": "seller",
          "type": "address"
        }
      ],
      "stateMutability": "view",
      "type": "function"
    },
    {
      "inputs": [],
      "name": "marketSaleFeeInPercent",
      "outputs": [
        {
          "internalType": "uint256",
          "name": "",
          "type": "uint256"
        }
      ],
      "stateMutability": "view",
      "type": "function"
    },
    {
      "inputs": [],
      "name": "minListingPriceInMatic",
      "outputs": [
        {
          "internalType": "uint256",
          "name": "",
          "type": "uint256"
        }
      ],
      "stateMutability": "view",
      "type": "function"
    },
    {
      "inputs": [],
      "name": "owner",
      "outputs": [
        {
          "internalType": "address",
          "name": "",
          "type": "address"
        }
      ],
      "stateMutability": "view",
      "type": "function"
    },
    {
      "inputs": [],
      "name": "pauseContract",
      "outputs": [],
      "stateMutability": "nonpayable",
      "type": "function"
    },
    {
      "inputs": [],
      "name": "paused",
      "outputs": [
        {
          "internalType": "bool",
          "name": "",
          "type": "bool"
        }
      ],
      "stateMutability": "view",
      "type": "function"
    },
    {
      "inputs": [],
      "name": "renounceOwnership",
      "outputs": [],
      "stateMutability": "nonpayable",
      "type": "function"
    },
    {
      "inputs": [
        {
          "internalType": "uint256",
          "name": "_marketSaleFeeInPercent",
          "type": "uint256"
        }
      ],
      "name": "setMarketSaleFeeInPercent",
      "outputs": [],
      "stateMutability": "nonpayable",
      "type": "function"
    },
    {
      "inputs": [
        {
          "internalType": "uint256",
          "name": "_minListingPriceInMatic",
          "type": "uint256"
        }
      ],
      "name": "setMinListingPriceInMatic",
      "outputs": [],
      "stateMutability": "nonpayable",
      "type": "function"
    },
    {
      "inputs": [
        {
          "internalType": "address",
          "name": "newOwner",
          "type": "address"
        }
      ],
      "name": "transferOwnership",
      "outputs": [],
      "stateMutability": "nonpayable",
      "type": "function"
    },
    {
      "inputs": [],
      "name": "unpauseContract",
      "outputs": [],
      "stateMutability": "nonpayable",
      "type": "function"
    }
  ],
  "bytecode": "0x608060405234801561001057600080fd5b5061228e806100206000396000f3fe60806040526004361061011f5760003560e01c80637726d2c1116100a0578063a57465e111610064578063a57465e114610325578063b33712c514610345578063de74e57b1461035a578063f2fde38b146103c3578063feb88406146103e357600080fd5b80637726d2c11461029f5780637e07590d146102bf5780638129fc1c146102d25780638da5cb5b146102e7578063932e1a601461030f57600080fd5b80637031f8fa116100e75780637031f8fa146101e15780637063b64e1461020557806370a0823114610234578063715018a61461026a578063755201fd1461027f57600080fd5b8063107a274a14610124578063111d2cf214610174578063439766ce146101965780635c975abb146101ab57806368f8fc10146101ce575b600080fd5b34801561013057600080fd5b5061014461013f366004611dff565b6103f6565b604080518251815260208084015190820152918101516001600160a01b0316908201526060015b60405180910390f35b34801561018057600080fd5b5061019461018f366004611dff565b610440565b005b3480156101a257600080fd5b5061019461044d565b3480156101b757600080fd5b5060975460ff16604051901515815260200161016b565b6101946101dc366004611e2d565b61045f565b3480156101ed57600080fd5b506101f760ca5481565b60405190815260200161016b565b34801561021157600080fd5b50610225610220366004611e59565b610b00565b60405161016b93929190611e7b565b34801561024057600080fd5b506101f761024f366004611eee565b6001600160a01b0316600090815260cd602052604090205490565b34801561027657600080fd5b50610194610d48565b34801561028b57600080fd5b5061022561029a366004611f0b565b610d5a565b3480156102ab57600080fd5b506101946102ba366004611dff565b611021565b6101946102cd366004611f0b565b61102e565b3480156102de57600080fd5b506101946114c8565b3480156102f357600080fd5b506065546040516001600160a01b03909116815260200161016b565b34801561031b57600080fd5b506101f760c95481565b34801561033157600080fd5b506101f7610340366004611e2d565b6115fa565b34801561035157600080fd5b5061019461162b565b34801561036657600080fd5b5061039f610375366004611dff565b60cb602052600090815260409020805460018201546002909201549091906001600160a01b031683565b6040805193845260208401929092526001600160a01b03169082015260600161016b565b3480156103cf57600080fd5b506101946103de366004611eee565b61163b565b6101946103f1366004611e2d565b6116b1565b6103fe611dd5565b50600090815260cb6020908152604091829020825160608101845281548152600182015492810192909252600201546001600160a01b03169181019190915290565b610448611982565b60c955565b610455611982565b61045d6119dc565b565b6002600154141561048b5760405162461bcd60e51b815260040161048290611f40565b60405180910390fd5b6002600155610498611a36565b6000805b60cc548110156104f1578260cc82815481106104ba576104ba611f77565b906000526020600020015414156104df57600191506104da60cc82611a7c565b6104f1565b806104e981611fa3565b91505061049c565b508061053f5760405162461bcd60e51b815260206004820152601d60248201527f546f6b656e206973206e6f74206c6973746564206f6e204d61726b65740000006044820152606401610482565b600082815260cb60205260409020600201546001600160a01b03163314156105b55760405162461bcd60e51b815260206004820152602360248201527f596f752073686f756c642064656c69737420796f7572206974656d20696e737460448201526219585960ea1b6064820152608401610482565b600082815260cb602052604090206001015434146106155760405162461bcd60e51b815260206004820152601a60248201527f4974656d2061736b696e67207072696365206e6f742073656e740000000000006044820152606401610482565b600082815260cb60205260408120600201546001600160a01b031690805b6001600160a01b038316600090815260cd60205260409020548110156106ce576001600160a01b038316600090815260cd6020526040902080548691908390811061068057610680611f77565b906000526020600020015414156106bc576001600160a01b038316600090815260cd602052604090206106b39082611a7c565b600191506106ce565b806106c681611fa3565b915050610633565b50806106dc576106dc611fbe565b6000806106e887611b5a565b1561078a57600086815260cb60205260409081902060010154905163152a902d60e11b81526001600160a01b03891691632a55205a91610735918a91600401918252602082015260400190565b604080518083038186803b15801561074c57600080fd5b505afa158015610760573d6000803e3d6000fd5b505050506040513d601f19601f820116820180604052508101906107849190611fd4565b90925090505b600086815260cb602052604081206001015460c9546064916107ab91612002565b6107b59190612021565b600088815260cb60205260408120600101549192509083906107d8908490612043565b6107e29190612043565b600089815260cb6020908152604091829020600281015460019091015492519283529293508a926001600160a01b03169133917f9fa236593f411affe147142a606176190ea6b18be0643332f081175cfe608b6b910160405180910390a4600088815260cb60205260408082208281556001810192909255600290910180546001600160a01b0319169055516323b872dd60e01b8152306004820152336024820152604481018990526001600160a01b038a16906323b872dd90606401600060405180830381600087803b1580156108b957600080fd5b505af11580156108cd573d6000803e3d6000fd5b5050505060006108e56065546001600160a01b031690565b6001600160a01b03168360405160006040518083038185875af1925050503d806000811461092f576040519150601f19603f3d011682016040523d82523d6000602084013e610934565b606091505b50509050806109905760405162461bcd60e51b815260206004820152602260248201527f436f756c64206e6f742073656e6420746865206f776e65722074686569722066604482015261656560f01b6064820152608401610482565b6000856001600160a01b03168560405160006040518083038185875af1925050503d80600081146109dd576040519150601f19603f3d011682016040523d82523d6000602084013e6109e2565b606091505b5050905080610a3f5760405162461bcd60e51b8152602060048201526024808201527f436f756c64206e6f742073656e64207468652063726561746f722074686569726044820152632066656560e01b6064820152608401610482565b6000886001600160a01b03168460405160006040518083038185875af1925050503d8060008114610a8c576040519150601f19603f3d011682016040523d82523d6000602084013e610a91565b606091505b5050905080610aee5760405162461bcd60e51b815260206004820152602360248201527f436f756c64206e6f742073656e64207468652073656c6c65722074686569722060448201526266656560e81b6064820152608401610482565b50506001805550505050505050505050565b606060008060008411610b555760405162461bcd60e51b815260206004820152601f60248201527f4c696d6974206d757374206265206120706f736974697665206e756d626572006044820152606401610482565b6101f48410610ba65760405162461bcd60e51b815260206004820152601d60248201527f4c696d6974656420746f20353030206974656d732070657220706167650000006044820152606401610482565b60cc54851115610bc85760405162461bcd60e51b81526004016104829061205a565b60cc54610bd6908690612043565b841115610bee5760cc54610beb908690612043565b93505b8367ffffffffffffffff811115610c0757610c076120a3565b604051908082528060200260200182016040528015610c4057816020015b610c2d611dd5565b815260200190600190039081610c255790505b5060cc54909350600090610c5b575060009150819050610d41565b60cc54600090610c6d90600190612043565b90505b85821015610d2957600060cc610c868984612043565b81548110610c9657610c96611f77565b600091825260208083209091015480835260cb8252604092839020835160608101855281548152600182015493810193909352600201546001600160a01b031692820192909252875191925090879085908110610cf557610cf5611f77565b6020908102919091010152610d0b6001846120b9565b925081610d185750610d29565b50610d22816120d1565b9050610c70565b5083610d3586886120b9565b60cc5491955093509150505b9250925092565b610d50611982565b61045d6000611be4565b606060008060008411610daf5760405162461bcd60e51b815260206004820152601f60248201527f4c696d6974206d757374206265206120706f736974697665206e756d626572006044820152606401610482565b6101f48410610e005760405162461bcd60e51b815260206004820152601d60248201527f4c696d6974656420746f20353030206974656d732070657220706167650000006044820152606401610482565b60cc54851115610e225760405162461bcd60e51b81526004016104829061205a565b6001600160a01b038616600090815260cd6020526040902054610e46908690612043565b841115610e74576001600160a01b038616600090815260cd6020526040902054610e71908690612043565b93505b8367ffffffffffffffff811115610e8d57610e8d6120a3565b604051908082528060200260200182016040528015610ec657816020015b610eb3611dd5565b815260200190600190039081610eab5790505b506001600160a01b038716600090815260cd602052604081205491945090610ef5575060009150819050611018565b6001600160a01b038716600090815260cd6020526040812054610f1a90600190612043565b90505b85821015610fea576001600160a01b038816600090815260cd60205260408120610f478984612043565b81548110610f5757610f57611f77565b600091825260208083209091015480835260cb8252604092839020835160608101855281548152600182015493810193909352600201546001600160a01b031692820192909252875191925090879085908110610fb657610fb6611f77565b6020908102919091010152610fcc6001846120b9565b925081610fd95750610fea565b50610fe3816120d1565b9050610f1d565b5083610ff686886120b9565b6001600160a01b038916600090815260cd602052604090205491955093509150505b93509350939050565b611029611982565b60ca55565b600260015414156110515760405162461bcd60e51b815260040161048290611f40565b600260015561105e611a36565b60405180604001604052806008815260200167121bd91b0813919560c21b81525080519060200120836001600160a01b03166306fdde036040518163ffffffff1660e01b815260040160006040518083038186803b1580156110bf57600080fd5b505afa1580156110d3573d6000803e3d6000fd5b505050506040513d6000823e601f3d908101601f191682016040526110fb91908101906120e8565b805190602001201480156111ac5750604051806040016040528060048152602001631213919560e21b81525080519060200120836001600160a01b03166395d89b416040518163ffffffff1660e01b815260040160006040518083038186803b15801561116757600080fd5b505afa15801561117b573d6000803e3d6000fd5b505050506040513d6000823e601f3d908101601f191682016040526111a391908101906120e8565b80519060200120145b6112155760405162461bcd60e51b815260206004820152603460248201527f5765206f6e6c7920737570706f727420486f646c4e465473206f6e20746865206044820152731b585c9ad95d08185d081d1a19481b5bdb595b9d60621b6064820152608401610482565b6040516331a9108f60e11b8152600481018390526001600160a01b03841690636352211e9060240160206040518083038186803b15801561125557600080fd5b505afa158015611269573d6000803e3d6000fd5b505050506040513d601f19601f8201168201806040525081019061128d91906121b8565b6001600160a01b0316336001600160a01b0316146113075760405162461bcd60e51b815260206004820152603160248201527f596f7520646f206e6f74206f776e207468697320746f6b656e206f72206974206044820152701a5cc8185b1c9958591e481b1a5cdd1959607a1b6064820152608401610482565b60ca5481101561137f5760405162461bcd60e51b815260206004820152603c60248201527f546f6b656e206d757374206265206c697374656420617420746865206d696e6960448201527f6d756d206c697374696e67207072696365206f72206869676865722e000000006064820152608401610482565b60408051606081018252838152602080820184815233838501818152600088815260cb85528681209551865592516001808701919091559051600290950180546001600160a01b0319166001600160a01b039096169590951790945560cc80548086019091557f47197230e1e4b29fc0bd84d7d78966c0925452aff72a2a121538b102457e9ebe0187905580825260cd835284822080549485018155825290829020909201859055915183815284927f5dc96537cbae524775a674b6a810d9a1ba04a9e279f172d156b352151394677a910160405180910390a36040516323b872dd60e01b8152336004820152306024820152604481018390526001600160a01b038416906323b872dd90606401600060405180830381600087803b1580156114a757600080fd5b505af11580156114bb573d6000803e3d6000fd5b5050600180555050505050565b600054610100900460ff16158080156114e85750600054600160ff909116105b806115025750303b158015611502575060005460ff166001145b6115655760405162461bcd60e51b815260206004820152602e60248201527f496e697469616c697a61626c653a20636f6e747261637420697320616c72656160448201526d191e481a5b9a5d1a585b1a5e995960921b6064820152608401610482565b6000805460ff191660011790558015611588576000805461ff0019166101001790555b611590611c36565b611598611c65565b6115a0611c94565b600360c955670de0b6b3a764000060ca5580156115f7576000805461ff0019169055604051600181527f7f26b83ff96e1f2b6a682f133852f6798a09c465da95921460cefb38474024989060200160405180910390a15b50565b60cd602052816000526040600020818154811061161657600080fd5b90600052602060002001600091509150505481565b611633611982565b61045d611cc3565b611643611982565b6001600160a01b0381166116a85760405162461bcd60e51b815260206004820152602660248201527f4f776e61626c653a206e6577206f776e657220697320746865207a65726f206160448201526564647265737360d01b6064820152608401610482565b6115f781611be4565b600260015414156116d45760405162461bcd60e51b815260040161048290611f40565b60026001556000805b60cc54811015611732578260cc82815481106116fb576116fb611f77565b90600052602060002001541415611720576001915061171b60cc82611a7c565b611732565b8061172a81611fa3565b9150506116dd565b50806117805760405162461bcd60e51b815260206004820152601d60248201527f546f6b656e206973206e6f74206c6973746564206f6e204d61726b65740000006044820152606401610482565b600082815260cb60205260409020600201546001600160a01b031633146117f55760405162461bcd60e51b815260206004820152602360248201527f4f6e6c792074686520746f6b656e2073656c6c65722063616e2064656c697374604482015262081a5d60ea1b6064820152608401610482565b600082815260cb60205260408120600201546001600160a01b031690805b6001600160a01b038316600090815260cd60205260409020548110156118ae576001600160a01b038316600090815260cd6020526040902080548691908390811061186057611860611f77565b9060005260206000200154141561189c576001600160a01b038316600090815260cd602052604090206118939082611a7c565b600191506118ae565b806118a681611fa3565b915050611813565b50806118bc576118bc611fbe565b600084815260cb60205260408082208281556001810183905560020180546001600160a01b031916905551859133917f79ffd724e98b078a43f0e334c23fbc6352847b68166aeaf1b98dc206494a59eb9190a36040516323b872dd60e01b81523060048201526001600160a01b038381166024830152604482018690528616906323b872dd90606401600060405180830381600087803b15801561195f57600080fd5b505af1158015611973573d6000803e3d6000fd5b50506001805550505050505050565b6065546001600160a01b0316331461045d5760405162461bcd60e51b815260206004820181905260248201527f4f776e61626c653a2063616c6c6572206973206e6f7420746865206f776e65726044820152606401610482565b6119e4611a36565b6097805460ff191660011790557f62e78cea01bee320cd4e420270b5ea74000d11b0c9f74754ebdbfc544b05a258611a193390565b6040516001600160a01b03909116815260200160405180910390a1565b60975460ff161561045d5760405162461bcd60e51b815260206004820152601060248201526f14185d5cd8589b194e881c185d5cd95960821b6044820152606401610482565b81548110611ac15760405162461bcd60e51b81526020600482015260126024820152711a5b99195e081bdd5d081bd988189bdd5b9960721b6044820152606401610482565b805b8254611ad190600190612043565b811015611b2f5782611ae48260016120b9565b81548110611af457611af4611f77565b9060005260206000200154838281548110611b1157611b11611f77565b60009182526020909120015580611b2781611fa3565b915050611ac3565b5081805480611b4057611b406121d5565b600190038181906000526020600020016000905590555050565b6040516301ffc9a760e01b815263152a902d60e11b600482015260009081906001600160a01b038416906301ffc9a79060240160206040518083038186803b158015611ba557600080fd5b505afa158015611bb9573d6000803e3d6000fd5b505050506040513d601f19601f82011682018060405250810190611bdd91906121eb565b9392505050565b606580546001600160a01b038381166001600160a01b0319831681179093556040519116919082907f8be0079c531659141344cd1fd0a4f28419497f9722a3daafe3b4186f6b6457e090600090a35050565b600054610100900460ff16611c5d5760405162461bcd60e51b81526004016104829061220d565b61045d611cfc565b600054610100900460ff16611c8c5760405162461bcd60e51b81526004016104829061220d565b61045d611d29565b600054610100900460ff16611cbb5760405162461bcd60e51b81526004016104829061220d565b61045d611d59565b611ccb611d8c565b6097805460ff191690557f5db9ee0a495bf2e6ff9c91a7834c1ba4fdd244a5e8aa4e537bd38aeae4b073aa33611a19565b600054610100900460ff16611d235760405162461bcd60e51b81526004016104829061220d565b60018055565b600054610100900460ff16611d505760405162461bcd60e51b81526004016104829061220d565b61045d33611be4565b600054610100900460ff16611d805760405162461bcd60e51b81526004016104829061220d565b6097805460ff19169055565b60975460ff1661045d5760405162461bcd60e51b815260206004820152601460248201527314185d5cd8589b194e881b9bdd081c185d5cd95960621b6044820152606401610482565b6040518060600160405280600081526020016000815260200160006001600160a01b031681525090565b600060208284031215611e1157600080fd5b5035919050565b6001600160a01b03811681146115f757600080fd5b60008060408385031215611e4057600080fd5b8235611e4b81611e18565b946020939093013593505050565b60008060408385031215611e6c57600080fd5b50508035926020909101359150565b60608082528451828201819052600091906020906080850190828901855b82811015611ed957611ec984835180518252602080820151908301526040908101516001600160a01b0316910152565b9285019290840190600101611e99565b50505090840195909552505060400152919050565b600060208284031215611f0057600080fd5b8135611bdd81611e18565b600080600060608486031215611f2057600080fd5b8335611f2b81611e18565b95602085013595506040909401359392505050565b6020808252601f908201527f5265656e7472616e637947756172643a207265656e7472616e742063616c6c00604082015260600190565b634e487b7160e01b600052603260045260246000fd5b634e487b7160e01b600052601160045260246000fd5b6000600019821415611fb757611fb7611f8d565b5060010190565b634e487b7160e01b600052600160045260246000fd5b60008060408385031215611fe757600080fd5b8251611ff281611e18565b6020939093015192949293505050565b600081600019048311821515161561201c5761201c611f8d565b500290565b60008261203e57634e487b7160e01b600052601260045260246000fd5b500490565b60008282101561205557612055611f8d565b500390565b60208082526029908201527f4f66667365742069732067726561746572207468616e206e756d626572206f66604082015268206c697374696e677360b81b606082015260800190565b634e487b7160e01b600052604160045260246000fd5b600082198211156120cc576120cc611f8d565b500190565b6000816120e0576120e0611f8d565b506000190190565b600060208083850312156120fb57600080fd5b825167ffffffffffffffff8082111561211357600080fd5b818501915085601f83011261212757600080fd5b815181811115612139576121396120a3565b604051601f8201601f19908116603f01168101908382118183101715612161576121616120a3565b81604052828152888684870101111561217957600080fd5b600093505b8284101561219b578484018601518185018701529285019261217e565b828411156121ac5760008684830101525b98975050505050505050565b6000602082840312156121ca57600080fd5b8151611bdd81611e18565b634e487b7160e01b600052603160045260246000fd5b6000602082840312156121fd57600080fd5b81518015158114611bdd57600080fd5b6020808252602b908201527f496e697469616c697a61626c653a20636f6e7472616374206973206e6f74206960408201526a6e697469616c697a696e6760a81b60608201526080019056fea2646970667358221220644e72dd504fd20b6675cf93185991d1717d7aceeb9213378215268969133c9764736f6c63430008090033",
  "linkReferences": {},
  "deployedLinkReferences": {}
}