{
  "_format": "hh-sol-artifact-1",
  "contractName": "HodlMarket",
  "sourceName": "contracts/HodlMarket.sol",
  "abi": [
    {
      "anonymous": false,
      "inputs": [
        {
          "indexed": false,
          "internalType": "uint8",
          "name": "version",
          "type": "uint8"
        }
      ],
      "name": "Initialized",
      "type": "event"
    },
    {
      "anonymous": false,
      "inputs": [
        {
          "indexed": true,
          "internalType": "address",
          "name": "previousOwner",
          "type": "address"
        },
        {
          "indexed": true,
          "internalType": "address",
          "name": "newOwner",
          "type": "address"
        }
      ],
      "name": "OwnershipTransferred",
      "type": "event"
    },
    {
      "anonymous": false,
      "inputs": [
        {
          "indexed": false,
          "internalType": "address",
          "name": "account",
          "type": "address"
        }
      ],
      "name": "Paused",
      "type": "event"
    },
    {
      "anonymous": false,
      "inputs": [
        {
          "indexed": true,
          "internalType": "address",
          "name": "receiver",
          "type": "address"
        },
        {
          "indexed": true,
          "internalType": "uint256",
          "name": "tokenId",
          "type": "uint256"
        },
        {
          "indexed": false,
          "internalType": "uint256",
          "name": "amount",
          "type": "uint256"
        }
      ],
      "name": "RoyaltySent",
      "type": "event"
    },
    {
      "anonymous": false,
      "inputs": [
        {
          "indexed": true,
          "internalType": "address",
          "name": "buyer",
          "type": "address"
        },
        {
          "indexed": true,
          "internalType": "address",
          "name": "seller",
          "type": "address"
        },
        {
          "indexed": true,
          "internalType": "uint256",
          "name": "tokenId",
          "type": "uint256"
        },
        {
          "indexed": false,
          "internalType": "uint256",
          "name": "price",
          "type": "uint256"
        }
      ],
      "name": "TokenBought",
      "type": "event"
    },
    {
      "anonymous": false,
      "inputs": [
        {
          "indexed": true,
          "internalType": "address",
          "name": "seller",
          "type": "address"
        },
        {
          "indexed": true,
          "internalType": "uint256",
          "name": "tokenId",
          "type": "uint256"
        }
      ],
      "name": "TokenDelisted",
      "type": "event"
    },
    {
      "anonymous": false,
      "inputs": [
        {
          "indexed": true,
          "internalType": "address",
          "name": "seller",
          "type": "address"
        },
        {
          "indexed": true,
          "internalType": "uint256",
          "name": "tokenId",
          "type": "uint256"
        },
        {
          "indexed": false,
          "internalType": "uint256",
          "name": "price",
          "type": "uint256"
        }
      ],
      "name": "TokenListed",
      "type": "event"
    },
    {
      "anonymous": false,
      "inputs": [
        {
          "indexed": false,
          "internalType": "address",
          "name": "account",
          "type": "address"
        }
      ],
      "name": "Unpaused",
      "type": "event"
    },
    {
      "inputs": [
        {
          "internalType": "address",
          "name": "",
          "type": "address"
        },
        {
          "internalType": "uint256",
          "name": "",
          "type": "uint256"
        }
      ],
      "name": "addressToTokenIds",
      "outputs": [
        {
          "internalType": "uint256",
          "name": "",
          "type": "uint256"
        }
      ],
      "stateMutability": "view",
      "type": "function"
    },
    {
      "inputs": [
        {
          "internalType": "address",
          "name": "_address",
          "type": "address"
        }
      ],
      "name": "balanceOf",
      "outputs": [
        {
          "internalType": "uint256",
          "name": "",
          "type": "uint256"
        }
      ],
      "stateMutability": "view",
      "type": "function"
    },
    {
      "inputs": [
        {
          "internalType": "address",
          "name": "tokenContract",
          "type": "address"
        },
        {
          "internalType": "uint256",
          "name": "tokenId",
          "type": "uint256"
        }
      ],
      "name": "buyToken",
      "outputs": [],
      "stateMutability": "payable",
      "type": "function"
    },
    {
      "inputs": [
        {
          "internalType": "address",
          "name": "tokenContract",
          "type": "address"
        },
        {
          "internalType": "uint256",
          "name": "tokenId",
          "type": "uint256"
        }
      ],
      "name": "delistToken",
      "outputs": [],
      "stateMutability": "payable",
      "type": "function"
    },
    {
      "inputs": [
        {
          "internalType": "uint256",
          "name": "offset",
          "type": "uint256"
        },
        {
          "internalType": "uint256",
          "name": "limit",
          "type": "uint256"
        }
      ],
      "name": "fetchMarketItems",
      "outputs": [
        {
          "components": [
            {
              "internalType": "uint256",
              "name": "tokenId",
              "type": "uint256"
            },
            {
              "internalType": "uint256",
              "name": "price",
              "type": "uint256"
            },
            {
              "internalType": "address payable",
              "name": "seller",
              "type": "address"
            }
          ],
          "internalType": "struct HodlMarket.Listing[]",
          "name": "page",
          "type": "tuple[]"
        },
        {
          "internalType": "uint256",
          "name": "nextOffset",
          "type": "uint256"
        },
        {
          "internalType": "uint256",
          "name": "totalItems",
          "type": "uint256"
        }
      ],
      "stateMutability": "view",
      "type": "function"
    },
    {
      "inputs": [
        {
          "internalType": "uint256",
          "name": "tokenId",
          "type": "uint256"
        }
      ],
      "name": "getListing",
      "outputs": [
        {
          "components": [
            {
              "internalType": "uint256",
              "name": "tokenId",
              "type": "uint256"
            },
            {
              "internalType": "uint256",
              "name": "price",
              "type": "uint256"
            },
            {
              "internalType": "address payable",
              "name": "seller",
              "type": "address"
            }
          ],
          "internalType": "struct HodlMarket.Listing",
          "name": "",
          "type": "tuple"
        }
      ],
      "stateMutability": "view",
      "type": "function"
    },
    {
      "inputs": [
        {
          "internalType": "address",
          "name": "_address",
          "type": "address"
        },
        {
          "internalType": "uint256",
          "name": "offset",
          "type": "uint256"
        },
        {
          "internalType": "uint256",
          "name": "limit",
          "type": "uint256"
        }
      ],
      "name": "getListingsForAddress",
      "outputs": [
        {
          "components": [
            {
              "internalType": "uint256",
              "name": "tokenId",
              "type": "uint256"
            },
            {
              "internalType": "uint256",
              "name": "price",
              "type": "uint256"
            },
            {
              "internalType": "address payable",
              "name": "seller",
              "type": "address"
            }
          ],
          "internalType": "struct HodlMarket.Listing[]",
          "name": "page",
          "type": "tuple[]"
        },
        {
          "internalType": "uint256",
          "name": "nextOffset",
          "type": "uint256"
        },
        {
          "internalType": "uint256",
          "name": "totalItems",
          "type": "uint256"
        }
      ],
      "stateMutability": "view",
      "type": "function"
    },
    {
      "inputs": [],
      "name": "initialize",
      "outputs": [],
      "stateMutability": "nonpayable",
      "type": "function"
    },
    {
      "inputs": [],
      "name": "initializeV2",
      "outputs": [],
      "stateMutability": "nonpayable",
      "type": "function"
    },
    {
      "inputs": [
        {
          "internalType": "address",
          "name": "tokenContract",
          "type": "address"
        },
        {
          "internalType": "uint256",
          "name": "tokenId",
          "type": "uint256"
        },
        {
          "internalType": "uint256",
          "name": "price",
          "type": "uint256"
        }
      ],
      "name": "listToken",
      "outputs": [],
      "stateMutability": "payable",
      "type": "function"
    },
    {
      "inputs": [
        {
          "internalType": "uint256",
          "name": "",
          "type": "uint256"
        }
      ],
      "name": "listings",
      "outputs": [
        {
          "internalType": "uint256",
          "name": "tokenId",
          "type": "uint256"
        },
        {
          "internalType": "uint256",
          "name": "price",
          "type": "uint256"
        },
        {
          "internalType": "address payable",
          "name": "seller",
          "type": "address"
        }
      ],
      "stateMutability": "view",
      "type": "function"
    },
    {
      "inputs": [],
      "name": "marketSaleFeeInPercent",
      "outputs": [
        {
          "internalType": "uint256",
          "name": "",
          "type": "uint256"
        }
      ],
      "stateMutability": "view",
      "type": "function"
    },
    {
      "inputs": [],
      "name": "maxRoyaltyFee",
      "outputs": [
        {
          "internalType": "uint96",
          "name": "",
          "type": "uint96"
        }
      ],
      "stateMutability": "view",
      "type": "function"
    },
    {
      "inputs": [],
      "name": "minListingPriceInMatic",
      "outputs": [
        {
          "internalType": "uint256",
          "name": "",
          "type": "uint256"
        }
      ],
      "stateMutability": "view",
      "type": "function"
    },
    {
      "inputs": [],
      "name": "owner",
      "outputs": [
        {
          "internalType": "address",
          "name": "",
          "type": "address"
        }
      ],
      "stateMutability": "view",
      "type": "function"
    },
    {
      "inputs": [],
      "name": "pauseContract",
      "outputs": [],
      "stateMutability": "nonpayable",
      "type": "function"
    },
    {
      "inputs": [],
      "name": "paused",
      "outputs": [
        {
          "internalType": "bool",
          "name": "",
          "type": "bool"
        }
      ],
      "stateMutability": "view",
      "type": "function"
    },
    {
      "inputs": [],
      "name": "renounceOwnership",
      "outputs": [],
      "stateMutability": "nonpayable",
      "type": "function"
    },
    {
      "inputs": [
        {
          "internalType": "uint256",
          "name": "_marketSaleFeeInPercent",
          "type": "uint256"
        }
      ],
      "name": "setMarketSaleFeeInPercent",
      "outputs": [],
      "stateMutability": "nonpayable",
      "type": "function"
    },
    {
      "inputs": [
        {
          "internalType": "uint96",
          "name": "_maxRoyaltyFee",
          "type": "uint96"
        }
      ],
      "name": "setMaxRoyaltyFee",
      "outputs": [],
      "stateMutability": "nonpayable",
      "type": "function"
    },
    {
      "inputs": [
        {
          "internalType": "uint256",
          "name": "_minListingPriceInMatic",
          "type": "uint256"
        }
      ],
      "name": "setMinListingPriceInMatic",
      "outputs": [],
      "stateMutability": "nonpayable",
      "type": "function"
    },
    {
      "inputs": [
        {
          "internalType": "address",
          "name": "newOwner",
          "type": "address"
        }
      ],
      "name": "transferOwnership",
      "outputs": [],
      "stateMutability": "nonpayable",
      "type": "function"
    },
    {
      "inputs": [],
      "name": "unpauseContract",
      "outputs": [],
      "stateMutability": "nonpayable",
      "type": "function"
    }
  ],
  "bytecode": "0x608060405234801561001057600080fd5b50612312806100206000396000f3fe6080604052600436106101405760003560e01c80637726d2c1116100b6578063a57465e11161006f578063a57465e114610393578063b33712c5146103b3578063de74e57b146103c8578063e67605d714610431578063f2fde38b14610451578063feb884061461047157600080fd5b80637726d2c1146102d55780637e07590d146102f55780638129fc1c146103085780638cdd9c8f1461031d5780638da5cb5b14610355578063932e1a601461037d57600080fd5b806368f8fc101161010857806368f8fc10146102045780637031f8fa146102175780637063b64e1461023b57806370a082311461026a578063715018a6146102a0578063755201fd146102b557600080fd5b8063107a274a14610145578063111d2cf214610195578063439766ce146101b75780635c975abb146101cc5780635cd8a76b146101ef575b600080fd5b34801561015157600080fd5b50610165610160366004611edc565b610484565b604080518251815260208084015190820152918101516001600160a01b0316908201526060015b60405180910390f35b3480156101a157600080fd5b506101b56101b0366004611edc565b6104ce565b005b3480156101c357600080fd5b506101b56104db565b3480156101d857600080fd5b5060975460ff16604051901515815260200161018c565b3480156101fb57600080fd5b506101b56104ed565b6101b5610212366004611f0a565b6105a0565b34801561022357600080fd5b5061022d60ca5481565b60405190815260200161018c565b34801561024757600080fd5b5061025b610256366004611f36565b610c83565b60405161018c93929190611f58565b34801561027657600080fd5b5061022d610285366004611fcb565b6001600160a01b0316600090815260cd602052604090205490565b3480156102ac57600080fd5b506101b5610ecb565b3480156102c157600080fd5b5061025b6102d0366004611fe8565b610edd565b3480156102e157600080fd5b506101b56102f0366004611edc565b6111a4565b6101b5610303366004611fe8565b6111b1565b34801561031457600080fd5b506101b56115c1565b34801561032957600080fd5b5060ce5461033d906001600160601b031681565b6040516001600160601b03909116815260200161018c565b34801561036157600080fd5b506065546040516001600160a01b03909116815260200161018c565b34801561038957600080fd5b5061022d60c95481565b34801561039f57600080fd5b5061022d6103ae366004611f0a565b6116a8565b3480156103bf57600080fd5b506101b56116d9565b3480156103d457600080fd5b5061040d6103e3366004611edc565b60cb602052600090815260409020805460018201546002909201549091906001600160a01b031683565b6040805193845260208401929092526001600160a01b03169082015260600161018c565b34801561043d57600080fd5b506101b561044c36600461201d565b6116e9565b34801561045d57600080fd5b506101b561046c366004611fcb565b611718565b6101b561047f366004611f0a565b61178e565b61048c611eb2565b50600090815260cb6020908152604091829020825160608101845281548152600182015492810192909252600201546001600160a01b03169181019190915290565b6104d6611a5f565b60c955565b6104e3611a5f565b6104eb611ab9565b565b600054600290610100900460ff1615801561050f575060005460ff8083169116105b6105345760405162461bcd60e51b815260040161052b90612046565b60405180910390fd5b6000805460ce80546bffffffffffffffffffffffff19166105dc17905561ffff191660ff83169081176101001761ff0019169091556040519081527f7f26b83ff96e1f2b6a682f133852f6798a09c465da95921460cefb3847402498906020015b60405180910390a150565b600260015414156105c35760405162461bcd60e51b815260040161052b90612094565b60026001556105d0611b13565b6000805b60cc54811015610629578260cc82815481106105f2576105f26120cb565b90600052602060002001541415610617576001915061061260cc82611b59565b610629565b80610621816120f7565b9150506105d4565b50806106775760405162461bcd60e51b815260206004820152601d60248201527f546f6b656e206973206e6f74206c6973746564206f6e204d61726b6574000000604482015260640161052b565b600082815260cb60205260409020600201546001600160a01b03163314156106ed5760405162461bcd60e51b815260206004820152602360248201527f596f752073686f756c642064656c69737420796f7572206974656d20696e737460448201526219585960ea1b606482015260840161052b565b600082815260cb6020526040902060010154341461074d5760405162461bcd60e51b815260206004820152601a60248201527f4974656d2061736b696e67207072696365206e6f742073656e74000000000000604482015260640161052b565b600082815260cb60205260408120600201546001600160a01b031690805b6001600160a01b038316600090815260cd6020526040902054811015610806576001600160a01b038316600090815260cd602052604090208054869190839081106107b8576107b86120cb565b906000526020600020015414156107f4576001600160a01b038316600090815260cd602052604090206107eb9082611b59565b60019150610806565b806107fe816120f7565b91505061076b565b508061081457610814612112565b60008061082087611c37565b156108c257600086815260cb60205260409081902060010154905163152a902d60e11b81526001600160a01b03891691632a55205a9161086d918a91600401918252602082015260400190565b604080518083038186803b15801561088457600080fd5b505afa158015610898573d6000803e3d6000fd5b505050506040513d601f19601f820116820180604052508101906108bc9190612128565b90925090505b600086815260cb602052604081206001015460c9546064916108e391612156565b6108ed9190612175565b600088815260cb6020526040812060010154919250908390610910908490612197565b61091a9190612197565b600089815260cb6020908152604091829020600281015460019091015492519283529293508a926001600160a01b03169133917f9fa236593f411affe147142a606176190ea6b18be0643332f081175cfe608b6b910160405180910390a4600088815260cb60205260408082208281556001810192909255600290910180546001600160a01b0319169055516323b872dd60e01b8152306004820152336024820152604481018990526001600160a01b038a16906323b872dd90606401600060405180830381600087803b1580156109f157600080fd5b505af1158015610a05573d6000803e3d6000fd5b505050506000610a1d6065546001600160a01b031690565b6001600160a01b03168360405160006040518083038185875af1925050503d8060008114610a67576040519150601f19603f3d011682016040523d82523d6000602084013e610a6c565b606091505b5050905080610ac85760405162461bcd60e51b815260206004820152602260248201527f436f756c64206e6f742073656e6420746865206f776e65722074686569722066604482015261656560f01b606482015260840161052b565b8315610bc3576000856001600160a01b03168560405160006040518083038185875af1925050503d8060008114610b1b576040519150601f19603f3d011682016040523d82523d6000602084013e610b20565b606091505b5050905080610b7d5760405162461bcd60e51b8152602060048201526024808201527f436f756c64206e6f742073656e64207468652063726561746f722074686569726044820152632066656560e01b606482015260840161052b565b89866001600160a01b03167fa93bd4a1d4bdb55b24ddaa34c4b08645957bef952e9de9b905c4d6aac6c4e04687604051610bb991815260200190565b60405180910390a3505b6000876001600160a01b03168360405160006040518083038185875af1925050503d8060008114610c10576040519150601f19603f3d011682016040523d82523d6000602084013e610c15565b606091505b5050905080610c725760405162461bcd60e51b815260206004820152602360248201527f436f756c64206e6f742073656e64207468652073656c6c65722074686569722060448201526266656560e81b606482015260840161052b565b505060018055505050505050505050565b606060008060008411610cd85760405162461bcd60e51b815260206004820152601f60248201527f4c696d6974206d757374206265206120706f736974697665206e756d62657200604482015260640161052b565b6101f48410610d295760405162461bcd60e51b815260206004820152601d60248201527f4c696d6974656420746f20353030206974656d73207065722070616765000000604482015260640161052b565b60cc54851115610d4b5760405162461bcd60e51b815260040161052b906121ae565b60cc54610d59908690612197565b841115610d715760cc54610d6e908690612197565b93505b8367ffffffffffffffff811115610d8a57610d8a6121f7565b604051908082528060200260200182016040528015610dc357816020015b610db0611eb2565b815260200190600190039081610da85790505b5060cc54909350600090610dde575060009150819050610ec4565b60cc54600090610df090600190612197565b90505b85821015610eac57600060cc610e098984612197565b81548110610e1957610e196120cb565b600091825260208083209091015480835260cb8252604092839020835160608101855281548152600182015493810193909352600201546001600160a01b031692820192909252875191925090879085908110610e7857610e786120cb565b6020908102919091010152610e8e60018461220d565b925081610e9b5750610eac565b50610ea581612225565b9050610df3565b5083610eb8868861220d565b60cc5491955093509150505b9250925092565b610ed3611a5f565b6104eb6000611cc1565b606060008060008411610f325760405162461bcd60e51b815260206004820152601f60248201527f4c696d6974206d757374206265206120706f736974697665206e756d62657200604482015260640161052b565b6101f48410610f835760405162461bcd60e51b815260206004820152601d60248201527f4c696d6974656420746f20353030206974656d73207065722070616765000000604482015260640161052b565b60cc54851115610fa55760405162461bcd60e51b815260040161052b906121ae565b6001600160a01b038616600090815260cd6020526040902054610fc9908690612197565b841115610ff7576001600160a01b038616600090815260cd6020526040902054610ff4908690612197565b93505b8367ffffffffffffffff811115611010576110106121f7565b60405190808252806020026020018201604052801561104957816020015b611036611eb2565b81526020019060019003908161102e5790505b506001600160a01b038716600090815260cd60205260408120549194509061107857506000915081905061119b565b6001600160a01b038716600090815260cd602052604081205461109d90600190612197565b90505b8582101561116d576001600160a01b038816600090815260cd602052604081206110ca8984612197565b815481106110da576110da6120cb565b600091825260208083209091015480835260cb8252604092839020835160608101855281548152600182015493810193909352600201546001600160a01b031692820192909252875191925090879085908110611139576111396120cb565b602090810291909101015261114f60018461220d565b92508161115c575061116d565b5061116681612225565b90506110a0565b5083611179868861220d565b6001600160a01b038916600090815260cd602052604090205491955093509150505b93509350939050565b6111ac611a5f565b60ca55565b600260015414156111d45760405162461bcd60e51b815260040161052b90612094565b60026001556111e1611b13565b6040516331a9108f60e11b8152600481018390526001600160a01b03841690636352211e9060240160206040518083038186803b15801561122157600080fd5b505afa158015611235573d6000803e3d6000fd5b505050506040513d601f19601f82011682018060405250810190611259919061223c565b6001600160a01b0316336001600160a01b0316146112d35760405162461bcd60e51b815260206004820152603160248201527f596f7520646f206e6f74206f776e207468697320746f6b656e206f72206974206044820152701a5cc8185b1c9958591e481b1a5cdd1959607a1b606482015260840161052b565b60ca5481101561134b5760405162461bcd60e51b815260206004820152603c60248201527f546f6b656e206d757374206265206c697374656420617420746865206d696e6960448201527f6d756d206c697374696e67207072696365206f72206869676865722e00000000606482015260840161052b565b61135483611c37565b156114785760405163152a902d60e11b81526004810183905261271060248201526000906001600160a01b03851690632a55205a90604401604080518083038186803b1580156113a357600080fd5b505afa1580156113b7573d6000803e3d6000fd5b505050506040513d601f19601f820116820180604052508101906113db9190612128565b60ce549092506001600160601b031682111590506114765760405162461bcd60e51b815260206004820152604c60248201527f546f6b656e206d7573742068617665206120726f79616c74792066656520657160448201527f75616c20746f206f72206c6f776572207468616e20746865206d6178696d756d60648201526b20726f79616c74792066656560a01b608482015260a40161052b565b505b60408051606081018252838152602080820184815233838501818152600088815260cb85528681209551865592516001808701919091559051600290950180546001600160a01b0319166001600160a01b039096169590951790945560cc80548086019091557f47197230e1e4b29fc0bd84d7d78966c0925452aff72a2a121538b102457e9ebe0187905580825260cd835284822080549485018155825290829020909201859055915183815284927f5dc96537cbae524775a674b6a810d9a1ba04a9e279f172d156b352151394677a910160405180910390a36040516323b872dd60e01b8152336004820152306024820152604481018390526001600160a01b038416906323b872dd90606401600060405180830381600087803b1580156115a057600080fd5b505af11580156115b4573d6000803e3d6000fd5b5050600180555050505050565b600054610100900460ff16158080156115e15750600054600160ff909116105b806115fb5750303b1580156115fb575060005460ff166001145b6116175760405162461bcd60e51b815260040161052b90612046565b6000805460ff19166001179055801561163a576000805461ff0019166101001790555b611642611d13565b61164a611d42565b611652611d71565b600360c955670de0b6b3a764000060ca5580156116a5576000805461ff0019169055604051600181527f7f26b83ff96e1f2b6a682f133852f6798a09c465da95921460cefb384740249890602001610595565b50565b60cd60205281600052604060002081815481106116c457600080fd5b90600052602060002001600091509150505481565b6116e1611a5f565b6104eb611da0565b6116f1611a5f565b60ce80546bffffffffffffffffffffffff19166001600160601b0392909216919091179055565b611720611a5f565b6001600160a01b0381166117855760405162461bcd60e51b815260206004820152602660248201527f4f776e61626c653a206e6577206f776e657220697320746865207a65726f206160448201526564647265737360d01b606482015260840161052b565b6116a581611cc1565b600260015414156117b15760405162461bcd60e51b815260040161052b90612094565b60026001556000805b60cc5481101561180f578260cc82815481106117d8576117d86120cb565b906000526020600020015414156117fd57600191506117f860cc82611b59565b61180f565b80611807816120f7565b9150506117ba565b508061185d5760405162461bcd60e51b815260206004820152601d60248201527f546f6b656e206973206e6f74206c6973746564206f6e204d61726b6574000000604482015260640161052b565b600082815260cb60205260409020600201546001600160a01b031633146118d25760405162461bcd60e51b815260206004820152602360248201527f4f6e6c792074686520746f6b656e2073656c6c65722063616e2064656c697374604482015262081a5d60ea1b606482015260840161052b565b600082815260cb60205260408120600201546001600160a01b031690805b6001600160a01b038316600090815260cd602052604090205481101561198b576001600160a01b038316600090815260cd6020526040902080548691908390811061193d5761193d6120cb565b90600052602060002001541415611979576001600160a01b038316600090815260cd602052604090206119709082611b59565b6001915061198b565b80611983816120f7565b9150506118f0565b508061199957611999612112565b600084815260cb60205260408082208281556001810183905560020180546001600160a01b031916905551859133917f79ffd724e98b078a43f0e334c23fbc6352847b68166aeaf1b98dc206494a59eb9190a36040516323b872dd60e01b81523060048201526001600160a01b038381166024830152604482018690528616906323b872dd90606401600060405180830381600087803b158015611a3c57600080fd5b505af1158015611a50573d6000803e3d6000fd5b50506001805550505050505050565b6065546001600160a01b031633146104eb5760405162461bcd60e51b815260206004820181905260248201527f4f776e61626c653a2063616c6c6572206973206e6f7420746865206f776e6572604482015260640161052b565b611ac1611b13565b6097805460ff191660011790557f62e78cea01bee320cd4e420270b5ea74000d11b0c9f74754ebdbfc544b05a258611af63390565b6040516001600160a01b03909116815260200160405180910390a1565b60975460ff16156104eb5760405162461bcd60e51b815260206004820152601060248201526f14185d5cd8589b194e881c185d5cd95960821b604482015260640161052b565b81548110611b9e5760405162461bcd60e51b81526020600482015260126024820152711a5b99195e081bdd5d081bd988189bdd5b9960721b604482015260640161052b565b805b8254611bae90600190612197565b811015611c0c5782611bc182600161220d565b81548110611bd157611bd16120cb565b9060005260206000200154838281548110611bee57611bee6120cb565b60009182526020909120015580611c04816120f7565b915050611ba0565b5081805480611c1d57611c1d612259565b600190038181906000526020600020016000905590555050565b6040516301ffc9a760e01b815263152a902d60e11b600482015260009081906001600160a01b038416906301ffc9a79060240160206040518083038186803b158015611c8257600080fd5b505afa158015611c96573d6000803e3d6000fd5b505050506040513d601f19601f82011682018060405250810190611cba919061226f565b9392505050565b606580546001600160a01b038381166001600160a01b0319831681179093556040519116919082907f8be0079c531659141344cd1fd0a4f28419497f9722a3daafe3b4186f6b6457e090600090a35050565b600054610100900460ff16611d3a5760405162461bcd60e51b815260040161052b90612291565b6104eb611dd9565b600054610100900460ff16611d695760405162461bcd60e51b815260040161052b90612291565b6104eb611e06565b600054610100900460ff16611d985760405162461bcd60e51b815260040161052b90612291565b6104eb611e36565b611da8611e69565b6097805460ff191690557f5db9ee0a495bf2e6ff9c91a7834c1ba4fdd244a5e8aa4e537bd38aeae4b073aa33611af6565b600054610100900460ff16611e005760405162461bcd60e51b815260040161052b90612291565b60018055565b600054610100900460ff16611e2d5760405162461bcd60e51b815260040161052b90612291565b6104eb33611cc1565b600054610100900460ff16611e5d5760405162461bcd60e51b815260040161052b90612291565b6097805460ff19169055565b60975460ff166104eb5760405162461bcd60e51b815260206004820152601460248201527314185d5cd8589b194e881b9bdd081c185d5cd95960621b604482015260640161052b565b6040518060600160405280600081526020016000815260200160006001600160a01b031681525090565b600060208284031215611eee57600080fd5b5035919050565b6001600160a01b03811681146116a557600080fd5b60008060408385031215611f1d57600080fd5b8235611f2881611ef5565b946020939093013593505050565b60008060408385031215611f4957600080fd5b50508035926020909101359150565b60608082528451828201819052600091906020906080850190828901855b82811015611fb657611fa684835180518252602080820151908301526040908101516001600160a01b0316910152565b9285019290840190600101611f76565b50505090840195909552505060400152919050565b600060208284031215611fdd57600080fd5b8135611cba81611ef5565b600080600060608486031215611ffd57600080fd5b833561200881611ef5565b95602085013595506040909401359392505050565b60006020828403121561202f57600080fd5b81356001600160601b0381168114611cba57600080fd5b6020808252602e908201527f496e697469616c697a61626c653a20636f6e747261637420697320616c72656160408201526d191e481a5b9a5d1a585b1a5e995960921b606082015260800190565b6020808252601f908201527f5265656e7472616e637947756172643a207265656e7472616e742063616c6c00604082015260600190565b634e487b7160e01b600052603260045260246000fd5b634e487b7160e01b600052601160045260246000fd5b600060001982141561210b5761210b6120e1565b5060010190565b634e487b7160e01b600052600160045260246000fd5b6000806040838503121561213b57600080fd5b825161214681611ef5565b6020939093015192949293505050565b6000816000190483118215151615612170576121706120e1565b500290565b60008261219257634e487b7160e01b600052601260045260246000fd5b500490565b6000828210156121a9576121a96120e1565b500390565b60208082526029908201527f4f66667365742069732067726561746572207468616e206e756d626572206f66604082015268206c697374696e677360b81b606082015260800190565b634e487b7160e01b600052604160045260246000fd5b60008219821115612220576122206120e1565b500190565b600081612234576122346120e1565b506000190190565b60006020828403121561224e57600080fd5b8151611cba81611ef5565b634e487b7160e01b600052603160045260246000fd5b60006020828403121561228157600080fd5b81518015158114611cba57600080fd5b6020808252602b908201527f496e697469616c697a61626c653a20636f6e7472616374206973206e6f74206960408201526a6e697469616c697a696e6760a81b60608201526080019056fea2646970667358221220d2d1f4e18d2c2a2f428d1e1270ebbbef5605d94b91531168d26334643c60cbe764736f6c63430008090033",
  "linkReferences": {},
  "deployedLinkReferences": {}
}