{
  "_format": "hh-sol-artifact-1",
  "contractName": "HodlMarket",
  "sourceName": "contracts/HodlMarket.sol",
  "abi": [
    {
      "anonymous": false,
      "inputs": [
        {
          "indexed": false,
          "internalType": "uint8",
          "name": "version",
          "type": "uint8"
        }
      ],
      "name": "Initialized",
      "type": "event"
    },
    {
      "anonymous": false,
      "inputs": [
        {
          "indexed": true,
          "internalType": "address",
          "name": "previousOwner",
          "type": "address"
        },
        {
          "indexed": true,
          "internalType": "address",
          "name": "newOwner",
          "type": "address"
        }
      ],
      "name": "OwnershipTransferred",
      "type": "event"
    },
    {
      "anonymous": false,
      "inputs": [
        {
          "indexed": false,
          "internalType": "address",
          "name": "account",
          "type": "address"
        }
      ],
      "name": "Paused",
      "type": "event"
    },
    {
      "anonymous": false,
      "inputs": [
        {
          "indexed": true,
          "internalType": "address",
          "name": "buyer",
          "type": "address"
        },
        {
          "indexed": true,
          "internalType": "address",
          "name": "seller",
          "type": "address"
        },
        {
          "indexed": true,
          "internalType": "uint256",
          "name": "tokenId",
          "type": "uint256"
        },
        {
          "indexed": false,
          "internalType": "uint256",
          "name": "price",
          "type": "uint256"
        }
      ],
      "name": "TokenBought",
      "type": "event"
    },
    {
      "anonymous": false,
      "inputs": [
        {
          "indexed": true,
          "internalType": "address",
          "name": "seller",
          "type": "address"
        },
        {
          "indexed": true,
          "internalType": "uint256",
          "name": "tokenId",
          "type": "uint256"
        }
      ],
      "name": "TokenDelisted",
      "type": "event"
    },
    {
      "anonymous": false,
      "inputs": [
        {
          "indexed": true,
          "internalType": "address",
          "name": "seller",
          "type": "address"
        },
        {
          "indexed": true,
          "internalType": "uint256",
          "name": "tokenId",
          "type": "uint256"
        },
        {
          "indexed": false,
          "internalType": "uint256",
          "name": "price",
          "type": "uint256"
        }
      ],
      "name": "TokenListed",
      "type": "event"
    },
    {
      "anonymous": false,
      "inputs": [
        {
          "indexed": false,
          "internalType": "address",
          "name": "account",
          "type": "address"
        }
      ],
      "name": "Unpaused",
      "type": "event"
    },
    {
      "inputs": [
        {
          "internalType": "address",
          "name": "",
          "type": "address"
        },
        {
          "internalType": "uint256",
          "name": "",
          "type": "uint256"
        }
      ],
      "name": "addressToTokenIds",
      "outputs": [
        {
          "internalType": "uint256",
          "name": "",
          "type": "uint256"
        }
      ],
      "stateMutability": "view",
      "type": "function"
    },
    {
      "inputs": [
        {
          "internalType": "address",
          "name": "_address",
          "type": "address"
        }
      ],
      "name": "balanceOf",
      "outputs": [
        {
          "internalType": "uint256",
          "name": "",
          "type": "uint256"
        }
      ],
      "stateMutability": "view",
      "type": "function"
    },
    {
      "inputs": [
        {
          "internalType": "address",
          "name": "tokenContract",
          "type": "address"
        },
        {
          "internalType": "uint256",
          "name": "tokenId",
          "type": "uint256"
        }
      ],
      "name": "buyToken",
      "outputs": [],
      "stateMutability": "payable",
      "type": "function"
    },
    {
      "inputs": [
        {
          "internalType": "address",
          "name": "tokenContract",
          "type": "address"
        },
        {
          "internalType": "uint256",
          "name": "tokenId",
          "type": "uint256"
        }
      ],
      "name": "delistToken",
      "outputs": [],
      "stateMutability": "payable",
      "type": "function"
    },
    {
      "inputs": [
        {
          "internalType": "uint256",
          "name": "offset",
          "type": "uint256"
        },
        {
          "internalType": "uint256",
          "name": "limit",
          "type": "uint256"
        }
      ],
      "name": "fetchMarketItems",
      "outputs": [
        {
          "components": [
            {
              "internalType": "uint256",
              "name": "tokenId",
              "type": "uint256"
            },
            {
              "internalType": "uint256",
              "name": "price",
              "type": "uint256"
            },
            {
              "internalType": "address payable",
              "name": "seller",
              "type": "address"
            }
          ],
          "internalType": "struct HodlMarket.Listing[]",
          "name": "page",
          "type": "tuple[]"
        },
        {
          "internalType": "uint256",
          "name": "nextOffset",
          "type": "uint256"
        },
        {
          "internalType": "uint256",
          "name": "totalItems",
          "type": "uint256"
        }
      ],
      "stateMutability": "view",
      "type": "function"
    },
    {
      "inputs": [
        {
          "internalType": "uint256",
          "name": "tokenId",
          "type": "uint256"
        }
      ],
      "name": "getListing",
      "outputs": [
        {
          "components": [
            {
              "internalType": "uint256",
              "name": "tokenId",
              "type": "uint256"
            },
            {
              "internalType": "uint256",
              "name": "price",
              "type": "uint256"
            },
            {
              "internalType": "address payable",
              "name": "seller",
              "type": "address"
            }
          ],
          "internalType": "struct HodlMarket.Listing",
          "name": "",
          "type": "tuple"
        }
      ],
      "stateMutability": "view",
      "type": "function"
    },
    {
      "inputs": [
        {
          "internalType": "address",
          "name": "_address",
          "type": "address"
        },
        {
          "internalType": "uint256",
          "name": "offset",
          "type": "uint256"
        },
        {
          "internalType": "uint256",
          "name": "limit",
          "type": "uint256"
        }
      ],
      "name": "getListingsForAddress",
      "outputs": [
        {
          "components": [
            {
              "internalType": "uint256",
              "name": "tokenId",
              "type": "uint256"
            },
            {
              "internalType": "uint256",
              "name": "price",
              "type": "uint256"
            },
            {
              "internalType": "address payable",
              "name": "seller",
              "type": "address"
            }
          ],
          "internalType": "struct HodlMarket.Listing[]",
          "name": "page",
          "type": "tuple[]"
        },
        {
          "internalType": "uint256",
          "name": "nextOffset",
          "type": "uint256"
        },
        {
          "internalType": "uint256",
          "name": "totalItems",
          "type": "uint256"
        }
      ],
      "stateMutability": "view",
      "type": "function"
    },
    {
      "inputs": [],
      "name": "initialize",
      "outputs": [],
      "stateMutability": "nonpayable",
      "type": "function"
    },
    {
      "inputs": [
        {
          "internalType": "address",
          "name": "tokenContract",
          "type": "address"
        },
        {
          "internalType": "uint256",
          "name": "tokenId",
          "type": "uint256"
        },
        {
          "internalType": "uint256",
          "name": "price",
          "type": "uint256"
        }
      ],
      "name": "listToken",
      "outputs": [],
      "stateMutability": "payable",
      "type": "function"
    },
    {
      "inputs": [
        {
          "internalType": "uint256",
          "name": "",
          "type": "uint256"
        }
      ],
      "name": "listings",
      "outputs": [
        {
          "internalType": "uint256",
          "name": "tokenId",
          "type": "uint256"
        },
        {
          "internalType": "uint256",
          "name": "price",
          "type": "uint256"
        },
        {
          "internalType": "address payable",
          "name": "seller",
          "type": "address"
        }
      ],
      "stateMutability": "view",
      "type": "function"
    },
    {
      "inputs": [],
      "name": "marketSaleFeeInPercent",
      "outputs": [
        {
          "internalType": "uint256",
          "name": "",
          "type": "uint256"
        }
      ],
      "stateMutability": "view",
      "type": "function"
    },
    {
      "inputs": [],
      "name": "minListingPriceInMatic",
      "outputs": [
        {
          "internalType": "uint256",
          "name": "",
          "type": "uint256"
        }
      ],
      "stateMutability": "view",
      "type": "function"
    },
    {
      "inputs": [],
      "name": "owner",
      "outputs": [
        {
          "internalType": "address",
          "name": "",
          "type": "address"
        }
      ],
      "stateMutability": "view",
      "type": "function"
    },
    {
      "inputs": [],
      "name": "pauseContract",
      "outputs": [],
      "stateMutability": "nonpayable",
      "type": "function"
    },
    {
      "inputs": [],
      "name": "paused",
      "outputs": [
        {
          "internalType": "bool",
          "name": "",
          "type": "bool"
        }
      ],
      "stateMutability": "view",
      "type": "function"
    },
    {
      "inputs": [],
      "name": "renounceOwnership",
      "outputs": [],
      "stateMutability": "nonpayable",
      "type": "function"
    },
    {
      "inputs": [
        {
          "internalType": "uint256",
          "name": "_marketSaleFeeInPercent",
          "type": "uint256"
        }
      ],
      "name": "setMarketSaleFeeInPercent",
      "outputs": [],
      "stateMutability": "nonpayable",
      "type": "function"
    },
    {
      "inputs": [
        {
          "internalType": "uint256",
          "name": "_minListingPriceInMatic",
          "type": "uint256"
        }
      ],
      "name": "setMinListingPriceInMatic",
      "outputs": [],
      "stateMutability": "nonpayable",
      "type": "function"
    },
    {
      "inputs": [
        {
          "internalType": "address",
          "name": "newOwner",
          "type": "address"
        }
      ],
      "name": "transferOwnership",
      "outputs": [],
      "stateMutability": "nonpayable",
      "type": "function"
    },
    {
      "inputs": [],
      "name": "unpauseContract",
      "outputs": [],
      "stateMutability": "nonpayable",
      "type": "function"
    }
  ],
  "bytecode": "0x608060405234801561001057600080fd5b50612040806100206000396000f3fe60806040526004361061011f5760003560e01c80637726d2c1116100a0578063a57465e111610064578063a57465e114610325578063b33712c514610345578063de74e57b1461035a578063f2fde38b146103c3578063feb88406146103e357600080fd5b80637726d2c11461029f5780637e07590d146102bf5780638129fc1c146102d25780638da5cb5b146102e7578063932e1a601461030f57600080fd5b80637031f8fa116100e75780637031f8fa146101e15780637063b64e1461020557806370a0823114610234578063715018a61461026a578063755201fd1461027f57600080fd5b8063107a274a14610124578063111d2cf214610174578063439766ce146101965780635c975abb146101ab57806368f8fc10146101ce575b600080fd5b34801561013057600080fd5b5061014461013f366004611bfa565b6103f6565b604080518251815260208084015190820152918101516001600160a01b0316908201526060015b60405180910390f35b34801561018057600080fd5b5061019461018f366004611bfa565b610440565b005b3480156101a257600080fd5b5061019461044d565b3480156101b757600080fd5b5060975460ff16604051901515815260200161016b565b6101946101dc366004611c28565b61045f565b3480156101ed57600080fd5b506101f760ca5481565b60405190815260200161016b565b34801561021157600080fd5b50610225610220366004611c54565b610994565b60405161016b93929190611c76565b34801561024057600080fd5b506101f761024f366004611ce9565b6001600160a01b0316600090815260cd602052604090205490565b34801561027657600080fd5b50610194610bdc565b34801561028b57600080fd5b5061022561029a366004611d0d565b610bee565b3480156102ab57600080fd5b506101946102ba366004611bfa565b610eb5565b6101946102cd366004611d0d565b610ec2565b3480156102de57600080fd5b5061019461135c565b3480156102f357600080fd5b506065546040516001600160a01b03909116815260200161016b565b34801561031b57600080fd5b506101f760c95481565b34801561033157600080fd5b506101f7610340366004611c28565b61148e565b34801561035157600080fd5b506101946114bf565b34801561036657600080fd5b5061039f610375366004611bfa565b60cb602052600090815260409020805460018201546002909201549091906001600160a01b031683565b6040805193845260208401929092526001600160a01b03169082015260600161016b565b3480156103cf57600080fd5b506101946103de366004611ce9565b6114cf565b6101946103f1366004611c28565b611545565b6103fe611bd0565b50600090815260cb6020908152604091829020825160608101845281548152600182015492810192909252600201546001600160a01b03169181019190915290565b610448611807565b60c955565b610455611807565b61045d611861565b565b6002600154141561048b5760405162461bcd60e51b815260040161048290611d42565b60405180910390fd5b60026001556104986118bb565b6000805b60cc548110156104f1578260cc82815481106104ba576104ba611d79565b906000526020600020015414156104df57600191506104da60cc82611901565b6104f1565b806104e981611da5565b91505061049c565b508061053f5760405162461bcd60e51b815260206004820152601d60248201527f546f6b656e206973206e6f74206c6973746564206f6e204d61726b65740000006044820152606401610482565b600082815260cb60205260409020600201546001600160a01b03163314156105b55760405162461bcd60e51b815260206004820152602360248201527f596f752073686f756c642064656c69737420796f7572206974656d20696e737460448201526219585960ea1b6064820152608401610482565b600082815260cb602052604090206001015434146106155760405162461bcd60e51b815260206004820152601a60248201527f4974656d2061736b696e67207072696365206e6f742073656e740000000000006044820152606401610482565b600082815260cb60205260408120600201546001600160a01b031690805b6001600160a01b038316600090815260cd60205260409020548110156106ce576001600160a01b038316600090815260cd6020526040902080548691908390811061068057610680611d79565b906000526020600020015414156106bc576001600160a01b038316600090815260cd602052604090206106b39082611901565b600191506106ce565b806106c681611da5565b915050610633565b50806106dc576106dc611dc0565b600084815260cb602052604081206001015460c9546064916106fd91611dd6565b6107079190611df5565b600086815260cb602052604081206001015491925090610728908390611e17565b600087815260cb60209081526040918290206002810154600190910154925192835292935088926001600160a01b03169133917f9fa236593f411affe147142a606176190ea6b18be0643332f081175cfe608b6b910160405180910390a4600086815260cb60205260408082208281556001810192909255600290910180546001600160a01b0319169055516323b872dd60e01b8152306004820152336024820152604481018790526001600160a01b038816906323b872dd90606401600060405180830381600087803b1580156107ff57600080fd5b505af1158015610813573d6000803e3d6000fd5b50505050600061082b6065546001600160a01b031690565b6001600160a01b03168360405160006040518083038185875af1925050503d8060008114610875576040519150601f19603f3d011682016040523d82523d6000602084013e61087a565b606091505b50509050806108d65760405162461bcd60e51b815260206004820152602260248201527f436f756c64206e6f742073656e6420746865206f776e65722074686569722066604482015261656560f01b6064820152608401610482565b6000856001600160a01b03168360405160006040518083038185875af1925050503d8060008114610923576040519150601f19603f3d011682016040523d82523d6000602084013e610928565b606091505b50509050806109855760405162461bcd60e51b815260206004820152602360248201527f436f756c64206e6f742073656e64207468652073656c6c65722074686569722060448201526266656560e81b6064820152608401610482565b50506001805550505050505050565b6060600080600084116109e95760405162461bcd60e51b815260206004820152601f60248201527f4c696d6974206d757374206265206120706f736974697665206e756d626572006044820152606401610482565b6101f48410610a3a5760405162461bcd60e51b815260206004820152601d60248201527f4c696d6974656420746f20353030206974656d732070657220706167650000006044820152606401610482565b60cc54851115610a5c5760405162461bcd60e51b815260040161048290611e2e565b60cc54610a6a908690611e17565b841115610a825760cc54610a7f908690611e17565b93505b8367ffffffffffffffff811115610a9b57610a9b611e77565b604051908082528060200260200182016040528015610ad457816020015b610ac1611bd0565b815260200190600190039081610ab95790505b5060cc54909350600090610aef575060009150819050610bd5565b60cc54600090610b0190600190611e17565b90505b85821015610bbd57600060cc610b1a8984611e17565b81548110610b2a57610b2a611d79565b600091825260208083209091015480835260cb8252604092839020835160608101855281548152600182015493810193909352600201546001600160a01b031692820192909252875191925090879085908110610b8957610b89611d79565b6020908102919091010152610b9f600184611e8d565b925081610bac5750610bbd565b50610bb681611ea5565b9050610b04565b5083610bc98688611e8d565b60cc5491955093509150505b9250925092565b610be4611807565b61045d60006119df565b606060008060008411610c435760405162461bcd60e51b815260206004820152601f60248201527f4c696d6974206d757374206265206120706f736974697665206e756d626572006044820152606401610482565b6101f48410610c945760405162461bcd60e51b815260206004820152601d60248201527f4c696d6974656420746f20353030206974656d732070657220706167650000006044820152606401610482565b60cc54851115610cb65760405162461bcd60e51b815260040161048290611e2e565b6001600160a01b038616600090815260cd6020526040902054610cda908690611e17565b841115610d08576001600160a01b038616600090815260cd6020526040902054610d05908690611e17565b93505b8367ffffffffffffffff811115610d2157610d21611e77565b604051908082528060200260200182016040528015610d5a57816020015b610d47611bd0565b815260200190600190039081610d3f5790505b506001600160a01b038716600090815260cd602052604081205491945090610d89575060009150819050610eac565b6001600160a01b038716600090815260cd6020526040812054610dae90600190611e17565b90505b85821015610e7e576001600160a01b038816600090815260cd60205260408120610ddb8984611e17565b81548110610deb57610deb611d79565b600091825260208083209091015480835260cb8252604092839020835160608101855281548152600182015493810193909352600201546001600160a01b031692820192909252875191925090879085908110610e4a57610e4a611d79565b6020908102919091010152610e60600184611e8d565b925081610e6d5750610e7e565b50610e7781611ea5565b9050610db1565b5083610e8a8688611e8d565b6001600160a01b038916600090815260cd602052604090205491955093509150505b93509350939050565b610ebd611807565b60ca55565b60026001541415610ee55760405162461bcd60e51b815260040161048290611d42565b6002600155610ef26118bb565b60405180604001604052806008815260200167121bd91b0813919560c21b81525080519060200120836001600160a01b03166306fdde036040518163ffffffff1660e01b815260040160006040518083038186803b158015610f5357600080fd5b505afa158015610f67573d6000803e3d6000fd5b505050506040513d6000823e601f3d908101601f19168201604052610f8f9190810190611ebc565b805190602001201480156110405750604051806040016040528060048152602001631213919560e21b81525080519060200120836001600160a01b03166395d89b416040518163ffffffff1660e01b815260040160006040518083038186803b158015610ffb57600080fd5b505afa15801561100f573d6000803e3d6000fd5b505050506040513d6000823e601f3d908101601f191682016040526110379190810190611ebc565b80519060200120145b6110a95760405162461bcd60e51b815260206004820152603460248201527f5765206f6e6c7920737570706f727420486f646c4e465473206f6e20746865206044820152731b585c9ad95d08185d081d1a19481b5bdb595b9d60621b6064820152608401610482565b6040516331a9108f60e11b8152600481018390526001600160a01b03841690636352211e9060240160206040518083038186803b1580156110e957600080fd5b505afa1580156110fd573d6000803e3d6000fd5b505050506040513d601f19601f820116820180604052508101906111219190611f8c565b6001600160a01b0316336001600160a01b03161461119b5760405162461bcd60e51b815260206004820152603160248201527f596f7520646f206e6f74206f776e207468697320746f6b656e206f72206974206044820152701a5cc8185b1c9958591e481b1a5cdd1959607a1b6064820152608401610482565b60ca548110156112135760405162461bcd60e51b815260206004820152603c60248201527f546f6b656e206d757374206265206c697374656420617420746865206d696e6960448201527f6d756d206c697374696e67207072696365206f72206869676865722e000000006064820152608401610482565b60408051606081018252838152602080820184815233838501818152600088815260cb85528681209551865592516001808701919091559051600290950180546001600160a01b0319166001600160a01b039096169590951790945560cc80548086019091557f47197230e1e4b29fc0bd84d7d78966c0925452aff72a2a121538b102457e9ebe0187905580825260cd835284822080549485018155825290829020909201859055915183815284927f5dc96537cbae524775a674b6a810d9a1ba04a9e279f172d156b352151394677a910160405180910390a36040516323b872dd60e01b8152336004820152306024820152604481018390526001600160a01b038416906323b872dd90606401600060405180830381600087803b15801561133b57600080fd5b505af115801561134f573d6000803e3d6000fd5b5050600180555050505050565b600054610100900460ff161580801561137c5750600054600160ff909116105b806113965750303b158015611396575060005460ff166001145b6113f95760405162461bcd60e51b815260206004820152602e60248201527f496e697469616c697a61626c653a20636f6e747261637420697320616c72656160448201526d191e481a5b9a5d1a585b1a5e995960921b6064820152608401610482565b6000805460ff19166001179055801561141c576000805461ff0019166101001790555b611424611a31565b61142c611a60565b611434611a8f565b600360c955670de0b6b3a764000060ca55801561148b576000805461ff0019169055604051600181527f7f26b83ff96e1f2b6a682f133852f6798a09c465da95921460cefb38474024989060200160405180910390a15b50565b60cd60205281600052604060002081815481106114aa57600080fd5b90600052602060002001600091509150505481565b6114c7611807565b61045d611abe565b6114d7611807565b6001600160a01b03811661153c5760405162461bcd60e51b815260206004820152602660248201527f4f776e61626c653a206e6577206f776e657220697320746865207a65726f206160448201526564647265737360d01b6064820152608401610482565b61148b816119df565b600260015414156115685760405162461bcd60e51b815260040161048290611d42565b60026001556000805b60cc548110156115c6578260cc828154811061158f5761158f611d79565b906000526020600020015414156115b457600191506115af60cc82611901565b6115c6565b806115be81611da5565b915050611571565b50806116145760405162461bcd60e51b815260206004820152601d60248201527f546f6b656e206973206e6f74206c6973746564206f6e204d61726b65740000006044820152606401610482565b600082815260cb60205260409020600201546001600160a01b031633146116895760405162461bcd60e51b815260206004820152602360248201527f4f6e6c792074686520746f6b656e2073656c6c65722063616e2064656c697374604482015262081a5d60ea1b6064820152608401610482565b600082815260cb60205260408120600201546001600160a01b031690805b6001600160a01b038316600090815260cd6020526040902054811015611742576001600160a01b038316600090815260cd602052604090208054869190839081106116f4576116f4611d79565b90600052602060002001541415611730576001600160a01b038316600090815260cd602052604090206117279082611901565b60019150611742565b8061173a81611da5565b9150506116a7565b508061175057611750611dc0565b600084815260cb60205260408082208281556001810183905560020180546001600160a01b031916905551859133917f79ffd724e98b078a43f0e334c23fbc6352847b68166aeaf1b98dc206494a59eb9190a36040516323b872dd60e01b81523060048201526001600160a01b038381166024830152604482018690528616906323b872dd90606401600060405180830381600087803b1580156117f357600080fd5b505af1158015610985573d6000803e3d6000fd5b6065546001600160a01b0316331461045d5760405162461bcd60e51b815260206004820181905260248201527f4f776e61626c653a2063616c6c6572206973206e6f7420746865206f776e65726044820152606401610482565b6118696118bb565b6097805460ff191660011790557f62e78cea01bee320cd4e420270b5ea74000d11b0c9f74754ebdbfc544b05a25861189e3390565b6040516001600160a01b03909116815260200160405180910390a1565b60975460ff161561045d5760405162461bcd60e51b815260206004820152601060248201526f14185d5cd8589b194e881c185d5cd95960821b6044820152606401610482565b815481106119465760405162461bcd60e51b81526020600482015260126024820152711a5b99195e081bdd5d081bd988189bdd5b9960721b6044820152606401610482565b805b825461195690600190611e17565b8110156119b45782611969826001611e8d565b8154811061197957611979611d79565b906000526020600020015483828154811061199657611996611d79565b600091825260209091200155806119ac81611da5565b915050611948565b50818054806119c5576119c5611fa9565b600190038181906000526020600020016000905590555050565b606580546001600160a01b038381166001600160a01b0319831681179093556040519116919082907f8be0079c531659141344cd1fd0a4f28419497f9722a3daafe3b4186f6b6457e090600090a35050565b600054610100900460ff16611a585760405162461bcd60e51b815260040161048290611fbf565b61045d611af7565b600054610100900460ff16611a875760405162461bcd60e51b815260040161048290611fbf565b61045d611b24565b600054610100900460ff16611ab65760405162461bcd60e51b815260040161048290611fbf565b61045d611b54565b611ac6611b87565b6097805460ff191690557f5db9ee0a495bf2e6ff9c91a7834c1ba4fdd244a5e8aa4e537bd38aeae4b073aa3361189e565b600054610100900460ff16611b1e5760405162461bcd60e51b815260040161048290611fbf565b60018055565b600054610100900460ff16611b4b5760405162461bcd60e51b815260040161048290611fbf565b61045d336119df565b600054610100900460ff16611b7b5760405162461bcd60e51b815260040161048290611fbf565b6097805460ff19169055565b60975460ff1661045d5760405162461bcd60e51b815260206004820152601460248201527314185d5cd8589b194e881b9bdd081c185d5cd95960621b6044820152606401610482565b6040518060600160405280600081526020016000815260200160006001600160a01b031681525090565b600060208284031215611c0c57600080fd5b5035919050565b6001600160a01b038116811461148b57600080fd5b60008060408385031215611c3b57600080fd5b8235611c4681611c13565b946020939093013593505050565b60008060408385031215611c6757600080fd5b50508035926020909101359150565b60608082528451828201819052600091906020906080850190828901855b82811015611cd457611cc484835180518252602080820151908301526040908101516001600160a01b0316910152565b9285019290840190600101611c94565b50505090840195909552505060400152919050565b600060208284031215611cfb57600080fd5b8135611d0681611c13565b9392505050565b600080600060608486031215611d2257600080fd5b8335611d2d81611c13565b95602085013595506040909401359392505050565b6020808252601f908201527f5265656e7472616e637947756172643a207265656e7472616e742063616c6c00604082015260600190565b634e487b7160e01b600052603260045260246000fd5b634e487b7160e01b600052601160045260246000fd5b6000600019821415611db957611db9611d8f565b5060010190565b634e487b7160e01b600052600160045260246000fd5b6000816000190483118215151615611df057611df0611d8f565b500290565b600082611e1257634e487b7160e01b600052601260045260246000fd5b500490565b600082821015611e2957611e29611d8f565b500390565b60208082526029908201527f4f66667365742069732067726561746572207468616e206e756d626572206f66604082015268206c697374696e677360b81b606082015260800190565b634e487b7160e01b600052604160045260246000fd5b60008219821115611ea057611ea0611d8f565b500190565b600081611eb457611eb4611d8f565b506000190190565b60006020808385031215611ecf57600080fd5b825167ffffffffffffffff80821115611ee757600080fd5b818501915085601f830112611efb57600080fd5b815181811115611f0d57611f0d611e77565b604051601f8201601f19908116603f01168101908382118183101715611f3557611f35611e77565b816040528281528886848701011115611f4d57600080fd5b600093505b82841015611f6f5784840186015181850187015292850192611f52565b82841115611f805760008684830101525b98975050505050505050565b600060208284031215611f9e57600080fd5b8151611d0681611c13565b634e487b7160e01b600052603160045260246000fd5b6020808252602b908201527f496e697469616c697a61626c653a20636f6e7472616374206973206e6f74206960408201526a6e697469616c697a696e6760a81b60608201526080019056fea2646970667358221220f35d7aab224ed4027b303cbd683819998649fe4cebcccebb85a2caa7f2aeaa3c64736f6c63430008090033",
  "linkReferences": {},
  "deployedLinkReferences": {}
}