{
  "_format": "hh-sol-artifact-1",
  "contractName": "HodlNFT",
  "sourceName": "contracts/HodlNFT.sol",
  "abi": [
    {
      "anonymous": false,
      "inputs": [
        {
          "indexed": true,
          "internalType": "address",
          "name": "owner",
          "type": "address"
        },
        {
          "indexed": true,
          "internalType": "address",
          "name": "approved",
          "type": "address"
        },
        {
          "indexed": true,
          "internalType": "uint256",
          "name": "tokenId",
          "type": "uint256"
        }
      ],
      "name": "Approval",
      "type": "event"
    },
    {
      "anonymous": false,
      "inputs": [
        {
          "indexed": true,
          "internalType": "address",
          "name": "owner",
          "type": "address"
        },
        {
          "indexed": true,
          "internalType": "address",
          "name": "operator",
          "type": "address"
        },
        {
          "indexed": false,
          "internalType": "bool",
          "name": "approved",
          "type": "bool"
        }
      ],
      "name": "ApprovalForAll",
      "type": "event"
    },
    {
      "anonymous": false,
      "inputs": [
        {
          "indexed": true,
          "internalType": "address",
          "name": "previousOwner",
          "type": "address"
        },
        {
          "indexed": true,
          "internalType": "address",
          "name": "newOwner",
          "type": "address"
        }
      ],
      "name": "OwnershipTransferred",
      "type": "event"
    },
    {
      "anonymous": false,
      "inputs": [
        {
          "indexed": false,
          "internalType": "address",
          "name": "account",
          "type": "address"
        }
      ],
      "name": "Paused",
      "type": "event"
    },
    {
      "anonymous": false,
      "inputs": [
        {
          "indexed": false,
          "internalType": "address",
          "name": "fromAddress",
          "type": "address"
        },
        {
          "indexed": false,
          "internalType": "uint256[]",
          "name": "fromTokens",
          "type": "uint256[]"
        },
        {
          "indexed": false,
          "internalType": "address",
          "name": "toAddress",
          "type": "address"
        },
        {
          "indexed": false,
          "internalType": "uint256[]",
          "name": "toTokens",
          "type": "uint256[]"
        },
        {
          "indexed": true,
          "internalType": "uint256",
          "name": "tokenId",
          "type": "uint256"
        }
      ],
      "name": "TokenMappingUpdated",
      "type": "event"
    },
    {
      "anonymous": false,
      "inputs": [
        {
          "indexed": true,
          "internalType": "address",
          "name": "from",
          "type": "address"
        },
        {
          "indexed": true,
          "internalType": "address",
          "name": "to",
          "type": "address"
        },
        {
          "indexed": true,
          "internalType": "uint256",
          "name": "tokenId",
          "type": "uint256"
        }
      ],
      "name": "Transfer",
      "type": "event"
    },
    {
      "anonymous": false,
      "inputs": [
        {
          "indexed": false,
          "internalType": "address",
          "name": "account",
          "type": "address"
        }
      ],
      "name": "Unpaused",
      "type": "event"
    },
    {
      "inputs": [
        {
          "internalType": "address",
          "name": "_address",
          "type": "address"
        },
        {
          "internalType": "uint256",
          "name": "offset",
          "type": "uint256"
        },
        {
          "internalType": "uint256",
          "name": "limit",
          "type": "uint256"
        }
      ],
      "name": "addressToTokenIds",
      "outputs": [
        {
          "internalType": "uint256[]",
          "name": "page",
          "type": "uint256[]"
        },
        {
          "internalType": "uint256",
          "name": "next",
          "type": "uint256"
        },
        {
          "internalType": "uint256",
          "name": "total",
          "type": "uint256"
        }
      ],
      "stateMutability": "view",
      "type": "function"
    },
    {
      "inputs": [
        {
          "internalType": "address",
          "name": "to",
          "type": "address"
        },
        {
          "internalType": "uint256",
          "name": "tokenId",
          "type": "uint256"
        }
      ],
      "name": "approve",
      "outputs": [],
      "stateMutability": "nonpayable",
      "type": "function"
    },
    {
      "inputs": [
        {
          "internalType": "address",
          "name": "owner",
          "type": "address"
        }
      ],
      "name": "balanceOf",
      "outputs": [
        {
          "internalType": "uint256",
          "name": "",
          "type": "uint256"
        }
      ],
      "stateMutability": "view",
      "type": "function"
    },
    {
      "inputs": [
        {
          "internalType": "string",
          "name": "tokenURI",
          "type": "string"
        }
      ],
      "name": "createToken",
      "outputs": [
        {
          "internalType": "uint256",
          "name": "",
          "type": "uint256"
        }
      ],
      "stateMutability": "payable",
      "type": "function"
    },
    {
      "inputs": [
        {
          "internalType": "uint256",
          "name": "tokenId",
          "type": "uint256"
        }
      ],
      "name": "exists",
      "outputs": [
        {
          "internalType": "bool",
          "name": "",
          "type": "bool"
        }
      ],
      "stateMutability": "view",
      "type": "function"
    },
    {
      "inputs": [
        {
          "internalType": "uint256",
          "name": "tokenId",
          "type": "uint256"
        }
      ],
      "name": "getApproved",
      "outputs": [
        {
          "internalType": "address",
          "name": "",
          "type": "address"
        }
      ],
      "stateMutability": "view",
      "type": "function"
    },
    {
      "inputs": [
        {
          "internalType": "address",
          "name": "_address",
          "type": "address"
        }
      ],
      "name": "initialize",
      "outputs": [],
      "stateMutability": "nonpayable",
      "type": "function"
    },
    {
      "inputs": [
        {
          "internalType": "address",
          "name": "owner",
          "type": "address"
        },
        {
          "internalType": "address",
          "name": "operator",
          "type": "address"
        }
      ],
      "name": "isApprovedForAll",
      "outputs": [
        {
          "internalType": "bool",
          "name": "",
          "type": "bool"
        }
      ],
      "stateMutability": "view",
      "type": "function"
    },
    {
      "inputs": [],
      "name": "marketAddress",
      "outputs": [
        {
          "internalType": "address",
          "name": "",
          "type": "address"
        }
      ],
      "stateMutability": "view",
      "type": "function"
    },
    {
      "inputs": [],
      "name": "mintFee",
      "outputs": [
        {
          "internalType": "uint256",
          "name": "",
          "type": "uint256"
        }
      ],
      "stateMutability": "view",
      "type": "function"
    },
    {
      "inputs": [],
      "name": "name",
      "outputs": [
        {
          "internalType": "string",
          "name": "",
          "type": "string"
        }
      ],
      "stateMutability": "view",
      "type": "function"
    },
    {
      "inputs": [],
      "name": "owner",
      "outputs": [
        {
          "internalType": "address",
          "name": "",
          "type": "address"
        }
      ],
      "stateMutability": "view",
      "type": "function"
    },
    {
      "inputs": [
        {
          "internalType": "uint256",
          "name": "tokenId",
          "type": "uint256"
        }
      ],
      "name": "ownerOf",
      "outputs": [
        {
          "internalType": "address",
          "name": "",
          "type": "address"
        }
      ],
      "stateMutability": "view",
      "type": "function"
    },
    {
      "inputs": [],
      "name": "pauseContract",
      "outputs": [],
      "stateMutability": "nonpayable",
      "type": "function"
    },
    {
      "inputs": [],
      "name": "paused",
      "outputs": [
        {
          "internalType": "bool",
          "name": "",
          "type": "bool"
        }
      ],
      "stateMutability": "view",
      "type": "function"
    },
    {
      "inputs": [],
      "name": "renounceOwnership",
      "outputs": [],
      "stateMutability": "nonpayable",
      "type": "function"
    },
    {
      "inputs": [
        {
          "internalType": "address",
          "name": "from",
          "type": "address"
        },
        {
          "internalType": "address",
          "name": "to",
          "type": "address"
        },
        {
          "internalType": "uint256",
          "name": "tokenId",
          "type": "uint256"
        }
      ],
      "name": "safeTransferFrom",
      "outputs": [],
      "stateMutability": "nonpayable",
      "type": "function"
    },
    {
      "inputs": [
        {
          "internalType": "address",
          "name": "from",
          "type": "address"
        },
        {
          "internalType": "address",
          "name": "to",
          "type": "address"
        },
        {
          "internalType": "uint256",
          "name": "tokenId",
          "type": "uint256"
        },
        {
          "internalType": "bytes",
          "name": "_data",
          "type": "bytes"
        }
      ],
      "name": "safeTransferFrom",
      "outputs": [],
      "stateMutability": "nonpayable",
      "type": "function"
    },
    {
      "inputs": [
        {
          "internalType": "address",
          "name": "operator",
          "type": "address"
        },
        {
          "internalType": "bool",
          "name": "approved",
          "type": "bool"
        }
      ],
      "name": "setApprovalForAll",
      "outputs": [],
      "stateMutability": "nonpayable",
      "type": "function"
    },
    {
      "inputs": [
        {
          "internalType": "uint256",
          "name": "_mintFee",
          "type": "uint256"
        }
      ],
      "name": "setMintFee",
      "outputs": [],
      "stateMutability": "nonpayable",
      "type": "function"
    },
    {
      "inputs": [
        {
          "internalType": "bytes4",
          "name": "interfaceId",
          "type": "bytes4"
        }
      ],
      "name": "supportsInterface",
      "outputs": [
        {
          "internalType": "bool",
          "name": "",
          "type": "bool"
        }
      ],
      "stateMutability": "view",
      "type": "function"
    },
    {
      "inputs": [],
      "name": "symbol",
      "outputs": [
        {
          "internalType": "string",
          "name": "",
          "type": "string"
        }
      ],
      "stateMutability": "view",
      "type": "function"
    },
    {
      "inputs": [
        {
          "internalType": "uint256",
          "name": "tokenId",
          "type": "uint256"
        }
      ],
      "name": "tokenURI",
      "outputs": [
        {
          "internalType": "string",
          "name": "",
          "type": "string"
        }
      ],
      "stateMutability": "view",
      "type": "function"
    },
    {
      "inputs": [
        {
          "internalType": "address",
          "name": "from",
          "type": "address"
        },
        {
          "internalType": "address",
          "name": "to",
          "type": "address"
        },
        {
          "internalType": "uint256",
          "name": "tokenId",
          "type": "uint256"
        }
      ],
      "name": "transferFrom",
      "outputs": [],
      "stateMutability": "nonpayable",
      "type": "function"
    },
    {
      "inputs": [
        {
          "internalType": "address",
          "name": "newOwner",
          "type": "address"
        }
      ],
      "name": "transferOwnership",
      "outputs": [],
      "stateMutability": "nonpayable",
      "type": "function"
    },
    {
      "inputs": [],
      "name": "unpauseContract",
      "outputs": [],
      "stateMutability": "nonpayable",
      "type": "function"
    }
  ],
  "bytecode": "0x608060405234801561001057600080fd5b5061268c806100206000396000f3fe6080604052600436106101815760003560e01c806370a08231116100d1578063b33712c51161008a578063c87b56dd11610064578063c87b56dd1461044a578063e985e9c51461046a578063eddd0d9c146104b3578063f2fde38b146104d357600080fd5b8063b33712c5146103f5578063b88d4fde1461040a578063c4d66de81461042a57600080fd5b806370a082311461034c578063715018a61461036c5780638da5cb5b14610381578063956236411461039f57806395d89b41146103c0578063a22cb465146103d557600080fd5b8063356d9eac1161013e57806345576f941161011857806345576f94146102e05780634f558e79146102f35780635c975abb146103135780636352211e1461032c57600080fd5b8063356d9eac1461027c57806342842e0e146102ab578063439766ce146102cb57600080fd5b806301ffc9a71461018657806306fdde03146101bb578063081812fc146101dd578063095ea7b31461021557806313966db51461023757806323b872dd1461025c575b600080fd5b34801561019257600080fd5b506101a66101a1366004611f88565b6104f3565b60405190151581526020015b60405180910390f35b3480156101c757600080fd5b506101d0610545565b6040516101b29190611ffd565b3480156101e957600080fd5b506101fd6101f8366004612010565b6105d7565b6040516001600160a01b0390911681526020016101b2565b34801561022157600080fd5b50610235610230366004612045565b610664565b005b34801561024357600080fd5b5061024e6101625481565b6040519081526020016101b2565b34801561026857600080fd5b5061023561027736600461206f565b61077a565b34801561028857600080fd5b5061029c6102973660046120ab565b6107ab565b6040516101b2939291906120de565b3480156102b757600080fd5b506102356102c636600461206f565b6109f3565b3480156102d757600080fd5b50610235610a0e565b61024e6102ee3660046121b7565b610a42565b3480156102ff57600080fd5b506101a661030e366004612010565b610c51565b34801561031f57600080fd5b5061012d5460ff166101a6565b34801561033857600080fd5b506101fd610347366004612010565b610c5c565b34801561035857600080fd5b5061024e610367366004612200565b610cd3565b34801561037857600080fd5b50610235610d5a565b34801561038d57600080fd5b5060fb546001600160a01b03166101fd565b3480156103ab57600080fd5b50610160546101fd906001600160a01b031681565b3480156103cc57600080fd5b506101d0610d8e565b3480156103e157600080fd5b506102356103f036600461221b565b610d9d565b34801561040157600080fd5b50610235610dac565b34801561041657600080fd5b50610235610425366004612257565b610dde565b34801561043657600080fd5b50610235610445366004612200565b610e16565b34801561045657600080fd5b506101d0610465366004612010565b610f56565b34801561047657600080fd5b506101a66104853660046122d3565b6001600160a01b039182166000908152609c6020908152604080832093909416825291909152205460ff1690565b3480156104bf57600080fd5b506102356104ce366004612010565b6110cd565b3480156104df57600080fd5b506102356104ee366004612200565b6110fd565b60006001600160e01b031982166380ac58cd60e01b148061052457506001600160e01b03198216635b5e139f60e01b145b8061053f57506301ffc9a760e01b6001600160e01b03198316145b92915050565b60606097805461055490612306565b80601f016020809104026020016040519081016040528092919081815260200182805461058090612306565b80156105cd5780601f106105a2576101008083540402835291602001916105cd565b820191906000526020600020905b8154815290600101906020018083116105b057829003601f168201915b5050505050905090565b60006105e282611198565b6106485760405162461bcd60e51b815260206004820152602c60248201527f4552433732313a20617070726f76656420717565727920666f72206e6f6e657860448201526b34b9ba32b73a103a37b5b2b760a11b60648201526084015b60405180910390fd5b506000908152609b60205260409020546001600160a01b031690565b600061066f82610c5c565b9050806001600160a01b0316836001600160a01b031614156106dd5760405162461bcd60e51b815260206004820152602160248201527f4552433732313a20617070726f76616c20746f2063757272656e74206f776e656044820152603960f91b606482015260840161063f565b336001600160a01b03821614806106f957506106f98133610485565b61076b5760405162461bcd60e51b815260206004820152603860248201527f4552433732313a20617070726f76652063616c6c6572206973206e6f74206f7760448201527f6e6572206e6f7220617070726f76656420666f7220616c6c0000000000000000606482015260840161063f565b61077583836111b5565b505050565b6107843382611223565b6107a05760405162461bcd60e51b815260040161063f90612341565b610775838383611309565b6001600160a01b038316600090815261016160205260408120606091908190846108175760405162461bcd60e51b815260206004820152601f60248201527f4c696d6974206d757374206265206120706f736974697665206e756d62657200604482015260640161063f565b6101f485106108685760405162461bcd60e51b815260206004820152601d60248201527f4c696d6974656420746f20353030206974656d73207065722070616765000000604482015260640161063f565b80548611156108c95760405162461bcd60e51b815260206004820152602760248201527f4f66667365742069732067726561746572207468616e206e756d626572206f6660448201526620746f6b656e7360c81b606482015260840161063f565b80546108d69087906123a8565b8511156108ed5780546108ea9087906123a8565b94505b8467ffffffffffffffff8111156109065761090661212b565b60405190808252806020026020018201604052801561092f578160200160208202803683370190505b50815490945060009061094b5750600092508291506109ea9050565b815460009061095c906001906123a8565b90505b868210156109d1578261097289836123a8565b81548110610982576109826123bf565b906000526020600020015486838151811061099f5761099f6123bf565b60209081029190910101526109b56001836123d5565b9150806109c1576109d1565b6109ca816123ed565b905061095f565b50846109dd87896123d5565b9254909550919350909150505b93509350939050565b61077583838360405180602001604052806000815250610dde565b60fb546001600160a01b03163314610a385760405162461bcd60e51b815260040161063f90612404565b610a406114ab565b565b6000610a5161012d5460ff1690565b15610a915760405162461bcd60e51b815260206004820152601060248201526f14185d5cd8589b194e881c185d5cd95960821b604482015260640161063f565b60026001541415610ae45760405162461bcd60e51b815260206004820152601f60248201527f5265656e7472616e637947756172643a207265656e7472616e742063616c6c00604482015260640161063f565b6002600155610162543414610b2f5760405162461bcd60e51b8152602060048201526011602482015270135a5b9d08119959481b9bdd081cd95b9d607a1b604482015260640161063f565b610b3e61015f80546001019055565b6000610b4a61015f5490565b9050610b563382611545565b610b608184611680565b61016054610b78906001600160a01b03166001610d9d565b6000610b8c60fb546001600160a01b031690565b6001600160a01b03163460405160006040518083038185875af1925050503d8060008114610bd6576040519150601f19603f3d011682016040523d82523d6000602084013e610bdb565b606091505b5050905080610c465760405162461bcd60e51b815260206004820152603160248201527f436f756c64206e6f742073656e642074686520636f6e7472616374206f776e656044820152707220746865206d696e74696e672066656560781b606482015260840161063f565b506001805592915050565b600061053f82611198565b6000818152609960205260408120546001600160a01b03168061053f5760405162461bcd60e51b815260206004820152602960248201527f4552433732313a206f776e657220717565727920666f72206e6f6e657869737460448201526832b73a103a37b5b2b760b91b606482015260840161063f565b60006001600160a01b038216610d3e5760405162461bcd60e51b815260206004820152602a60248201527f4552433732313a2062616c616e636520717565727920666f7220746865207a65604482015269726f206164647265737360b01b606482015260840161063f565b506001600160a01b03166000908152609a602052604090205490565b60fb546001600160a01b03163314610d845760405162461bcd60e51b815260040161063f90612404565b610a40600061170b565b60606098805461055490612306565b610da833838361175d565b5050565b60fb546001600160a01b03163314610dd65760405162461bcd60e51b815260040161063f90612404565b610a4061182c565b610de83383611223565b610e045760405162461bcd60e51b815260040161063f90612341565b610e10848484846118a8565b50505050565b600054610100900460ff16610e315760005460ff1615610e35565b303b155b610e985760405162461bcd60e51b815260206004820152602e60248201527f496e697469616c697a61626c653a20636f6e747261637420697320616c72656160448201526d191e481a5b9a5d1a585b1a5e995960921b606482015260840161063f565b600054610100900460ff16158015610eba576000805461ffff19166101011790555b610ec26118db565b610f0860405180604001604052806008815260200167121bd91b0813919560c21b815250604051806040016040528060048152602001631213919560e21b81525061190a565b610f1061193b565b610f1861196a565b61016080546001600160a01b0319166001600160a01b038416179055670de0b6b3a7640000610162558015610da8576000805461ff00191690555050565b6060610f6182611198565b610fc75760405162461bcd60e51b815260206004820152603160248201527f45524337323155524953746f726167653a2055524920717565727920666f72206044820152703737b732bc34b9ba32b73a103a37b5b2b760791b606482015260840161063f565b600082815260c9602052604081208054610fe090612306565b80601f016020809104026020016040519081016040528092919081815260200182805461100c90612306565b80156110595780601f1061102e57610100808354040283529160200191611059565b820191906000526020600020905b81548152906001019060200180831161103c57829003601f168201915b50505050509050600061107760408051602081019091526000815290565b905080516000141561108a575092915050565b8151156110bc5780826040516020016110a4929190612439565b60405160208183030381529060405292505050919050565b6110c584611999565b949350505050565b60fb546001600160a01b031633146110f75760405162461bcd60e51b815260040161063f90612404565b61016255565b60fb546001600160a01b031633146111275760405162461bcd60e51b815260040161063f90612404565b6001600160a01b03811661118c5760405162461bcd60e51b815260206004820152602660248201527f4f776e61626c653a206e6577206f776e657220697320746865207a65726f206160448201526564647265737360d01b606482015260840161063f565b6111958161170b565b50565b6000908152609960205260409020546001600160a01b0316151590565b6000818152609b6020526040902080546001600160a01b0319166001600160a01b03841690811790915581906111ea82610c5c565b6001600160a01b03167f8c5be1e5ebec7d5bd14f71427d1e84f3dd0314c0f7b2291e5b200ac8c7c3b92560405160405180910390a45050565b600061122e82611198565b61128f5760405162461bcd60e51b815260206004820152602c60248201527f4552433732313a206f70657261746f7220717565727920666f72206e6f6e657860448201526b34b9ba32b73a103a37b5b2b760a11b606482015260840161063f565b600061129a83610c5c565b9050806001600160a01b0316846001600160a01b031614806112d55750836001600160a01b03166112ca846105d7565b6001600160a01b0316145b806110c557506001600160a01b038082166000908152609c602090815260408083209388168352929052205460ff166110c5565b826001600160a01b031661131c82610c5c565b6001600160a01b0316146113805760405162461bcd60e51b815260206004820152602560248201527f4552433732313a207472616e736665722066726f6d20696e636f72726563742060448201526437bbb732b960d91b606482015260840161063f565b6001600160a01b0382166113e25760405162461bcd60e51b8152602060048201526024808201527f4552433732313a207472616e7366657220746f20746865207a65726f206164646044820152637265737360e01b606482015260840161063f565b6113ed6000826111b5565b6001600160a01b0383166000908152609a602052604081208054600192906114169084906123a8565b90915550506001600160a01b0382166000908152609a602052604081208054600192906114449084906123d5565b909155505060008181526099602052604080822080546001600160a01b0319166001600160a01b0386811691821790925591518493918716917fddf252ad1be2c89b69c2b068fc378daa952ba7f163c4a11628f55a4df523b3ef91a4610775838383611a71565b61012d5460ff16156114f25760405162461bcd60e51b815260206004820152601060248201526f14185d5cd8589b194e881c185d5cd95960821b604482015260640161063f565b61012d805460ff191660011790557f62e78cea01bee320cd4e420270b5ea74000d11b0c9f74754ebdbfc544b05a2586115283390565b6040516001600160a01b03909116815260200160405180910390a1565b6001600160a01b03821661159b5760405162461bcd60e51b815260206004820181905260248201527f4552433732313a206d696e7420746f20746865207a65726f2061646472657373604482015260640161063f565b6115a481611198565b156115f15760405162461bcd60e51b815260206004820152601c60248201527f4552433732313a20746f6b656e20616c7265616479206d696e74656400000000604482015260640161063f565b6001600160a01b0382166000908152609a6020526040812080546001929061161a9084906123d5565b909155505060008181526099602052604080822080546001600160a01b0319166001600160a01b03861690811790915590518392907fddf252ad1be2c89b69c2b068fc378daa952ba7f163c4a11628f55a4df523b3ef908290a4610da860008383611a71565b61168982611198565b6116ec5760405162461bcd60e51b815260206004820152602e60248201527f45524337323155524953746f726167653a2055524920736574206f66206e6f6e60448201526d32bc34b9ba32b73a103a37b5b2b760911b606482015260840161063f565b600082815260c960209081526040909120825161077592840190611ed9565b60fb80546001600160a01b038381166001600160a01b0319831681179093556040519116919082907f8be0079c531659141344cd1fd0a4f28419497f9722a3daafe3b4186f6b6457e090600090a35050565b816001600160a01b0316836001600160a01b031614156117bf5760405162461bcd60e51b815260206004820152601960248201527f4552433732313a20617070726f766520746f2063616c6c657200000000000000604482015260640161063f565b6001600160a01b038381166000818152609c6020908152604080832094871680845294825291829020805460ff191686151590811790915591519182527f17307eab39ab6107e8899845ad3d59bd9653f200f220920489ca2b5937696c31910160405180910390a3505050565b61012d5460ff166118765760405162461bcd60e51b815260206004820152601460248201527314185d5cd8589b194e881b9bdd081c185d5cd95960621b604482015260640161063f565b61012d805460ff191690557f5db9ee0a495bf2e6ff9c91a7834c1ba4fdd244a5e8aa4e537bd38aeae4b073aa33611528565b6118b3848484611309565b6118bf84848484611bef565b610e105760405162461bcd60e51b815260040161063f90612468565b600054610100900460ff166119025760405162461bcd60e51b815260040161063f906124ba565b610a40611cfc565b600054610100900460ff166119315760405162461bcd60e51b815260040161063f906124ba565b610da88282611d29565b600054610100900460ff166119625760405162461bcd60e51b815260040161063f906124ba565b610a40611d77565b600054610100900460ff166119915760405162461bcd60e51b815260040161063f906124ba565b610a40611da7565b60606119a482611198565b611a085760405162461bcd60e51b815260206004820152602f60248201527f4552433732314d657461646174613a2055524920717565727920666f72206e6f60448201526e3732bc34b9ba32b73a103a37b5b2b760891b606482015260840161063f565b6000611a1f60408051602081019091526000815290565b90506000815111611a3f5760405180602001604052806000815250611a6a565b80611a4984611ddb565b604051602001611a5a929190612439565b6040516020818303038152906040525b9392505050565b6001600160a01b038316600090815261016160205260408120905b8154811015611b6d5782828281548110611aa857611aa86123bf565b90600052602060002001541415611b5b5781548290611ac9906001906123a8565b81548110611ad957611ad96123bf565b9060005260206000200154828281548110611af657611af66123bf565b60009182526020909120015581548290611b12906001906123a8565b81548110611b2257611b226123bf565b906000526020600020016000905581805480611b4057611b40612505565b60019003818190600052602060002001600090559055611b6d565b80611b658161251b565b915050611a8c565b506001600160a01b038084166000818152610161602090815260408083208054600181018255818552928420909201879055938816825283822092909152915184917fc25b6c75caa1e08ecf1bde1ed32857f71216fb992ddd4481c8d9119bb51750c391611be091899189908790612576565b60405180910390a25050505050565b60006001600160a01b0384163b15611cf157604051630a85bd0160e11b81526001600160a01b0385169063150b7a0290611c339033908990889088906004016125be565b602060405180830381600087803b158015611c4d57600080fd5b505af1925050508015611c7d575060408051601f3d908101601f19168201909252611c7a918101906125fb565b60015b611cd7573d808015611cab576040519150601f19603f3d011682016040523d82523d6000602084013e611cb0565b606091505b508051611ccf5760405162461bcd60e51b815260040161063f90612468565b805181602001fd5b6001600160e01b031916630a85bd0160e11b1490506110c5565b506001949350505050565b600054610100900460ff16611d235760405162461bcd60e51b815260040161063f906124ba565b60018055565b600054610100900460ff16611d505760405162461bcd60e51b815260040161063f906124ba565b8151611d63906097906020850190611ed9565b508051610775906098906020840190611ed9565b600054610100900460ff16611d9e5760405162461bcd60e51b815260040161063f906124ba565b610a403361170b565b600054610100900460ff16611dce5760405162461bcd60e51b815260040161063f906124ba565b61012d805460ff19169055565b606081611dff5750506040805180820190915260018152600360fc1b602082015290565b8160005b8115611e295780611e138161251b565b9150611e229050600a8361262e565b9150611e03565b60008167ffffffffffffffff811115611e4457611e4461212b565b6040519080825280601f01601f191660200182016040528015611e6e576020820181803683370190505b5090505b84156110c557611e836001836123a8565b9150611e90600a86612642565b611e9b9060306123d5565b60f81b818381518110611eb057611eb06123bf565b60200101906001600160f81b031916908160001a905350611ed2600a8661262e565b9450611e72565b828054611ee590612306565b90600052602060002090601f016020900481019282611f075760008555611f4d565b82601f10611f2057805160ff1916838001178555611f4d565b82800160010185558215611f4d579182015b82811115611f4d578251825591602001919060010190611f32565b50611f59929150611f5d565b5090565b5b80821115611f595760008155600101611f5e565b6001600160e01b03198116811461119557600080fd5b600060208284031215611f9a57600080fd5b8135611a6a81611f72565b60005b83811015611fc0578181015183820152602001611fa8565b83811115610e105750506000910152565b60008151808452611fe9816020860160208601611fa5565b601f01601f19169290920160200192915050565b602081526000611a6a6020830184611fd1565b60006020828403121561202257600080fd5b5035919050565b80356001600160a01b038116811461204057600080fd5b919050565b6000806040838503121561205857600080fd5b61206183612029565b946020939093013593505050565b60008060006060848603121561208457600080fd5b61208d84612029565b925061209b60208501612029565b9150604084013590509250925092565b6000806000606084860312156120c057600080fd5b6120c984612029565b95602085013595506040909401359392505050565b606080825284519082018190526000906020906080840190828801845b82811015612117578151845292840192908401906001016120fb565b505050908301949094525060400152919050565b634e487b7160e01b600052604160045260246000fd5b600067ffffffffffffffff8084111561215c5761215c61212b565b604051601f8501601f19908116603f011681019082821181831017156121845761218461212b565b8160405280935085815286868601111561219d57600080fd5b858560208301376000602087830101525050509392505050565b6000602082840312156121c957600080fd5b813567ffffffffffffffff8111156121e057600080fd5b8201601f810184136121f157600080fd5b6110c584823560208401612141565b60006020828403121561221257600080fd5b611a6a82612029565b6000806040838503121561222e57600080fd5b61223783612029565b91506020830135801515811461224c57600080fd5b809150509250929050565b6000806000806080858703121561226d57600080fd5b61227685612029565b935061228460208601612029565b925060408501359150606085013567ffffffffffffffff8111156122a757600080fd5b8501601f810187136122b857600080fd5b6122c787823560208401612141565b91505092959194509250565b600080604083850312156122e657600080fd5b6122ef83612029565b91506122fd60208401612029565b90509250929050565b600181811c9082168061231a57607f821691505b6020821081141561233b57634e487b7160e01b600052602260045260246000fd5b50919050565b60208082526031908201527f4552433732313a207472616e736665722063616c6c6572206973206e6f74206f6040820152701ddb995c881b9bdc88185c1c1c9bdd9959607a1b606082015260800190565b634e487b7160e01b600052601160045260246000fd5b6000828210156123ba576123ba612392565b500390565b634e487b7160e01b600052603260045260246000fd5b600082198211156123e8576123e8612392565b500190565b6000816123fc576123fc612392565b506000190190565b6020808252818101527f4f776e61626c653a2063616c6c6572206973206e6f7420746865206f776e6572604082015260600190565b6000835161244b818460208801611fa5565b83519083019061245f818360208801611fa5565b01949350505050565b60208082526032908201527f4552433732313a207472616e7366657220746f206e6f6e20455243373231526560408201527131b2b4bb32b91034b6b83632b6b2b73a32b960711b606082015260800190565b6020808252602b908201527f496e697469616c697a61626c653a20636f6e7472616374206973206e6f74206960408201526a6e697469616c697a696e6760a81b606082015260800190565b634e487b7160e01b600052603160045260246000fd5b600060001982141561252f5761252f612392565b5060010190565b6000815480845260208085019450836000528060002060005b8381101561256b5781548752958201956001918201910161254f565b509495945050505050565b600060018060a01b038087168352608060208401526125986080840187612536565b818616604085015283810360608501526125b28186612536565b98975050505050505050565b6001600160a01b03858116825284166020820152604081018390526080606082018190526000906125f190830184611fd1565b9695505050505050565b60006020828403121561260d57600080fd5b8151611a6a81611f72565b634e487b7160e01b600052601260045260246000fd5b60008261263d5761263d612618565b500490565b60008261265157612651612618565b50069056fea26469706673582212207cadc11647183096c8104d9492c7c30fe95bd9d9d02694cb895558c47edccfa864736f6c63430008090033",
  "linkReferences": {},
  "deployedLinkReferences": {}
}