{
  "_format": "hh-sol-artifact-1",
  "contractName": "HodlNFT",
  "sourceName": "contracts/HodlNFT.sol",
  "abi": [
    {
      "anonymous": false,
      "inputs": [
        {
          "indexed": true,
          "internalType": "address",
          "name": "owner",
          "type": "address"
        },
        {
          "indexed": true,
          "internalType": "address",
          "name": "approved",
          "type": "address"
        },
        {
          "indexed": true,
          "internalType": "uint256",
          "name": "tokenId",
          "type": "uint256"
        }
      ],
      "name": "Approval",
      "type": "event"
    },
    {
      "anonymous": false,
      "inputs": [
        {
          "indexed": true,
          "internalType": "address",
          "name": "owner",
          "type": "address"
        },
        {
          "indexed": true,
          "internalType": "address",
          "name": "operator",
          "type": "address"
        },
        {
          "indexed": false,
          "internalType": "bool",
          "name": "approved",
          "type": "bool"
        }
      ],
      "name": "ApprovalForAll",
      "type": "event"
    },
    {
      "anonymous": false,
      "inputs": [
        {
          "indexed": false,
          "internalType": "uint8",
          "name": "version",
          "type": "uint8"
        }
      ],
      "name": "Initialized",
      "type": "event"
    },
    {
      "anonymous": false,
      "inputs": [
        {
          "indexed": true,
          "internalType": "address",
          "name": "previousOwner",
          "type": "address"
        },
        {
          "indexed": true,
          "internalType": "address",
          "name": "newOwner",
          "type": "address"
        }
      ],
      "name": "OwnershipTransferred",
      "type": "event"
    },
    {
      "anonymous": false,
      "inputs": [
        {
          "indexed": false,
          "internalType": "address",
          "name": "account",
          "type": "address"
        }
      ],
      "name": "Paused",
      "type": "event"
    },
    {
      "anonymous": false,
      "inputs": [
        {
          "indexed": false,
          "internalType": "address",
          "name": "fromAddress",
          "type": "address"
        },
        {
          "indexed": false,
          "internalType": "uint256[]",
          "name": "fromTokens",
          "type": "uint256[]"
        },
        {
          "indexed": false,
          "internalType": "address",
          "name": "toAddress",
          "type": "address"
        },
        {
          "indexed": false,
          "internalType": "uint256[]",
          "name": "toTokens",
          "type": "uint256[]"
        },
        {
          "indexed": true,
          "internalType": "uint256",
          "name": "tokenId",
          "type": "uint256"
        }
      ],
      "name": "TokenMappingUpdated",
      "type": "event"
    },
    {
      "anonymous": false,
      "inputs": [
        {
          "indexed": true,
          "internalType": "address",
          "name": "from",
          "type": "address"
        },
        {
          "indexed": true,
          "internalType": "address",
          "name": "to",
          "type": "address"
        },
        {
          "indexed": true,
          "internalType": "uint256",
          "name": "tokenId",
          "type": "uint256"
        }
      ],
      "name": "Transfer",
      "type": "event"
    },
    {
      "anonymous": false,
      "inputs": [
        {
          "indexed": false,
          "internalType": "address",
          "name": "account",
          "type": "address"
        }
      ],
      "name": "Unpaused",
      "type": "event"
    },
    {
      "inputs": [
        {
          "internalType": "address",
          "name": "_address",
          "type": "address"
        },
        {
          "internalType": "uint256",
          "name": "offset",
          "type": "uint256"
        },
        {
          "internalType": "uint256",
          "name": "limit",
          "type": "uint256"
        }
      ],
      "name": "addressToTokenIds",
      "outputs": [
        {
          "internalType": "uint256[]",
          "name": "page",
          "type": "uint256[]"
        },
        {
          "internalType": "uint256",
          "name": "next",
          "type": "uint256"
        },
        {
          "internalType": "uint256",
          "name": "total",
          "type": "uint256"
        }
      ],
      "stateMutability": "view",
      "type": "function"
    },
    {
      "inputs": [
        {
          "internalType": "address",
          "name": "to",
          "type": "address"
        },
        {
          "internalType": "uint256",
          "name": "tokenId",
          "type": "uint256"
        }
      ],
      "name": "approve",
      "outputs": [],
      "stateMutability": "nonpayable",
      "type": "function"
    },
    {
      "inputs": [
        {
          "internalType": "address",
          "name": "owner",
          "type": "address"
        }
      ],
      "name": "balanceOf",
      "outputs": [
        {
          "internalType": "uint256",
          "name": "",
          "type": "uint256"
        }
      ],
      "stateMutability": "view",
      "type": "function"
    },
    {
      "inputs": [
        {
          "internalType": "string",
          "name": "_tokenURI",
          "type": "string"
        },
        {
          "internalType": "uint96",
          "name": "_royaltyFeeInBasisPoints",
          "type": "uint96"
        }
      ],
      "name": "createToken",
      "outputs": [
        {
          "internalType": "uint256",
          "name": "",
          "type": "uint256"
        }
      ],
      "stateMutability": "payable",
      "type": "function"
    },
    {
      "inputs": [
        {
          "internalType": "uint256",
          "name": "tokenId",
          "type": "uint256"
        }
      ],
      "name": "exists",
      "outputs": [
        {
          "internalType": "bool",
          "name": "",
          "type": "bool"
        }
      ],
      "stateMutability": "view",
      "type": "function"
    },
    {
      "inputs": [
        {
          "internalType": "uint256",
          "name": "tokenId",
          "type": "uint256"
        }
      ],
      "name": "getApproved",
      "outputs": [
        {
          "internalType": "address",
          "name": "",
          "type": "address"
        }
      ],
      "stateMutability": "view",
      "type": "function"
    },
    {
      "inputs": [
        {
          "internalType": "address",
          "name": "_address",
          "type": "address"
        }
      ],
      "name": "initialize",
      "outputs": [],
      "stateMutability": "nonpayable",
      "type": "function"
    },
    {
      "inputs": [],
      "name": "initializeV2",
      "outputs": [],
      "stateMutability": "nonpayable",
      "type": "function"
    },
    {
      "inputs": [
        {
          "internalType": "address",
          "name": "_forwarder",
          "type": "address"
        }
      ],
      "name": "initializeV3",
      "outputs": [],
      "stateMutability": "nonpayable",
      "type": "function"
    },
    {
      "inputs": [
        {
          "internalType": "address",
          "name": "owner",
          "type": "address"
        },
        {
          "internalType": "address",
          "name": "operator",
          "type": "address"
        }
      ],
      "name": "isApprovedForAll",
      "outputs": [
        {
          "internalType": "bool",
          "name": "",
          "type": "bool"
        }
      ],
      "stateMutability": "view",
      "type": "function"
    },
    {
      "inputs": [
        {
          "internalType": "address",
          "name": "forwarder",
          "type": "address"
        }
      ],
      "name": "isTrustedForwarder",
      "outputs": [
        {
          "internalType": "bool",
          "name": "",
          "type": "bool"
        }
      ],
      "stateMutability": "view",
      "type": "function"
    },
    {
      "inputs": [],
      "name": "marketAddress",
      "outputs": [
        {
          "internalType": "address",
          "name": "",
          "type": "address"
        }
      ],
      "stateMutability": "view",
      "type": "function"
    },
    {
      "inputs": [],
      "name": "maxRoyaltyFee",
      "outputs": [
        {
          "internalType": "uint96",
          "name": "",
          "type": "uint96"
        }
      ],
      "stateMutability": "view",
      "type": "function"
    },
    {
      "inputs": [],
      "name": "mintFee",
      "outputs": [
        {
          "internalType": "uint256",
          "name": "",
          "type": "uint256"
        }
      ],
      "stateMutability": "view",
      "type": "function"
    },
    {
      "inputs": [],
      "name": "name",
      "outputs": [
        {
          "internalType": "string",
          "name": "",
          "type": "string"
        }
      ],
      "stateMutability": "view",
      "type": "function"
    },
    {
      "inputs": [],
      "name": "owner",
      "outputs": [
        {
          "internalType": "address",
          "name": "",
          "type": "address"
        }
      ],
      "stateMutability": "view",
      "type": "function"
    },
    {
      "inputs": [
        {
          "internalType": "uint256",
          "name": "tokenId",
          "type": "uint256"
        }
      ],
      "name": "ownerOf",
      "outputs": [
        {
          "internalType": "address",
          "name": "",
          "type": "address"
        }
      ],
      "stateMutability": "view",
      "type": "function"
    },
    {
      "inputs": [],
      "name": "pauseContract",
      "outputs": [],
      "stateMutability": "nonpayable",
      "type": "function"
    },
    {
      "inputs": [],
      "name": "paused",
      "outputs": [
        {
          "internalType": "bool",
          "name": "",
          "type": "bool"
        }
      ],
      "stateMutability": "view",
      "type": "function"
    },
    {
      "inputs": [],
      "name": "renounceOwnership",
      "outputs": [],
      "stateMutability": "nonpayable",
      "type": "function"
    },
    {
      "inputs": [
        {
          "internalType": "uint256",
          "name": "_tokenId",
          "type": "uint256"
        },
        {
          "internalType": "uint256",
          "name": "_salePrice",
          "type": "uint256"
        }
      ],
      "name": "royaltyInfo",
      "outputs": [
        {
          "internalType": "address",
          "name": "",
          "type": "address"
        },
        {
          "internalType": "uint256",
          "name": "",
          "type": "uint256"
        }
      ],
      "stateMutability": "view",
      "type": "function"
    },
    {
      "inputs": [
        {
          "internalType": "address",
          "name": "from",
          "type": "address"
        },
        {
          "internalType": "address",
          "name": "to",
          "type": "address"
        },
        {
          "internalType": "uint256",
          "name": "tokenId",
          "type": "uint256"
        }
      ],
      "name": "safeTransferFrom",
      "outputs": [],
      "stateMutability": "nonpayable",
      "type": "function"
    },
    {
      "inputs": [
        {
          "internalType": "address",
          "name": "from",
          "type": "address"
        },
        {
          "internalType": "address",
          "name": "to",
          "type": "address"
        },
        {
          "internalType": "uint256",
          "name": "tokenId",
          "type": "uint256"
        },
        {
          "internalType": "bytes",
          "name": "data",
          "type": "bytes"
        }
      ],
      "name": "safeTransferFrom",
      "outputs": [],
      "stateMutability": "nonpayable",
      "type": "function"
    },
    {
      "inputs": [
        {
          "internalType": "address",
          "name": "operator",
          "type": "address"
        },
        {
          "internalType": "bool",
          "name": "approved",
          "type": "bool"
        }
      ],
      "name": "setApprovalForAll",
      "outputs": [],
      "stateMutability": "nonpayable",
      "type": "function"
    },
    {
      "inputs": [
        {
          "internalType": "uint96",
          "name": "_maxRoyaltyFee",
          "type": "uint96"
        }
      ],
      "name": "setMaxRoyaltyFee",
      "outputs": [],
      "stateMutability": "nonpayable",
      "type": "function"
    },
    {
      "inputs": [
        {
          "internalType": "uint256",
          "name": "_mintFee",
          "type": "uint256"
        }
      ],
      "name": "setMintFee",
      "outputs": [],
      "stateMutability": "nonpayable",
      "type": "function"
    },
    {
      "inputs": [
        {
          "internalType": "address",
          "name": "_forwarder",
          "type": "address"
        }
      ],
      "name": "setTrustedForwarder",
      "outputs": [],
      "stateMutability": "nonpayable",
      "type": "function"
    },
    {
      "inputs": [
        {
          "internalType": "bytes4",
          "name": "interfaceId",
          "type": "bytes4"
        }
      ],
      "name": "supportsInterface",
      "outputs": [
        {
          "internalType": "bool",
          "name": "",
          "type": "bool"
        }
      ],
      "stateMutability": "view",
      "type": "function"
    },
    {
      "inputs": [],
      "name": "symbol",
      "outputs": [
        {
          "internalType": "string",
          "name": "",
          "type": "string"
        }
      ],
      "stateMutability": "view",
      "type": "function"
    },
    {
      "inputs": [
        {
          "internalType": "uint256",
          "name": "tokenId",
          "type": "uint256"
        }
      ],
      "name": "tokenURI",
      "outputs": [
        {
          "internalType": "string",
          "name": "",
          "type": "string"
        }
      ],
      "stateMutability": "view",
      "type": "function"
    },
    {
      "inputs": [
        {
          "internalType": "address",
          "name": "from",
          "type": "address"
        },
        {
          "internalType": "address",
          "name": "to",
          "type": "address"
        },
        {
          "internalType": "uint256",
          "name": "tokenId",
          "type": "uint256"
        }
      ],
      "name": "transferFrom",
      "outputs": [],
      "stateMutability": "nonpayable",
      "type": "function"
    },
    {
      "inputs": [
        {
          "internalType": "address",
          "name": "newOwner",
          "type": "address"
        }
      ],
      "name": "transferOwnership",
      "outputs": [],
      "stateMutability": "nonpayable",
      "type": "function"
    },
    {
      "inputs": [],
      "name": "unpauseContract",
      "outputs": [],
      "stateMutability": "nonpayable",
      "type": "function"
    }
  ],
  "bytecode": "0x608060405234801561001057600080fd5b50612bb0806100206000396000f3fe6080604052600436106101ee5760003560e01c80636352211e1161010d578063b33712c5116100a0578063da7422281161006f578063da742228146105bb578063e67605d7146105db578063e985e9c5146105fb578063eddd0d9c14610644578063f2fde38b1461066457600080fd5b8063b33712c514610546578063b88d4fde1461055b578063c4d66de81461057b578063c87b56dd1461059b57600080fd5b80638da5cb5b116100dc5780638da5cb5b146104d257806395623641146104f057806395d89b4114610511578063a22cb4651461052657600080fd5b80636352211e1461044457806370a0823114610464578063715018a6146104845780638cdd9c8f1461049957600080fd5b80633101cfcb116101855780634f558e79116101545780634f558e79146103bf578063572b6c05146103df5780635c975abb146104165780635cd8a76b1461042f57600080fd5b80633101cfcb1461033b578063356d9eac1461035b57806342842e0e1461038a578063439766ce146103aa57600080fd5b806313966db5116101c157806313966db5146102a457806323b872dd146102c95780632a077411146102e95780632a55205a146102fc57600080fd5b806301ffc9a7146101f357806306fdde0314610228578063081812fc1461024a578063095ea7b314610282575b600080fd5b3480156101ff57600080fd5b5061021361020e366004612413565b610684565b60405190151581526020015b60405180910390f35b34801561023457600080fd5b5061023d6106af565b60405161021f9190612488565b34801561025657600080fd5b5061026a61026536600461249b565b610741565b6040516001600160a01b03909116815260200161021f565b34801561028e57600080fd5b506102a261029d3660046124d0565b610768565b005b3480156102b057600080fd5b506102bb6101625481565b60405190815260200161021f565b3480156102d557600080fd5b506102a26102e43660046124fa565b610895565b6102bb6102f73660046125d9565b6108cd565b34801561030857600080fd5b5061031c61031736600461263b565b610b1f565b604080516001600160a01b03909316835260208301919091520161021f565b34801561034757600080fd5b506102a261035636600461265d565b610bcd565b34801561036757600080fd5b5061037b610376366004612678565b610c81565b60405161021f939291906126ab565b34801561039657600080fd5b506102a26103a53660046124fa565b610ec9565b3480156103b657600080fd5b506102a2610ee4565b3480156103cb57600080fd5b506102136103da36600461249b565b610ef6565b3480156103eb57600080fd5b506102136103fa36600461265d565b61016554600160601b90046001600160a01b0390811691161490565b34801561042257600080fd5b5061012d5460ff16610213565b34801561043b57600080fd5b506102a2610f15565b34801561045057600080fd5b5061026a61045f36600461249b565b610fbf565b34801561047057600080fd5b506102bb61047f36600461265d565b61101f565b34801561049057600080fd5b506102a26110a5565b3480156104a557600080fd5b50610165546104ba906001600160601b031681565b6040516001600160601b03909116815260200161021f565b3480156104de57600080fd5b5060fb546001600160a01b031661026a565b3480156104fc57600080fd5b506101605461026a906001600160a01b031681565b34801561051d57600080fd5b5061023d6110b7565b34801561053257600080fd5b506102a26105413660046126f8565b6110c6565b34801561055257600080fd5b506102a26110dc565b34801561056757600080fd5b506102a2610576366004612734565b6110ec565b34801561058757600080fd5b506102a261059636600461265d565b61112b565b3480156105a757600080fd5b5061023d6105b636600461249b565b61126d565b3480156105c757600080fd5b506102a26105d636600461265d565b61137e565b3480156105e757600080fd5b506102a26105f63660046127b0565b6113af565b34801561060757600080fd5b506102136106163660046127cb565b6001600160a01b039182166000908152609c6020908152604080832093909416825291909152205460ff1690565b34801561065057600080fd5b506102a261065f36600461249b565b6113df565b34801561067057600080fd5b506102a261067f36600461265d565b6113ed565b60006001600160e01b0319821663152a902d60e11b14806106a957506106a982611466565b92915050565b6060609780546106be906127f5565b80601f01602080910402602001604051908101604052809291908181526020018280546106ea906127f5565b80156107375780601f1061070c57610100808354040283529160200191610737565b820191906000526020600020905b81548152906001019060200180831161071a57829003601f168201915b5050505050905090565b600061074c826114b6565b506000908152609b60205260409020546001600160a01b031690565b600061077382610fbf565b9050806001600160a01b0316836001600160a01b031614156107e65760405162461bcd60e51b815260206004820152602160248201527f4552433732313a20617070726f76616c20746f2063757272656e74206f776e656044820152603960f91b60648201526084015b60405180910390fd5b806001600160a01b03166107f8611515565b6001600160a01b03161480610814575061081481610616611515565b6108865760405162461bcd60e51b815260206004820152603e60248201527f4552433732313a20617070726f76652063616c6c6572206973206e6f7420746f60448201527f6b656e206f776e6572206e6f7220617070726f76656420666f7220616c6c000060648201526084016107dd565b6108908383611545565b505050565b6108a66108a0611515565b826115b3565b6108c25760405162461bcd60e51b81526004016107dd90612830565b610890838383611631565b60006108d76117d3565b6002600154141561092a5760405162461bcd60e51b815260206004820152601f60248201527f5265656e7472616e637947756172643a207265656e7472616e742063616c6c0060448201526064016107dd565b60026001556101625434146109755760405162461bcd60e51b8152602060048201526011602482015270135a5b9d08119959481b9bdd081cd95b9d607a1b60448201526064016107dd565b610165546001600160601b0390811690831611156109e45760405162461bcd60e51b815260206004820152602660248201527f43616e6e6f7420736574206120726f79616c7479206665652061626f766520746044820152650d0ca40dac2f60d31b60648201526084016107dd565b6109f361015f80546001019055565b60006109ff61015f5490565b90506000610a0b611515565b9050610a17818361181a565b610a218286611964565b610a2c8282866119fe565b61016054610a44906001600160a01b031660016110c6565b6000610a5860fb546001600160a01b031690565b6001600160a01b03163460405160006040518083038185875af1925050503d8060008114610aa2576040519150601f19603f3d011682016040523d82523d6000602084013e610aa7565b606091505b5050905080610b125760405162461bcd60e51b815260206004820152603160248201527f436f756c64206e6f742073656e642074686520636f6e7472616374206f776e656044820152707220746865206d696e74696e672066656560781b60648201526084016107dd565b5050600180559392505050565b6000828152610164602090815260408083208151808301909252546001600160a01b038116808352600160a01b9091046001600160601b0316928201929092528291610b96575060408051808201909152610163546001600160a01b0381168252600160a01b90046001600160601b031660208201525b602081015160009061271090610bb5906001600160601b031687612894565b610bbf91906128c9565b915196919550909350505050565b600054600390610100900460ff16158015610bef575060005460ff8083169116105b610c0b5760405162461bcd60e51b81526004016107dd906128dd565b6000805461016580546001600160601b0316600160601b6001600160a01b0387160217905561ff001961010060ff851661ffff19909316831717169091556040519081527f7f26b83ff96e1f2b6a682f133852f6798a09c465da95921460cefb3847402498906020015b60405180910390a15050565b6001600160a01b03831660009081526101616020526040812060609190819084610ced5760405162461bcd60e51b815260206004820152601f60248201527f4c696d6974206d757374206265206120706f736974697665206e756d6265720060448201526064016107dd565b6101f48510610d3e5760405162461bcd60e51b815260206004820152601d60248201527f4c696d6974656420746f20353030206974656d7320706572207061676500000060448201526064016107dd565b8054861115610d9f5760405162461bcd60e51b815260206004820152602760248201527f4f66667365742069732067726561746572207468616e206e756d626572206f6660448201526620746f6b656e7360c81b60648201526084016107dd565b8054610dac90879061292b565b851115610dc3578054610dc090879061292b565b94505b8467ffffffffffffffff811115610ddc57610ddc612536565b604051908082528060200260200182016040528015610e05578160200160208202803683370190505b508154909450600090610e21575060009250829150610ec09050565b8154600090610e329060019061292b565b90505b86821015610ea75782610e48898361292b565b81548110610e5857610e58612942565b9060005260206000200154868381518110610e7557610e75612942565b6020908102919091010152610e8b600183612958565b915080610e9757610ea7565b610ea081612970565b9050610e35565b5084610eb38789612958565b9254909550919350909150505b93509350939050565b610890838383604051806020016040528060008152506110ec565b610eec611b0d565b610ef4611b86565b565b6000818152609960205260408120546001600160a01b031615156106a9565b600054600290610100900460ff16158015610f37575060005460ff8083169116105b610f535760405162461bcd60e51b81526004016107dd906128dd565b6000805461016580546bffffffffffffffffffffffff19166105dc17905561ffff191660ff83169081176101001761ff0019169091556040519081527f7f26b83ff96e1f2b6a682f133852f6798a09c465da95921460cefb38474024989060200160405180910390a150565b6000818152609960205260408120546001600160a01b0316806106a95760405162461bcd60e51b8152602060048201526018602482015277115490cdcc8c4e881a5b9d985b1a59081d1bdad95b88125160421b60448201526064016107dd565b60006001600160a01b0382166110895760405162461bcd60e51b815260206004820152602960248201527f4552433732313a2061646472657373207a65726f206973206e6f7420612076616044820152683634b21037bbb732b960b91b60648201526084016107dd565b506001600160a01b03166000908152609a602052604090205490565b6110ad611b0d565b610ef46000611be2565b6060609880546106be906127f5565b6110d86110d1611515565b8383611c34565b5050565b6110e4611b0d565b610ef4611d03565b6110fd6110f7611515565b836115b3565b6111195760405162461bcd60e51b81526004016107dd90612830565b61112584848484611d3f565b50505050565b600054610100900460ff161580801561114b5750600054600160ff909116105b806111655750303b158015611165575060005460ff166001145b6111815760405162461bcd60e51b81526004016107dd906128dd565b6000805460ff1916600117905580156111a4576000805461ff0019166101001790555b6111ac611d72565b6111f260405180604001604052806008815260200167121bd91b0813919560c21b815250604051806040016040528060048152602001631213919560e21b815250611da1565b6111fa611dd2565b611202611e01565b61016080546001600160a01b0319166001600160a01b038416179055670de0b6b3a76400006101625580156110d8576000805461ff0019169055604051600181527f7f26b83ff96e1f2b6a682f133852f6798a09c465da95921460cefb384740249890602001610c75565b6060611278826114b6565b600082815260c9602052604081208054611291906127f5565b80601f01602080910402602001604051908101604052809291908181526020018280546112bd906127f5565b801561130a5780601f106112df5761010080835404028352916020019161130a565b820191906000526020600020905b8154815290600101906020018083116112ed57829003601f168201915b50505050509050600061132860408051602081019091526000815290565b905080516000141561133b575092915050565b81511561136d578082604051602001611355929190612987565b60405160208183030381529060405292505050919050565b61137684611e30565b949350505050565b611386611b0d565b61016580546001600160a01b03909216600160601b026001600160601b03909216919091179055565b6113b7611b0d565b61016580546bffffffffffffffffffffffff19166001600160601b0392909216919091179055565b6113e7611b0d565b61016255565b6113f5611b0d565b6001600160a01b03811661145a5760405162461bcd60e51b815260206004820152602660248201527f4f776e61626c653a206e6577206f776e657220697320746865207a65726f206160448201526564647265737360d01b60648201526084016107dd565b61146381611be2565b50565b60006001600160e01b031982166380ac58cd60e01b148061149757506001600160e01b03198216635b5e139f60e01b145b806106a957506301ffc9a760e01b6001600160e01b03198316146106a9565b6000818152609960205260409020546001600160a01b03166114635760405162461bcd60e51b8152602060048201526018602482015277115490cdcc8c4e881a5b9d985b1a59081d1bdad95b88125160421b60448201526064016107dd565b61016554600090600160601b90046001600160a01b0316331415611540575060131936013560601c90565b503390565b6000818152609b6020526040902080546001600160a01b0319166001600160a01b038416908117909155819061157a82610fbf565b6001600160a01b03167f8c5be1e5ebec7d5bd14f71427d1e84f3dd0314c0f7b2291e5b200ac8c7c3b92560405160405180910390a45050565b6000806115bf83610fbf565b9050806001600160a01b0316846001600160a01b0316148061160657506001600160a01b038082166000908152609c602090815260408083209388168352929052205460ff165b806113765750836001600160a01b031661161f84610741565b6001600160a01b031614949350505050565b826001600160a01b031661164482610fbf565b6001600160a01b0316146116a85760405162461bcd60e51b815260206004820152602560248201527f4552433732313a207472616e736665722066726f6d20696e636f72726563742060448201526437bbb732b960d91b60648201526084016107dd565b6001600160a01b03821661170a5760405162461bcd60e51b8152602060048201526024808201527f4552433732313a207472616e7366657220746f20746865207a65726f206164646044820152637265737360e01b60648201526084016107dd565b611715600082611545565b6001600160a01b0383166000908152609a6020526040812080546001929061173e90849061292b565b90915550506001600160a01b0382166000908152609a6020526040812080546001929061176c908490612958565b909155505060008181526099602052604080822080546001600160a01b0319166001600160a01b0386811691821790925591518493918716917fddf252ad1be2c89b69c2b068fc378daa952ba7f163c4a11628f55a4df523b3ef91a4610890838383611ea4565b61012d5460ff1615610ef45760405162461bcd60e51b815260206004820152601060248201526f14185d5cd8589b194e881c185d5cd95960821b60448201526064016107dd565b6001600160a01b0382166118705760405162461bcd60e51b815260206004820181905260248201527f4552433732313a206d696e7420746f20746865207a65726f206164647265737360448201526064016107dd565b6000818152609960205260409020546001600160a01b0316156118d55760405162461bcd60e51b815260206004820152601c60248201527f4552433732313a20746f6b656e20616c7265616479206d696e7465640000000060448201526064016107dd565b6001600160a01b0382166000908152609a602052604081208054600192906118fe908490612958565b909155505060008181526099602052604080822080546001600160a01b0319166001600160a01b03861690811790915590518392907fddf252ad1be2c89b69c2b068fc378daa952ba7f163c4a11628f55a4df523b3ef908290a46110d860008383611ea4565b6000828152609960205260409020546001600160a01b03166119df5760405162461bcd60e51b815260206004820152602e60248201527f45524337323155524953746f726167653a2055524920736574206f66206e6f6e60448201526d32bc34b9ba32b73a103a37b5b2b760911b60648201526084016107dd565b600082815260c960209081526040909120825161089092840190612364565b6127106001600160601b0382161115611a6c5760405162461bcd60e51b815260206004820152602a60248201527f455243323938313a20726f79616c7479206665652077696c6c206578636565646044820152692073616c65507269636560b01b60648201526084016107dd565b6001600160a01b038216611ac25760405162461bcd60e51b815260206004820152601b60248201527f455243323938313a20496e76616c696420706172616d6574657273000000000060448201526064016107dd565b6040805180820182526001600160a01b0393841681526001600160601b039283166020808301918252600096875261016490529190942093519051909116600160a01b029116179055565b611b15611515565b6001600160a01b0316611b3060fb546001600160a01b031690565b6001600160a01b031614610ef45760405162461bcd60e51b815260206004820181905260248201527f4f776e61626c653a2063616c6c6572206973206e6f7420746865206f776e657260448201526064016107dd565b611b8e6117d3565b61012d805460ff191660011790557f62e78cea01bee320cd4e420270b5ea74000d11b0c9f74754ebdbfc544b05a258611bc5611515565b6040516001600160a01b03909116815260200160405180910390a1565b60fb80546001600160a01b038381166001600160a01b0319831681179093556040519116919082907f8be0079c531659141344cd1fd0a4f28419497f9722a3daafe3b4186f6b6457e090600090a35050565b816001600160a01b0316836001600160a01b03161415611c965760405162461bcd60e51b815260206004820152601960248201527f4552433732313a20617070726f766520746f2063616c6c65720000000000000060448201526064016107dd565b6001600160a01b038381166000818152609c6020908152604080832094871680845294825291829020805460ff191686151590811790915591519182527f17307eab39ab6107e8899845ad3d59bd9653f200f220920489ca2b5937696c31910160405180910390a3505050565b611d0b612022565b61012d805460ff191690557f5db9ee0a495bf2e6ff9c91a7834c1ba4fdd244a5e8aa4e537bd38aeae4b073aa611bc5611515565b611d4a848484611631565b611d568484848461206c565b6111255760405162461bcd60e51b81526004016107dd906129b6565b600054610100900460ff16611d995760405162461bcd60e51b81526004016107dd90612a08565b610ef4612180565b600054610100900460ff16611dc85760405162461bcd60e51b81526004016107dd90612a08565b6110d882826121ad565b600054610100900460ff16611df95760405162461bcd60e51b81526004016107dd90612a08565b610ef46121fb565b600054610100900460ff16611e285760405162461bcd60e51b81526004016107dd90612a08565b610ef4612232565b6060611e3b826114b6565b6000611e5260408051602081019091526000815290565b90506000815111611e725760405180602001604052806000815250611e9d565b80611e7c84612266565b604051602001611e8d929190612987565b6040516020818303038152906040525b9392505050565b6001600160a01b038316600090815261016160205260408120905b8154811015611fa05782828281548110611edb57611edb612942565b90600052602060002001541415611f8e5781548290611efc9060019061292b565b81548110611f0c57611f0c612942565b9060005260206000200154828281548110611f2957611f29612942565b60009182526020909120015581548290611f459060019061292b565b81548110611f5557611f55612942565b906000526020600020016000905581805480611f7357611f73612a53565b60019003818190600052602060002001600090559055611fa0565b80611f9881612a69565b915050611ebf565b506001600160a01b038084166000818152610161602090815260408083208054600181018255818552928420909201879055938816825283822092909152915184917fc25b6c75caa1e08ecf1bde1ed32857f71216fb992ddd4481c8d9119bb51750c39161201391899189908790612ac4565b60405180910390a25050505050565b61012d5460ff16610ef45760405162461bcd60e51b815260206004820152601460248201527314185d5cd8589b194e881b9bdd081c185d5cd95960621b60448201526064016107dd565b60006001600160a01b0384163b1561217557836001600160a01b031663150b7a02612095611515565b8786866040518563ffffffff1660e01b81526004016120b79493929190612b0c565b602060405180830381600087803b1580156120d157600080fd5b505af1925050508015612101575060408051601f3d908101601f191682019092526120fe91810190612b49565b60015b61215b573d80801561212f576040519150601f19603f3d011682016040523d82523d6000602084013e612134565b606091505b5080516121535760405162461bcd60e51b81526004016107dd906129b6565b805181602001fd5b6001600160e01b031916630a85bd0160e11b149050611376565b506001949350505050565b600054610100900460ff166121a75760405162461bcd60e51b81526004016107dd90612a08565b60018055565b600054610100900460ff166121d45760405162461bcd60e51b81526004016107dd90612a08565b81516121e7906097906020850190612364565b508051610890906098906020840190612364565b600054610100900460ff166122225760405162461bcd60e51b81526004016107dd90612a08565b610ef461222d611515565b611be2565b600054610100900460ff166122595760405162461bcd60e51b81526004016107dd90612a08565b61012d805460ff19169055565b60608161228a5750506040805180820190915260018152600360fc1b602082015290565b8160005b81156122b4578061229e81612a69565b91506122ad9050600a836128c9565b915061228e565b60008167ffffffffffffffff8111156122cf576122cf612536565b6040519080825280601f01601f1916602001820160405280156122f9576020820181803683370190505b5090505b84156113765761230e60018361292b565b915061231b600a86612b66565b612326906030612958565b60f81b81838151811061233b5761233b612942565b60200101906001600160f81b031916908160001a90535061235d600a866128c9565b94506122fd565b828054612370906127f5565b90600052602060002090601f01602090048101928261239257600085556123d8565b82601f106123ab57805160ff19168380011785556123d8565b828001600101855582156123d8579182015b828111156123d85782518255916020019190600101906123bd565b506123e49291506123e8565b5090565b5b808211156123e457600081556001016123e9565b6001600160e01b03198116811461146357600080fd5b60006020828403121561242557600080fd5b8135611e9d816123fd565b60005b8381101561244b578181015183820152602001612433565b838111156111255750506000910152565b60008151808452612474816020860160208601612430565b601f01601f19169290920160200192915050565b602081526000611e9d602083018461245c565b6000602082840312156124ad57600080fd5b5035919050565b80356001600160a01b03811681146124cb57600080fd5b919050565b600080604083850312156124e357600080fd5b6124ec836124b4565b946020939093013593505050565b60008060006060848603121561250f57600080fd5b612518846124b4565b9250612526602085016124b4565b9150604084013590509250925092565b634e487b7160e01b600052604160045260246000fd5b600067ffffffffffffffff8084111561256757612567612536565b604051601f8501601f19908116603f0116810190828211818310171561258f5761258f612536565b816040528093508581528686860111156125a857600080fd5b858560208301376000602087830101525050509392505050565b80356001600160601b03811681146124cb57600080fd5b600080604083850312156125ec57600080fd5b823567ffffffffffffffff81111561260357600080fd5b8301601f8101851361261457600080fd5b6126238582356020840161254c565b925050612632602084016125c2565b90509250929050565b6000806040838503121561264e57600080fd5b50508035926020909101359150565b60006020828403121561266f57600080fd5b611e9d826124b4565b60008060006060848603121561268d57600080fd5b612696846124b4565b95602085013595506040909401359392505050565b606080825284519082018190526000906020906080840190828801845b828110156126e4578151845292840192908401906001016126c8565b505050908301949094525060400152919050565b6000806040838503121561270b57600080fd5b612714836124b4565b91506020830135801515811461272957600080fd5b809150509250929050565b6000806000806080858703121561274a57600080fd5b612753856124b4565b9350612761602086016124b4565b925060408501359150606085013567ffffffffffffffff81111561278457600080fd5b8501601f8101871361279557600080fd5b6127a48782356020840161254c565b91505092959194509250565b6000602082840312156127c257600080fd5b611e9d826125c2565b600080604083850312156127de57600080fd5b6127e7836124b4565b9150612632602084016124b4565b600181811c9082168061280957607f821691505b6020821081141561282a57634e487b7160e01b600052602260045260246000fd5b50919050565b6020808252602e908201527f4552433732313a2063616c6c6572206973206e6f7420746f6b656e206f776e6560408201526d1c881b9bdc88185c1c1c9bdd995960921b606082015260800190565b634e487b7160e01b600052601160045260246000fd5b60008160001904831182151516156128ae576128ae61287e565b500290565b634e487b7160e01b600052601260045260246000fd5b6000826128d8576128d86128b3565b500490565b6020808252602e908201527f496e697469616c697a61626c653a20636f6e747261637420697320616c72656160408201526d191e481a5b9a5d1a585b1a5e995960921b606082015260800190565b60008282101561293d5761293d61287e565b500390565b634e487b7160e01b600052603260045260246000fd5b6000821982111561296b5761296b61287e565b500190565b60008161297f5761297f61287e565b506000190190565b60008351612999818460208801612430565b8351908301906129ad818360208801612430565b01949350505050565b60208082526032908201527f4552433732313a207472616e7366657220746f206e6f6e20455243373231526560408201527131b2b4bb32b91034b6b83632b6b2b73a32b960711b606082015260800190565b6020808252602b908201527f496e697469616c697a61626c653a20636f6e7472616374206973206e6f74206960408201526a6e697469616c697a696e6760a81b606082015260800190565b634e487b7160e01b600052603160045260246000fd5b6000600019821415612a7d57612a7d61287e565b5060010190565b6000815480845260208085019450836000528060002060005b83811015612ab957815487529582019560019182019101612a9d565b509495945050505050565b600060018060a01b03808716835260806020840152612ae66080840187612a84565b81861660408501528381036060850152612b008186612a84565b98975050505050505050565b6001600160a01b0385811682528416602082015260408101839052608060608201819052600090612b3f9083018461245c565b9695505050505050565b600060208284031215612b5b57600080fd5b8151611e9d816123fd565b600082612b7557612b756128b3565b50069056fea26469706673582212205e328e470c2add69531976a7ff39081ad6eae9fb7bb2251be771dd9bf67e549164736f6c63430008090033",
  "linkReferences": {},
  "deployedLinkReferences": {}
}