{
  "_format": "hh-sol-artifact-1",
  "contractName": "HodlNFT",
  "sourceName": "contracts/HodlNFT.sol",
  "abi": [
    {
      "anonymous": false,
      "inputs": [
        {
          "indexed": true,
          "internalType": "address",
          "name": "owner",
          "type": "address"
        },
        {
          "indexed": true,
          "internalType": "address",
          "name": "approved",
          "type": "address"
        },
        {
          "indexed": true,
          "internalType": "uint256",
          "name": "tokenId",
          "type": "uint256"
        }
      ],
      "name": "Approval",
      "type": "event"
    },
    {
      "anonymous": false,
      "inputs": [
        {
          "indexed": true,
          "internalType": "address",
          "name": "owner",
          "type": "address"
        },
        {
          "indexed": true,
          "internalType": "address",
          "name": "operator",
          "type": "address"
        },
        {
          "indexed": false,
          "internalType": "bool",
          "name": "approved",
          "type": "bool"
        }
      ],
      "name": "ApprovalForAll",
      "type": "event"
    },
    {
      "anonymous": false,
      "inputs": [
        {
          "indexed": false,
          "internalType": "uint8",
          "name": "version",
          "type": "uint8"
        }
      ],
      "name": "Initialized",
      "type": "event"
    },
    {
      "anonymous": false,
      "inputs": [
        {
          "indexed": true,
          "internalType": "address",
          "name": "previousOwner",
          "type": "address"
        },
        {
          "indexed": true,
          "internalType": "address",
          "name": "newOwner",
          "type": "address"
        }
      ],
      "name": "OwnershipTransferred",
      "type": "event"
    },
    {
      "anonymous": false,
      "inputs": [
        {
          "indexed": false,
          "internalType": "address",
          "name": "account",
          "type": "address"
        }
      ],
      "name": "Paused",
      "type": "event"
    },
    {
      "anonymous": false,
      "inputs": [
        {
          "indexed": false,
          "internalType": "address",
          "name": "fromAddress",
          "type": "address"
        },
        {
          "indexed": false,
          "internalType": "uint256[]",
          "name": "fromTokens",
          "type": "uint256[]"
        },
        {
          "indexed": false,
          "internalType": "address",
          "name": "toAddress",
          "type": "address"
        },
        {
          "indexed": false,
          "internalType": "uint256[]",
          "name": "toTokens",
          "type": "uint256[]"
        },
        {
          "indexed": true,
          "internalType": "uint256",
          "name": "tokenId",
          "type": "uint256"
        }
      ],
      "name": "TokenMappingUpdated",
      "type": "event"
    },
    {
      "anonymous": false,
      "inputs": [
        {
          "indexed": true,
          "internalType": "address",
          "name": "from",
          "type": "address"
        },
        {
          "indexed": true,
          "internalType": "address",
          "name": "to",
          "type": "address"
        },
        {
          "indexed": true,
          "internalType": "uint256",
          "name": "tokenId",
          "type": "uint256"
        }
      ],
      "name": "Transfer",
      "type": "event"
    },
    {
      "anonymous": false,
      "inputs": [
        {
          "indexed": false,
          "internalType": "address",
          "name": "account",
          "type": "address"
        }
      ],
      "name": "Unpaused",
      "type": "event"
    },
    {
      "inputs": [
        {
          "internalType": "address",
          "name": "_address",
          "type": "address"
        },
        {
          "internalType": "uint256",
          "name": "offset",
          "type": "uint256"
        },
        {
          "internalType": "uint256",
          "name": "limit",
          "type": "uint256"
        }
      ],
      "name": "addressToTokenIds",
      "outputs": [
        {
          "internalType": "uint256[]",
          "name": "page",
          "type": "uint256[]"
        },
        {
          "internalType": "uint256",
          "name": "next",
          "type": "uint256"
        },
        {
          "internalType": "uint256",
          "name": "total",
          "type": "uint256"
        }
      ],
      "stateMutability": "view",
      "type": "function"
    },
    {
      "inputs": [
        {
          "internalType": "address",
          "name": "to",
          "type": "address"
        },
        {
          "internalType": "uint256",
          "name": "tokenId",
          "type": "uint256"
        }
      ],
      "name": "approve",
      "outputs": [],
      "stateMutability": "nonpayable",
      "type": "function"
    },
    {
      "inputs": [
        {
          "internalType": "address",
          "name": "owner",
          "type": "address"
        }
      ],
      "name": "balanceOf",
      "outputs": [
        {
          "internalType": "uint256",
          "name": "",
          "type": "uint256"
        }
      ],
      "stateMutability": "view",
      "type": "function"
    },
    {
      "inputs": [
        {
          "internalType": "string",
          "name": "tokenURI",
          "type": "string"
        }
      ],
      "name": "createToken",
      "outputs": [
        {
          "internalType": "uint256",
          "name": "",
          "type": "uint256"
        }
      ],
      "stateMutability": "payable",
      "type": "function"
    },
    {
      "inputs": [
        {
          "internalType": "uint256",
          "name": "tokenId",
          "type": "uint256"
        }
      ],
      "name": "exists",
      "outputs": [
        {
          "internalType": "bool",
          "name": "",
          "type": "bool"
        }
      ],
      "stateMutability": "view",
      "type": "function"
    },
    {
      "inputs": [
        {
          "internalType": "uint256",
          "name": "tokenId",
          "type": "uint256"
        }
      ],
      "name": "getApproved",
      "outputs": [
        {
          "internalType": "address",
          "name": "",
          "type": "address"
        }
      ],
      "stateMutability": "view",
      "type": "function"
    },
    {
      "inputs": [
        {
          "internalType": "address",
          "name": "_address",
          "type": "address"
        }
      ],
      "name": "initialize",
      "outputs": [],
      "stateMutability": "nonpayable",
      "type": "function"
    },
    {
      "inputs": [
        {
          "internalType": "address",
          "name": "owner",
          "type": "address"
        },
        {
          "internalType": "address",
          "name": "operator",
          "type": "address"
        }
      ],
      "name": "isApprovedForAll",
      "outputs": [
        {
          "internalType": "bool",
          "name": "",
          "type": "bool"
        }
      ],
      "stateMutability": "view",
      "type": "function"
    },
    {
      "inputs": [],
      "name": "marketAddress",
      "outputs": [
        {
          "internalType": "address",
          "name": "",
          "type": "address"
        }
      ],
      "stateMutability": "view",
      "type": "function"
    },
    {
      "inputs": [],
      "name": "mintFee",
      "outputs": [
        {
          "internalType": "uint256",
          "name": "",
          "type": "uint256"
        }
      ],
      "stateMutability": "view",
      "type": "function"
    },
    {
      "inputs": [],
      "name": "name",
      "outputs": [
        {
          "internalType": "string",
          "name": "",
          "type": "string"
        }
      ],
      "stateMutability": "view",
      "type": "function"
    },
    {
      "inputs": [],
      "name": "owner",
      "outputs": [
        {
          "internalType": "address",
          "name": "",
          "type": "address"
        }
      ],
      "stateMutability": "view",
      "type": "function"
    },
    {
      "inputs": [
        {
          "internalType": "uint256",
          "name": "tokenId",
          "type": "uint256"
        }
      ],
      "name": "ownerOf",
      "outputs": [
        {
          "internalType": "address",
          "name": "",
          "type": "address"
        }
      ],
      "stateMutability": "view",
      "type": "function"
    },
    {
      "inputs": [],
      "name": "pauseContract",
      "outputs": [],
      "stateMutability": "nonpayable",
      "type": "function"
    },
    {
      "inputs": [],
      "name": "paused",
      "outputs": [
        {
          "internalType": "bool",
          "name": "",
          "type": "bool"
        }
      ],
      "stateMutability": "view",
      "type": "function"
    },
    {
      "inputs": [],
      "name": "renounceOwnership",
      "outputs": [],
      "stateMutability": "nonpayable",
      "type": "function"
    },
    {
      "inputs": [
        {
          "internalType": "address",
          "name": "from",
          "type": "address"
        },
        {
          "internalType": "address",
          "name": "to",
          "type": "address"
        },
        {
          "internalType": "uint256",
          "name": "tokenId",
          "type": "uint256"
        }
      ],
      "name": "safeTransferFrom",
      "outputs": [],
      "stateMutability": "nonpayable",
      "type": "function"
    },
    {
      "inputs": [
        {
          "internalType": "address",
          "name": "from",
          "type": "address"
        },
        {
          "internalType": "address",
          "name": "to",
          "type": "address"
        },
        {
          "internalType": "uint256",
          "name": "tokenId",
          "type": "uint256"
        },
        {
          "internalType": "bytes",
          "name": "data",
          "type": "bytes"
        }
      ],
      "name": "safeTransferFrom",
      "outputs": [],
      "stateMutability": "nonpayable",
      "type": "function"
    },
    {
      "inputs": [
        {
          "internalType": "address",
          "name": "operator",
          "type": "address"
        },
        {
          "internalType": "bool",
          "name": "approved",
          "type": "bool"
        }
      ],
      "name": "setApprovalForAll",
      "outputs": [],
      "stateMutability": "nonpayable",
      "type": "function"
    },
    {
      "inputs": [
        {
          "internalType": "uint256",
          "name": "_mintFee",
          "type": "uint256"
        }
      ],
      "name": "setMintFee",
      "outputs": [],
      "stateMutability": "nonpayable",
      "type": "function"
    },
    {
      "inputs": [
        {
          "internalType": "bytes4",
          "name": "interfaceId",
          "type": "bytes4"
        }
      ],
      "name": "supportsInterface",
      "outputs": [
        {
          "internalType": "bool",
          "name": "",
          "type": "bool"
        }
      ],
      "stateMutability": "view",
      "type": "function"
    },
    {
      "inputs": [],
      "name": "symbol",
      "outputs": [
        {
          "internalType": "string",
          "name": "",
          "type": "string"
        }
      ],
      "stateMutability": "view",
      "type": "function"
    },
    {
      "inputs": [
        {
          "internalType": "uint256",
          "name": "tokenId",
          "type": "uint256"
        }
      ],
      "name": "tokenURI",
      "outputs": [
        {
          "internalType": "string",
          "name": "",
          "type": "string"
        }
      ],
      "stateMutability": "view",
      "type": "function"
    },
    {
      "inputs": [
        {
          "internalType": "address",
          "name": "from",
          "type": "address"
        },
        {
          "internalType": "address",
          "name": "to",
          "type": "address"
        },
        {
          "internalType": "uint256",
          "name": "tokenId",
          "type": "uint256"
        }
      ],
      "name": "transferFrom",
      "outputs": [],
      "stateMutability": "nonpayable",
      "type": "function"
    },
    {
      "inputs": [
        {
          "internalType": "address",
          "name": "newOwner",
          "type": "address"
        }
      ],
      "name": "transferOwnership",
      "outputs": [],
      "stateMutability": "nonpayable",
      "type": "function"
    },
    {
      "inputs": [],
      "name": "unpauseContract",
      "outputs": [],
      "stateMutability": "nonpayable",
      "type": "function"
    }
  ],
  "bytecode": "0x608060405234801561001057600080fd5b506124e8806100206000396000f3fe6080604052600436106101815760003560e01c806370a08231116100d1578063b33712c51161008a578063c87b56dd11610064578063c87b56dd1461044a578063e985e9c51461046a578063eddd0d9c146104b3578063f2fde38b146104d357600080fd5b8063b33712c5146103f5578063b88d4fde1461040a578063c4d66de81461042a57600080fd5b806370a082311461034c578063715018a61461036c5780638da5cb5b14610381578063956236411461039f57806395d89b41146103c0578063a22cb465146103d557600080fd5b8063356d9eac1161013e57806345576f941161011857806345576f94146102e05780634f558e79146102f35780635c975abb146103135780636352211e1461032c57600080fd5b8063356d9eac1461027c57806342842e0e146102ab578063439766ce146102cb57600080fd5b806301ffc9a71461018657806306fdde03146101bb578063081812fc146101dd578063095ea7b31461021557806313966db51461023757806323b872dd1461025c575b600080fd5b34801561019257600080fd5b506101a66101a1366004611e1c565b6104f3565b60405190151581526020015b60405180910390f35b3480156101c757600080fd5b506101d0610545565b6040516101b29190611e91565b3480156101e957600080fd5b506101fd6101f8366004611ea4565b6105d7565b6040516001600160a01b0390911681526020016101b2565b34801561022157600080fd5b50610235610230366004611ed9565b6105fe565b005b34801561024357600080fd5b5061024e6101625481565b6040519081526020016101b2565b34801561026857600080fd5b50610235610277366004611f03565b610719565b34801561028857600080fd5b5061029c610297366004611f3f565b61074a565b6040516101b293929190611f72565b3480156102b757600080fd5b506102356102c6366004611f03565b610992565b3480156102d757600080fd5b506102356109ad565b61024e6102ee36600461204b565b6109bf565b3480156102ff57600080fd5b506101a661030e366004611ea4565b610b89565b34801561031f57600080fd5b5061012d5460ff166101a6565b34801561033857600080fd5b506101fd610347366004611ea4565b610ba8565b34801561035857600080fd5b5061024e610367366004612094565b610c08565b34801561037857600080fd5b50610235610c8e565b34801561038d57600080fd5b5060fb546001600160a01b03166101fd565b3480156103ab57600080fd5b50610160546101fd906001600160a01b031681565b3480156103cc57600080fd5b506101d0610ca0565b3480156103e157600080fd5b506102356103f03660046120af565b610caf565b34801561040157600080fd5b50610235610cbe565b34801561041657600080fd5b506102356104253660046120eb565b610cce565b34801561043657600080fd5b50610235610445366004612094565b610d06565b34801561045657600080fd5b506101d0610465366004611ea4565b610e96565b34801561047657600080fd5b506101a6610485366004612167565b6001600160a01b039182166000908152609c6020908152604080832093909416825291909152205460ff1690565b3480156104bf57600080fd5b506102356104ce366004611ea4565b610fa7565b3480156104df57600080fd5b506102356104ee366004612094565b610fb5565b60006001600160e01b031982166380ac58cd60e01b148061052457506001600160e01b03198216635b5e139f60e01b145b8061053f57506301ffc9a760e01b6001600160e01b03198316145b92915050565b6060609780546105549061219a565b80601f01602080910402602001604051908101604052809291908181526020018280546105809061219a565b80156105cd5780601f106105a2576101008083540402835291602001916105cd565b820191906000526020600020905b8154815290600101906020018083116105b057829003601f168201915b5050505050905090565b60006105e28261102e565b506000908152609b60205260409020546001600160a01b031690565b600061060982610ba8565b9050806001600160a01b0316836001600160a01b0316141561067c5760405162461bcd60e51b815260206004820152602160248201527f4552433732313a20617070726f76616c20746f2063757272656e74206f776e656044820152603960f91b60648201526084015b60405180910390fd5b336001600160a01b038216148061069857506106988133610485565b61070a5760405162461bcd60e51b815260206004820152603e60248201527f4552433732313a20617070726f76652063616c6c6572206973206e6f7420746f60448201527f6b656e206f776e6572206e6f7220617070726f76656420666f7220616c6c00006064820152608401610673565b610714838361108d565b505050565b61072333826110fb565b61073f5760405162461bcd60e51b8152600401610673906121d5565b610714838383611179565b6001600160a01b038316600090815261016160205260408120606091908190846107b65760405162461bcd60e51b815260206004820152601f60248201527f4c696d6974206d757374206265206120706f736974697665206e756d626572006044820152606401610673565b6101f485106108075760405162461bcd60e51b815260206004820152601d60248201527f4c696d6974656420746f20353030206974656d732070657220706167650000006044820152606401610673565b80548611156108685760405162461bcd60e51b815260206004820152602760248201527f4f66667365742069732067726561746572207468616e206e756d626572206f6660448201526620746f6b656e7360c81b6064820152608401610673565b8054610875908790612239565b85111561088c578054610889908790612239565b94505b8467ffffffffffffffff8111156108a5576108a5611fbf565b6040519080825280602002602001820160405280156108ce578160200160208202803683370190505b5081549094506000906108ea5750600092508291506109899050565b81546000906108fb90600190612239565b90505b8682101561097057826109118983612239565b8154811061092157610921612250565b906000526020600020015486838151811061093e5761093e612250565b6020908102919091010152610954600183612266565b91508061096057610970565b6109698161227e565b90506108fe565b508461097c8789612266565b9254909550919350909150505b93509350939050565b61071483838360405180602001604052806000815250610cce565b6109b561131b565b6109bd611375565b565b60006109c96113d0565b60026001541415610a1c5760405162461bcd60e51b815260206004820152601f60248201527f5265656e7472616e637947756172643a207265656e7472616e742063616c6c006044820152606401610673565b6002600155610162543414610a675760405162461bcd60e51b8152602060048201526011602482015270135a5b9d08119959481b9bdd081cd95b9d607a1b6044820152606401610673565b610a7661015f80546001019055565b6000610a8261015f5490565b9050610a8e3382611417565b610a988184611561565b61016054610ab0906001600160a01b03166001610caf565b6000610ac460fb546001600160a01b031690565b6001600160a01b03163460405160006040518083038185875af1925050503d8060008114610b0e576040519150601f19603f3d011682016040523d82523d6000602084013e610b13565b606091505b5050905080610b7e5760405162461bcd60e51b815260206004820152603160248201527f436f756c64206e6f742073656e642074686520636f6e7472616374206f776e656044820152707220746865206d696e74696e672066656560781b6064820152608401610673565b506001805592915050565b6000818152609960205260408120546001600160a01b0316151561053f565b6000818152609960205260408120546001600160a01b03168061053f5760405162461bcd60e51b8152602060048201526018602482015277115490cdcc8c4e881a5b9d985b1a59081d1bdad95b88125160421b6044820152606401610673565b60006001600160a01b038216610c725760405162461bcd60e51b815260206004820152602960248201527f4552433732313a2061646472657373207a65726f206973206e6f7420612076616044820152683634b21037bbb732b960b91b6064820152608401610673565b506001600160a01b03166000908152609a602052604090205490565b610c9661131b565b6109bd60006115fb565b6060609880546105549061219a565b610cba33838361164d565b5050565b610cc661131b565b6109bd61171c565b610cd833836110fb565b610cf45760405162461bcd60e51b8152600401610673906121d5565b610d0084848484611756565b50505050565b600054610100900460ff1615808015610d265750600054600160ff909116105b80610d405750303b158015610d40575060005460ff166001145b610da35760405162461bcd60e51b815260206004820152602e60248201527f496e697469616c697a61626c653a20636f6e747261637420697320616c72656160448201526d191e481a5b9a5d1a585b1a5e995960921b6064820152608401610673565b6000805460ff191660011790558015610dc6576000805461ff0019166101001790555b610dce611789565b610e1460405180604001604052806008815260200167121bd91b0813919560c21b815250604051806040016040528060048152602001631213919560e21b8152506117b8565b610e1c6117e9565b610e24611818565b61016080546001600160a01b0319166001600160a01b038416179055670de0b6b3a7640000610162558015610cba576000805461ff0019169055604051600181527f7f26b83ff96e1f2b6a682f133852f6798a09c465da95921460cefb38474024989060200160405180910390a15050565b6060610ea18261102e565b600082815260c9602052604081208054610eba9061219a565b80601f0160208091040260200160405190810160405280929190818152602001828054610ee69061219a565b8015610f335780601f10610f0857610100808354040283529160200191610f33565b820191906000526020600020905b815481529060010190602001808311610f1657829003601f168201915b505050505090506000610f5160408051602081019091526000815290565b9050805160001415610f64575092915050565b815115610f96578082604051602001610f7e929190612295565b60405160208183030381529060405292505050919050565b610f9f84611847565b949350505050565b610faf61131b565b61016255565b610fbd61131b565b6001600160a01b0381166110225760405162461bcd60e51b815260206004820152602660248201527f4f776e61626c653a206e6577206f776e657220697320746865207a65726f206160448201526564647265737360d01b6064820152608401610673565b61102b816115fb565b50565b6000818152609960205260409020546001600160a01b031661102b5760405162461bcd60e51b8152602060048201526018602482015277115490cdcc8c4e881a5b9d985b1a59081d1bdad95b88125160421b6044820152606401610673565b6000818152609b6020526040902080546001600160a01b0319166001600160a01b03841690811790915581906110c282610ba8565b6001600160a01b03167f8c5be1e5ebec7d5bd14f71427d1e84f3dd0314c0f7b2291e5b200ac8c7c3b92560405160405180910390a45050565b60008061110783610ba8565b9050806001600160a01b0316846001600160a01b0316148061114e57506001600160a01b038082166000908152609c602090815260408083209388168352929052205460ff165b80610f9f5750836001600160a01b0316611167846105d7565b6001600160a01b031614949350505050565b826001600160a01b031661118c82610ba8565b6001600160a01b0316146111f05760405162461bcd60e51b815260206004820152602560248201527f4552433732313a207472616e736665722066726f6d20696e636f72726563742060448201526437bbb732b960d91b6064820152608401610673565b6001600160a01b0382166112525760405162461bcd60e51b8152602060048201526024808201527f4552433732313a207472616e7366657220746f20746865207a65726f206164646044820152637265737360e01b6064820152608401610673565b61125d60008261108d565b6001600160a01b0383166000908152609a60205260408120805460019290611286908490612239565b90915550506001600160a01b0382166000908152609a602052604081208054600192906112b4908490612266565b909155505060008181526099602052604080822080546001600160a01b0319166001600160a01b0386811691821790925591518493918716917fddf252ad1be2c89b69c2b068fc378daa952ba7f163c4a11628f55a4df523b3ef91a46107148383836118bb565b60fb546001600160a01b031633146109bd5760405162461bcd60e51b815260206004820181905260248201527f4f776e61626c653a2063616c6c6572206973206e6f7420746865206f776e65726044820152606401610673565b61137d6113d0565b61012d805460ff191660011790557f62e78cea01bee320cd4e420270b5ea74000d11b0c9f74754ebdbfc544b05a2586113b33390565b6040516001600160a01b03909116815260200160405180910390a1565b61012d5460ff16156109bd5760405162461bcd60e51b815260206004820152601060248201526f14185d5cd8589b194e881c185d5cd95960821b6044820152606401610673565b6001600160a01b03821661146d5760405162461bcd60e51b815260206004820181905260248201527f4552433732313a206d696e7420746f20746865207a65726f20616464726573736044820152606401610673565b6000818152609960205260409020546001600160a01b0316156114d25760405162461bcd60e51b815260206004820152601c60248201527f4552433732313a20746f6b656e20616c7265616479206d696e746564000000006044820152606401610673565b6001600160a01b0382166000908152609a602052604081208054600192906114fb908490612266565b909155505060008181526099602052604080822080546001600160a01b0319166001600160a01b03861690811790915590518392907fddf252ad1be2c89b69c2b068fc378daa952ba7f163c4a11628f55a4df523b3ef908290a4610cba600083836118bb565b6000828152609960205260409020546001600160a01b03166115dc5760405162461bcd60e51b815260206004820152602e60248201527f45524337323155524953746f726167653a2055524920736574206f66206e6f6e60448201526d32bc34b9ba32b73a103a37b5b2b760911b6064820152608401610673565b600082815260c960209081526040909120825161071492840190611d6d565b60fb80546001600160a01b038381166001600160a01b0319831681179093556040519116919082907f8be0079c531659141344cd1fd0a4f28419497f9722a3daafe3b4186f6b6457e090600090a35050565b816001600160a01b0316836001600160a01b031614156116af5760405162461bcd60e51b815260206004820152601960248201527f4552433732313a20617070726f766520746f2063616c6c6572000000000000006044820152606401610673565b6001600160a01b038381166000818152609c6020908152604080832094871680845294825291829020805460ff191686151590811790915591519182527f17307eab39ab6107e8899845ad3d59bd9653f200f220920489ca2b5937696c31910160405180910390a3505050565b611724611a39565b61012d805460ff191690557f5db9ee0a495bf2e6ff9c91a7834c1ba4fdd244a5e8aa4e537bd38aeae4b073aa336113b3565b611761848484611179565b61176d84848484611a83565b610d005760405162461bcd60e51b8152600401610673906122c4565b600054610100900460ff166117b05760405162461bcd60e51b815260040161067390612316565b6109bd611b90565b600054610100900460ff166117df5760405162461bcd60e51b815260040161067390612316565b610cba8282611bbd565b600054610100900460ff166118105760405162461bcd60e51b815260040161067390612316565b6109bd611c0b565b600054610100900460ff1661183f5760405162461bcd60e51b815260040161067390612316565b6109bd611c3b565b60606118528261102e565b600061186960408051602081019091526000815290565b9050600081511161188957604051806020016040528060008152506118b4565b8061189384611c6f565b6040516020016118a4929190612295565b6040516020818303038152906040525b9392505050565b6001600160a01b038316600090815261016160205260408120905b81548110156119b757828282815481106118f2576118f2612250565b906000526020600020015414156119a5578154829061191390600190612239565b8154811061192357611923612250565b906000526020600020015482828154811061194057611940612250565b6000918252602090912001558154829061195c90600190612239565b8154811061196c5761196c612250565b90600052602060002001600090558180548061198a5761198a612361565b600190038181906000526020600020016000905590556119b7565b806119af81612377565b9150506118d6565b506001600160a01b038084166000818152610161602090815260408083208054600181018255818552928420909201879055938816825283822092909152915184917fc25b6c75caa1e08ecf1bde1ed32857f71216fb992ddd4481c8d9119bb51750c391611a2a918991899087906123d2565b60405180910390a25050505050565b61012d5460ff166109bd5760405162461bcd60e51b815260206004820152601460248201527314185d5cd8589b194e881b9bdd081c185d5cd95960621b6044820152606401610673565b60006001600160a01b0384163b15611b8557604051630a85bd0160e11b81526001600160a01b0385169063150b7a0290611ac790339089908890889060040161241a565b602060405180830381600087803b158015611ae157600080fd5b505af1925050508015611b11575060408051601f3d908101601f19168201909252611b0e91810190612457565b60015b611b6b573d808015611b3f576040519150601f19603f3d011682016040523d82523d6000602084013e611b44565b606091505b508051611b635760405162461bcd60e51b8152600401610673906122c4565b805181602001fd5b6001600160e01b031916630a85bd0160e11b149050610f9f565b506001949350505050565b600054610100900460ff16611bb75760405162461bcd60e51b815260040161067390612316565b60018055565b600054610100900460ff16611be45760405162461bcd60e51b815260040161067390612316565b8151611bf7906097906020850190611d6d565b508051610714906098906020840190611d6d565b600054610100900460ff16611c325760405162461bcd60e51b815260040161067390612316565b6109bd336115fb565b600054610100900460ff16611c625760405162461bcd60e51b815260040161067390612316565b61012d805460ff19169055565b606081611c935750506040805180820190915260018152600360fc1b602082015290565b8160005b8115611cbd5780611ca781612377565b9150611cb69050600a8361248a565b9150611c97565b60008167ffffffffffffffff811115611cd857611cd8611fbf565b6040519080825280601f01601f191660200182016040528015611d02576020820181803683370190505b5090505b8415610f9f57611d17600183612239565b9150611d24600a8661249e565b611d2f906030612266565b60f81b818381518110611d4457611d44612250565b60200101906001600160f81b031916908160001a905350611d66600a8661248a565b9450611d06565b828054611d799061219a565b90600052602060002090601f016020900481019282611d9b5760008555611de1565b82601f10611db457805160ff1916838001178555611de1565b82800160010185558215611de1579182015b82811115611de1578251825591602001919060010190611dc6565b50611ded929150611df1565b5090565b5b80821115611ded5760008155600101611df2565b6001600160e01b03198116811461102b57600080fd5b600060208284031215611e2e57600080fd5b81356118b481611e06565b60005b83811015611e54578181015183820152602001611e3c565b83811115610d005750506000910152565b60008151808452611e7d816020860160208601611e39565b601f01601f19169290920160200192915050565b6020815260006118b46020830184611e65565b600060208284031215611eb657600080fd5b5035919050565b80356001600160a01b0381168114611ed457600080fd5b919050565b60008060408385031215611eec57600080fd5b611ef583611ebd565b946020939093013593505050565b600080600060608486031215611f1857600080fd5b611f2184611ebd565b9250611f2f60208501611ebd565b9150604084013590509250925092565b600080600060608486031215611f5457600080fd5b611f5d84611ebd565b95602085013595506040909401359392505050565b606080825284519082018190526000906020906080840190828801845b82811015611fab57815184529284019290840190600101611f8f565b505050908301949094525060400152919050565b634e487b7160e01b600052604160045260246000fd5b600067ffffffffffffffff80841115611ff057611ff0611fbf565b604051601f8501601f19908116603f0116810190828211818310171561201857612018611fbf565b8160405280935085815286868601111561203157600080fd5b858560208301376000602087830101525050509392505050565b60006020828403121561205d57600080fd5b813567ffffffffffffffff81111561207457600080fd5b8201601f8101841361208557600080fd5b610f9f84823560208401611fd5565b6000602082840312156120a657600080fd5b6118b482611ebd565b600080604083850312156120c257600080fd5b6120cb83611ebd565b9150602083013580151581146120e057600080fd5b809150509250929050565b6000806000806080858703121561210157600080fd5b61210a85611ebd565b935061211860208601611ebd565b925060408501359150606085013567ffffffffffffffff81111561213b57600080fd5b8501601f8101871361214c57600080fd5b61215b87823560208401611fd5565b91505092959194509250565b6000806040838503121561217a57600080fd5b61218383611ebd565b915061219160208401611ebd565b90509250929050565b600181811c908216806121ae57607f821691505b602082108114156121cf57634e487b7160e01b600052602260045260246000fd5b50919050565b6020808252602e908201527f4552433732313a2063616c6c6572206973206e6f7420746f6b656e206f776e6560408201526d1c881b9bdc88185c1c1c9bdd995960921b606082015260800190565b634e487b7160e01b600052601160045260246000fd5b60008282101561224b5761224b612223565b500390565b634e487b7160e01b600052603260045260246000fd5b6000821982111561227957612279612223565b500190565b60008161228d5761228d612223565b506000190190565b600083516122a7818460208801611e39565b8351908301906122bb818360208801611e39565b01949350505050565b60208082526032908201527f4552433732313a207472616e7366657220746f206e6f6e20455243373231526560408201527131b2b4bb32b91034b6b83632b6b2b73a32b960711b606082015260800190565b6020808252602b908201527f496e697469616c697a61626c653a20636f6e7472616374206973206e6f74206960408201526a6e697469616c697a696e6760a81b606082015260800190565b634e487b7160e01b600052603160045260246000fd5b600060001982141561238b5761238b612223565b5060010190565b6000815480845260208085019450836000528060002060005b838110156123c7578154875295820195600191820191016123ab565b509495945050505050565b600060018060a01b038087168352608060208401526123f46080840187612392565b8186166040850152838103606085015261240e8186612392565b98975050505050505050565b6001600160a01b038581168252841660208201526040810183905260806060820181905260009061244d90830184611e65565b9695505050505050565b60006020828403121561246957600080fd5b81516118b481611e06565b634e487b7160e01b600052601260045260246000fd5b60008261249957612499612474565b500490565b6000826124ad576124ad612474565b50069056fea2646970667358221220b71cd64cf14063fad1832951841d9da46d02971b25814e317a942a9e7c2fef7a64736f6c63430008090033",
  "linkReferences": {},
  "deployedLinkReferences": {}
}