{
  "_format": "hh-sol-artifact-1",
  "contractName": "HodlNFT",
  "sourceName": "contracts/HodlNFT.sol",
  "abi": [
    {
      "anonymous": false,
      "inputs": [
        {
          "indexed": true,
          "internalType": "address",
          "name": "owner",
          "type": "address"
        },
        {
          "indexed": true,
          "internalType": "address",
          "name": "approved",
          "type": "address"
        },
        {
          "indexed": true,
          "internalType": "uint256",
          "name": "tokenId",
          "type": "uint256"
        }
      ],
      "name": "Approval",
      "type": "event"
    },
    {
      "anonymous": false,
      "inputs": [
        {
          "indexed": true,
          "internalType": "address",
          "name": "owner",
          "type": "address"
        },
        {
          "indexed": true,
          "internalType": "address",
          "name": "operator",
          "type": "address"
        },
        {
          "indexed": false,
          "internalType": "bool",
          "name": "approved",
          "type": "bool"
        }
      ],
      "name": "ApprovalForAll",
      "type": "event"
    },
    {
      "anonymous": false,
      "inputs": [
        {
          "indexed": false,
          "internalType": "uint8",
          "name": "version",
          "type": "uint8"
        }
      ],
      "name": "Initialized",
      "type": "event"
    },
    {
      "anonymous": false,
      "inputs": [
        {
          "indexed": true,
          "internalType": "address",
          "name": "previousOwner",
          "type": "address"
        },
        {
          "indexed": true,
          "internalType": "address",
          "name": "newOwner",
          "type": "address"
        }
      ],
      "name": "OwnershipTransferred",
      "type": "event"
    },
    {
      "anonymous": false,
      "inputs": [
        {
          "indexed": false,
          "internalType": "address",
          "name": "account",
          "type": "address"
        }
      ],
      "name": "Paused",
      "type": "event"
    },
    {
      "anonymous": false,
      "inputs": [
        {
          "indexed": false,
          "internalType": "address",
          "name": "fromAddress",
          "type": "address"
        },
        {
          "indexed": false,
          "internalType": "uint256[]",
          "name": "fromTokens",
          "type": "uint256[]"
        },
        {
          "indexed": false,
          "internalType": "address",
          "name": "toAddress",
          "type": "address"
        },
        {
          "indexed": false,
          "internalType": "uint256[]",
          "name": "toTokens",
          "type": "uint256[]"
        },
        {
          "indexed": true,
          "internalType": "uint256",
          "name": "tokenId",
          "type": "uint256"
        }
      ],
      "name": "TokenMappingUpdated",
      "type": "event"
    },
    {
      "anonymous": false,
      "inputs": [
        {
          "indexed": true,
          "internalType": "address",
          "name": "from",
          "type": "address"
        },
        {
          "indexed": true,
          "internalType": "address",
          "name": "to",
          "type": "address"
        },
        {
          "indexed": true,
          "internalType": "uint256",
          "name": "tokenId",
          "type": "uint256"
        }
      ],
      "name": "Transfer",
      "type": "event"
    },
    {
      "anonymous": false,
      "inputs": [
        {
          "indexed": false,
          "internalType": "address",
          "name": "account",
          "type": "address"
        }
      ],
      "name": "Unpaused",
      "type": "event"
    },
    {
      "inputs": [
        {
          "internalType": "address",
          "name": "_address",
          "type": "address"
        },
        {
          "internalType": "uint256",
          "name": "offset",
          "type": "uint256"
        },
        {
          "internalType": "uint256",
          "name": "limit",
          "type": "uint256"
        }
      ],
      "name": "addressToTokenIds",
      "outputs": [
        {
          "internalType": "uint256[]",
          "name": "page",
          "type": "uint256[]"
        },
        {
          "internalType": "uint256",
          "name": "next",
          "type": "uint256"
        },
        {
          "internalType": "uint256",
          "name": "total",
          "type": "uint256"
        }
      ],
      "stateMutability": "view",
      "type": "function"
    },
    {
      "inputs": [
        {
          "internalType": "address",
          "name": "to",
          "type": "address"
        },
        {
          "internalType": "uint256",
          "name": "tokenId",
          "type": "uint256"
        }
      ],
      "name": "approve",
      "outputs": [],
      "stateMutability": "nonpayable",
      "type": "function"
    },
    {
      "inputs": [
        {
          "internalType": "address",
          "name": "owner",
          "type": "address"
        }
      ],
      "name": "balanceOf",
      "outputs": [
        {
          "internalType": "uint256",
          "name": "",
          "type": "uint256"
        }
      ],
      "stateMutability": "view",
      "type": "function"
    },
    {
      "inputs": [
        {
          "internalType": "string",
          "name": "_tokenURI",
          "type": "string"
        },
        {
          "internalType": "uint96",
          "name": "_royaltyFeeInBasisPoints",
          "type": "uint96"
        }
      ],
      "name": "createToken",
      "outputs": [
        {
          "internalType": "uint256",
          "name": "",
          "type": "uint256"
        }
      ],
      "stateMutability": "payable",
      "type": "function"
    },
    {
      "inputs": [
        {
          "internalType": "uint256",
          "name": "tokenId",
          "type": "uint256"
        }
      ],
      "name": "exists",
      "outputs": [
        {
          "internalType": "bool",
          "name": "",
          "type": "bool"
        }
      ],
      "stateMutability": "view",
      "type": "function"
    },
    {
      "inputs": [
        {
          "internalType": "uint256",
          "name": "tokenId",
          "type": "uint256"
        }
      ],
      "name": "getApproved",
      "outputs": [
        {
          "internalType": "address",
          "name": "",
          "type": "address"
        }
      ],
      "stateMutability": "view",
      "type": "function"
    },
    {
      "inputs": [
        {
          "internalType": "address",
          "name": "_address",
          "type": "address"
        }
      ],
      "name": "initialize",
      "outputs": [],
      "stateMutability": "nonpayable",
      "type": "function"
    },
    {
      "inputs": [],
      "name": "initializeV2",
      "outputs": [],
      "stateMutability": "nonpayable",
      "type": "function"
    },
    {
      "inputs": [
        {
          "internalType": "address",
          "name": "owner",
          "type": "address"
        },
        {
          "internalType": "address",
          "name": "operator",
          "type": "address"
        }
      ],
      "name": "isApprovedForAll",
      "outputs": [
        {
          "internalType": "bool",
          "name": "",
          "type": "bool"
        }
      ],
      "stateMutability": "view",
      "type": "function"
    },
    {
      "inputs": [],
      "name": "marketAddress",
      "outputs": [
        {
          "internalType": "address",
          "name": "",
          "type": "address"
        }
      ],
      "stateMutability": "view",
      "type": "function"
    },
    {
      "inputs": [],
      "name": "maxRoyaltyFee",
      "outputs": [
        {
          "internalType": "uint96",
          "name": "",
          "type": "uint96"
        }
      ],
      "stateMutability": "view",
      "type": "function"
    },
    {
      "inputs": [],
      "name": "mintFee",
      "outputs": [
        {
          "internalType": "uint256",
          "name": "",
          "type": "uint256"
        }
      ],
      "stateMutability": "view",
      "type": "function"
    },
    {
      "inputs": [],
      "name": "name",
      "outputs": [
        {
          "internalType": "string",
          "name": "",
          "type": "string"
        }
      ],
      "stateMutability": "view",
      "type": "function"
    },
    {
      "inputs": [],
      "name": "owner",
      "outputs": [
        {
          "internalType": "address",
          "name": "",
          "type": "address"
        }
      ],
      "stateMutability": "view",
      "type": "function"
    },
    {
      "inputs": [
        {
          "internalType": "uint256",
          "name": "tokenId",
          "type": "uint256"
        }
      ],
      "name": "ownerOf",
      "outputs": [
        {
          "internalType": "address",
          "name": "",
          "type": "address"
        }
      ],
      "stateMutability": "view",
      "type": "function"
    },
    {
      "inputs": [],
      "name": "pauseContract",
      "outputs": [],
      "stateMutability": "nonpayable",
      "type": "function"
    },
    {
      "inputs": [],
      "name": "paused",
      "outputs": [
        {
          "internalType": "bool",
          "name": "",
          "type": "bool"
        }
      ],
      "stateMutability": "view",
      "type": "function"
    },
    {
      "inputs": [],
      "name": "renounceOwnership",
      "outputs": [],
      "stateMutability": "nonpayable",
      "type": "function"
    },
    {
      "inputs": [
        {
          "internalType": "uint256",
          "name": "_tokenId",
          "type": "uint256"
        },
        {
          "internalType": "uint256",
          "name": "_salePrice",
          "type": "uint256"
        }
      ],
      "name": "royaltyInfo",
      "outputs": [
        {
          "internalType": "address",
          "name": "",
          "type": "address"
        },
        {
          "internalType": "uint256",
          "name": "",
          "type": "uint256"
        }
      ],
      "stateMutability": "view",
      "type": "function"
    },
    {
      "inputs": [
        {
          "internalType": "address",
          "name": "from",
          "type": "address"
        },
        {
          "internalType": "address",
          "name": "to",
          "type": "address"
        },
        {
          "internalType": "uint256",
          "name": "tokenId",
          "type": "uint256"
        }
      ],
      "name": "safeTransferFrom",
      "outputs": [],
      "stateMutability": "nonpayable",
      "type": "function"
    },
    {
      "inputs": [
        {
          "internalType": "address",
          "name": "from",
          "type": "address"
        },
        {
          "internalType": "address",
          "name": "to",
          "type": "address"
        },
        {
          "internalType": "uint256",
          "name": "tokenId",
          "type": "uint256"
        },
        {
          "internalType": "bytes",
          "name": "data",
          "type": "bytes"
        }
      ],
      "name": "safeTransferFrom",
      "outputs": [],
      "stateMutability": "nonpayable",
      "type": "function"
    },
    {
      "inputs": [
        {
          "internalType": "address",
          "name": "operator",
          "type": "address"
        },
        {
          "internalType": "bool",
          "name": "approved",
          "type": "bool"
        }
      ],
      "name": "setApprovalForAll",
      "outputs": [],
      "stateMutability": "nonpayable",
      "type": "function"
    },
    {
      "inputs": [
        {
          "internalType": "uint96",
          "name": "_maxRoyaltyFee",
          "type": "uint96"
        }
      ],
      "name": "setMaxRoyaltyFee",
      "outputs": [],
      "stateMutability": "nonpayable",
      "type": "function"
    },
    {
      "inputs": [
        {
          "internalType": "uint256",
          "name": "_mintFee",
          "type": "uint256"
        }
      ],
      "name": "setMintFee",
      "outputs": [],
      "stateMutability": "nonpayable",
      "type": "function"
    },
    {
      "inputs": [
        {
          "internalType": "bytes4",
          "name": "interfaceId",
          "type": "bytes4"
        }
      ],
      "name": "supportsInterface",
      "outputs": [
        {
          "internalType": "bool",
          "name": "",
          "type": "bool"
        }
      ],
      "stateMutability": "view",
      "type": "function"
    },
    {
      "inputs": [],
      "name": "symbol",
      "outputs": [
        {
          "internalType": "string",
          "name": "",
          "type": "string"
        }
      ],
      "stateMutability": "view",
      "type": "function"
    },
    {
      "inputs": [
        {
          "internalType": "uint256",
          "name": "tokenId",
          "type": "uint256"
        }
      ],
      "name": "tokenURI",
      "outputs": [
        {
          "internalType": "string",
          "name": "",
          "type": "string"
        }
      ],
      "stateMutability": "view",
      "type": "function"
    },
    {
      "inputs": [
        {
          "internalType": "address",
          "name": "from",
          "type": "address"
        },
        {
          "internalType": "address",
          "name": "to",
          "type": "address"
        },
        {
          "internalType": "uint256",
          "name": "tokenId",
          "type": "uint256"
        }
      ],
      "name": "transferFrom",
      "outputs": [],
      "stateMutability": "nonpayable",
      "type": "function"
    },
    {
      "inputs": [
        {
          "internalType": "address",
          "name": "newOwner",
          "type": "address"
        }
      ],
      "name": "transferOwnership",
      "outputs": [],
      "stateMutability": "nonpayable",
      "type": "function"
    },
    {
      "inputs": [],
      "name": "unpauseContract",
      "outputs": [],
      "stateMutability": "nonpayable",
      "type": "function"
    }
  ],
  "bytecode": "0x608060405234801561001057600080fd5b506129c1806100206000396000f3fe6080604052600436106101cd5760003560e01c806370a08231116100f7578063b33712c511610095578063e67605d711610064578063e67605d714610544578063e985e9c514610564578063eddd0d9c146105ad578063f2fde38b146105cd57600080fd5b8063b33712c5146104cf578063b88d4fde146104e4578063c4d66de814610504578063c87b56dd1461052457600080fd5b80638da5cb5b116100d15780638da5cb5b1461045a578063956236411461047957806395d89b411461049a578063a22cb465146104af57600080fd5b806370a08231146103ec578063715018a61461040c5780638cdd9c8f1461042157600080fd5b80632a55205a1161016f5780634f558e791161013e5780634f558e791461037e5780635c975abb1461039e5780635cd8a76b146103b75780636352211e146103cc57600080fd5b80632a55205a146102db578063356d9eac1461031a57806342842e0e14610349578063439766ce1461036957600080fd5b8063095ea7b3116101ab578063095ea7b31461026157806313966db51461028357806323b872dd146102a85780632a077411146102c857600080fd5b806301ffc9a7146101d257806306fdde0314610207578063081812fc14610229575b600080fd5b3480156101de57600080fd5b506101f26101ed366004612224565b6105ed565b60405190151581526020015b60405180910390f35b34801561021357600080fd5b5061021c6105fe565b6040516101fe9190612299565b34801561023557600080fd5b506102496102443660046122ac565b610690565b6040516001600160a01b0390911681526020016101fe565b34801561026d57600080fd5b5061028161027c3660046122e1565b6106b7565b005b34801561028f57600080fd5b5061029a6101c65481565b6040519081526020016101fe565b3480156102b457600080fd5b506102816102c336600461230b565b6107d2565b61029a6102d63660046123ea565b610803565b3480156102e757600080fd5b506102fb6102f636600461244c565b610a49565b604080516001600160a01b0390931683526020830191909152016101fe565b34801561032657600080fd5b5061033a61033536600461246e565b610af5565b6040516101fe939291906124a1565b34801561035557600080fd5b5061028161036436600461230b565b610d3d565b34801561037557600080fd5b50610281610d58565b34801561038a57600080fd5b506101f26103993660046122ac565b610d6a565b3480156103aa57600080fd5b506101915460ff166101f2565b3480156103c357600080fd5b50610281610d89565b3480156103d857600080fd5b506102496103e73660046122ac565b610e33565b3480156103f857600080fd5b5061029a6104073660046124ee565b610e93565b34801561041857600080fd5b50610281610f19565b34801561042d57600080fd5b506101c754610442906001600160601b031681565b6040516001600160601b0390911681526020016101fe565b34801561046657600080fd5b5061015f546001600160a01b0316610249565b34801561048557600080fd5b506101c454610249906001600160a01b031681565b3480156104a657600080fd5b5061021c610f2b565b3480156104bb57600080fd5b506102816104ca366004612509565b610f3a565b3480156104db57600080fd5b50610281610f49565b3480156104f057600080fd5b506102816104ff366004612545565b610f59565b34801561051057600080fd5b5061028161051f3660046124ee565b610f91565b34801561053057600080fd5b5061021c61053f3660046122ac565b6110da565b34801561055057600080fd5b5061028161055f3660046125c1565b6110e5565b34801561057057600080fd5b506101f261057f3660046125dc565b6001600160a01b03918216600090815260ce6020908152604080832093909416825291909152205460ff1690565b3480156105b957600080fd5b506102816105c83660046122ac565b611115565b3480156105d957600080fd5b506102816105e83660046124ee565b611123565b60006105f88261119c565b92915050565b606060c9805461060d90612606565b80601f016020809104026020016040519081016040528092919081815260200182805461063990612606565b80156106865780601f1061065b57610100808354040283529160200191610686565b820191906000526020600020905b81548152906001019060200180831161066957829003601f168201915b5050505050905090565b600061069b826111a7565b50600090815260cd60205260409020546001600160a01b031690565b60006106c282610e33565b9050806001600160a01b0316836001600160a01b031614156107355760405162461bcd60e51b815260206004820152602160248201527f4552433732313a20617070726f76616c20746f2063757272656e74206f776e656044820152603960f91b60648201526084015b60405180910390fd5b336001600160a01b03821614806107515750610751813361057f565b6107c35760405162461bcd60e51b815260206004820152603e60248201527f4552433732313a20617070726f76652063616c6c6572206973206e6f7420746f60448201527f6b656e206f776e6572206e6f7220617070726f76656420666f7220616c6c0000606482015260840161072c565b6107cd8383611206565b505050565b6107dc3382611274565b6107f85760405162461bcd60e51b815260040161072c90612641565b6107cd8383836112f3565b600061080d611495565b600260015414156108605760405162461bcd60e51b815260206004820152601f60248201527f5265656e7472616e637947756172643a207265656e7472616e742063616c6c00604482015260640161072c565b60026001556101c65434146108ab5760405162461bcd60e51b8152602060048201526011602482015270135a5b9d08119959481b9bdd081cd95b9d607a1b604482015260640161072c565b6101c7546001600160601b03908116908316111561091a5760405162461bcd60e51b815260206004820152602660248201527f43616e6e6f7420736574206120726f79616c7479206665652061626f766520746044820152650d0ca40dac2f60d31b606482015260840161072c565b6109296101c380546001019055565b60006109356101c35490565b905061094133826114dc565b61094b8185611626565b6109568133856116c0565b6101c45461096e906001600160a01b03166001610f3a565b600061098361015f546001600160a01b031690565b6001600160a01b03163460405160006040518083038185875af1925050503d80600081146109cd576040519150601f19603f3d011682016040523d82523d6000602084013e6109d2565b606091505b5050905080610a3d5760405162461bcd60e51b815260206004820152603160248201527f436f756c64206e6f742073656e642074686520636f6e7472616374206f776e656044820152707220746865206d696e74696e672066656560781b606482015260840161072c565b50600180559392505050565b60008281526098602090815260408083208151808301909252546001600160a01b038116808352600160a01b9091046001600160601b0316928201929092528291610abe5750604080518082019091526097546001600160a01b0381168252600160a01b90046001600160601b031660208201525b602081015160009061271090610add906001600160601b0316876126a5565b610ae791906126da565b915196919550909350505050565b6001600160a01b03831660009081526101c56020526040812060609190819084610b615760405162461bcd60e51b815260206004820152601f60248201527f4c696d6974206d757374206265206120706f736974697665206e756d62657200604482015260640161072c565b6101f48510610bb25760405162461bcd60e51b815260206004820152601d60248201527f4c696d6974656420746f20353030206974656d73207065722070616765000000604482015260640161072c565b8054861115610c135760405162461bcd60e51b815260206004820152602760248201527f4f66667365742069732067726561746572207468616e206e756d626572206f6660448201526620746f6b656e7360c81b606482015260840161072c565b8054610c209087906126ee565b851115610c37578054610c349087906126ee565b94505b8467ffffffffffffffff811115610c5057610c50612347565b604051908082528060200260200182016040528015610c79578160200160208202803683370190505b508154909450600090610c95575060009250829150610d349050565b8154600090610ca6906001906126ee565b90505b86821015610d1b5782610cbc89836126ee565b81548110610ccc57610ccc612705565b9060005260206000200154868381518110610ce957610ce9612705565b6020908102919091010152610cff60018361271b565b915080610d0b57610d1b565b610d1481612733565b9050610ca9565b5084610d27878961271b565b9254909550919350909150505b93509350939050565b6107cd83838360405180602001604052806000815250610f59565b610d606117ce565b610d68611829565b565b600081815260cb60205260408120546001600160a01b031615156105f8565b600054600290610100900460ff16158015610dab575060005460ff8083169116105b610dc75760405162461bcd60e51b815260040161072c9061274a565b600080546101c780546bffffffffffffffffffffffff19166105dc17905561ffff191660ff83169081176101001761ff0019169091556040519081527f7f26b83ff96e1f2b6a682f133852f6798a09c465da95921460cefb38474024989060200160405180910390a150565b600081815260cb60205260408120546001600160a01b0316806105f85760405162461bcd60e51b8152602060048201526018602482015277115490cdcc8c4e881a5b9d985b1a59081d1bdad95b88125160421b604482015260640161072c565b60006001600160a01b038216610efd5760405162461bcd60e51b815260206004820152602960248201527f4552433732313a2061646472657373207a65726f206973206e6f7420612076616044820152683634b21037bbb732b960b91b606482015260840161072c565b506001600160a01b0316600090815260cc602052604090205490565b610f216117ce565b610d686000611884565b606060ca805461060d90612606565b610f453383836118d7565b5050565b610f516117ce565b610d686119a6565b610f633383611274565b610f7f5760405162461bcd60e51b815260040161072c90612641565b610f8b848484846119e0565b50505050565b600054610100900460ff1615808015610fb15750600054600160ff909116105b80610fcb5750303b158015610fcb575060005460ff166001145b610fe75760405162461bcd60e51b815260040161072c9061274a565b6000805460ff19166001179055801561100a576000805461ff0019166101001790555b611012611a13565b61105860405180604001604052806008815260200167121bd91b0813919560c21b815250604051806040016040528060048152602001631213919560e21b815250611a42565b611060611a73565b611068611aa2565b6101c480546001600160a01b0319166001600160a01b038416179055670de0b6b3a76400006101c6558015610f45576000805461ff0019169055604051600181527f7f26b83ff96e1f2b6a682f133852f6798a09c465da95921460cefb38474024989060200160405180910390a15050565b60606105f882611ad1565b6110ed6117ce565b6101c780546bffffffffffffffffffffffff19166001600160601b0392909216919091179055565b61111d6117ce565b6101c655565b61112b6117ce565b6001600160a01b0381166111905760405162461bcd60e51b815260206004820152602660248201527f4f776e61626c653a206e6577206f776e657220697320746865207a65726f206160448201526564647265737360d01b606482015260840161072c565b61119981611884565b50565b60006105f882611bda565b600081815260cb60205260409020546001600160a01b03166111995760405162461bcd60e51b8152602060048201526018602482015277115490cdcc8c4e881a5b9d985b1a59081d1bdad95b88125160421b604482015260640161072c565b600081815260cd6020526040902080546001600160a01b0319166001600160a01b038416908117909155819061123b82610e33565b6001600160a01b03167f8c5be1e5ebec7d5bd14f71427d1e84f3dd0314c0f7b2291e5b200ac8c7c3b92560405160405180910390a45050565b60008061128083610e33565b9050806001600160a01b0316846001600160a01b031614806112c757506001600160a01b03808216600090815260ce602090815260408083209388168352929052205460ff165b806112eb5750836001600160a01b03166112e084610690565b6001600160a01b0316145b949350505050565b826001600160a01b031661130682610e33565b6001600160a01b03161461136a5760405162461bcd60e51b815260206004820152602560248201527f4552433732313a207472616e736665722066726f6d20696e636f72726563742060448201526437bbb732b960d91b606482015260840161072c565b6001600160a01b0382166113cc5760405162461bcd60e51b8152602060048201526024808201527f4552433732313a207472616e7366657220746f20746865207a65726f206164646044820152637265737360e01b606482015260840161072c565b6113d7600082611206565b6001600160a01b038316600090815260cc602052604081208054600192906114009084906126ee565b90915550506001600160a01b038216600090815260cc6020526040812080546001929061142e90849061271b565b9091555050600081815260cb602052604080822080546001600160a01b0319166001600160a01b0386811691821790925591518493918716917fddf252ad1be2c89b69c2b068fc378daa952ba7f163c4a11628f55a4df523b3ef91a46107cd838383611c1a565b6101915460ff1615610d685760405162461bcd60e51b815260206004820152601060248201526f14185d5cd8589b194e881c185d5cd95960821b604482015260640161072c565b6001600160a01b0382166115325760405162461bcd60e51b815260206004820181905260248201527f4552433732313a206d696e7420746f20746865207a65726f2061646472657373604482015260640161072c565b600081815260cb60205260409020546001600160a01b0316156115975760405162461bcd60e51b815260206004820152601c60248201527f4552433732313a20746f6b656e20616c7265616479206d696e74656400000000604482015260640161072c565b6001600160a01b038216600090815260cc602052604081208054600192906115c090849061271b565b9091555050600081815260cb602052604080822080546001600160a01b0319166001600160a01b03861690811790915590518392907fddf252ad1be2c89b69c2b068fc378daa952ba7f163c4a11628f55a4df523b3ef908290a4610f4560008383611c1a565b600082815260cb60205260409020546001600160a01b03166116a15760405162461bcd60e51b815260206004820152602e60248201527f45524337323155524953746f726167653a2055524920736574206f66206e6f6e60448201526d32bc34b9ba32b73a103a37b5b2b760911b606482015260840161072c565b600082815260fb6020908152604090912082516107cd92840190612175565b6127106001600160601b038216111561172e5760405162461bcd60e51b815260206004820152602a60248201527f455243323938313a20726f79616c7479206665652077696c6c206578636565646044820152692073616c65507269636560b01b606482015260840161072c565b6001600160a01b0382166117845760405162461bcd60e51b815260206004820152601b60248201527f455243323938313a20496e76616c696420706172616d65746572730000000000604482015260640161072c565b6040805180820182526001600160a01b0393841681526001600160601b0392831660208083019182526000968752609890529190942093519051909116600160a01b029116179055565b61015f546001600160a01b03163314610d685760405162461bcd60e51b815260206004820181905260248201527f4f776e61626c653a2063616c6c6572206973206e6f7420746865206f776e6572604482015260640161072c565b611831611495565b610191805460ff191660011790557f62e78cea01bee320cd4e420270b5ea74000d11b0c9f74754ebdbfc544b05a2586118673390565b6040516001600160a01b03909116815260200160405180910390a1565b61015f80546001600160a01b038381166001600160a01b0319831681179093556040519116919082907f8be0079c531659141344cd1fd0a4f28419497f9722a3daafe3b4186f6b6457e090600090a35050565b816001600160a01b0316836001600160a01b031614156119395760405162461bcd60e51b815260206004820152601960248201527f4552433732313a20617070726f766520746f2063616c6c657200000000000000604482015260640161072c565b6001600160a01b03838116600081815260ce6020908152604080832094871680845294825291829020805460ff191686151590811790915591519182527f17307eab39ab6107e8899845ad3d59bd9653f200f220920489ca2b5937696c31910160405180910390a3505050565b6119ae611d98565b610191805460ff191690557f5db9ee0a495bf2e6ff9c91a7834c1ba4fdd244a5e8aa4e537bd38aeae4b073aa33611867565b6119eb8484846112f3565b6119f784848484611de2565b610f8b5760405162461bcd60e51b815260040161072c90612798565b600054610100900460ff16611a3a5760405162461bcd60e51b815260040161072c906127ea565b610d68611eef565b600054610100900460ff16611a695760405162461bcd60e51b815260040161072c906127ea565b610f458282611f1c565b600054610100900460ff16611a9a5760405162461bcd60e51b815260040161072c906127ea565b610d68611f6a565b600054610100900460ff16611ac95760405162461bcd60e51b815260040161072c906127ea565b610d68611f9a565b6060611adc826111a7565b600082815260fb602052604081208054611af590612606565b80601f0160208091040260200160405190810160405280929190818152602001828054611b2190612606565b8015611b6e5780601f10611b4357610100808354040283529160200191611b6e565b820191906000526020600020905b815481529060010190602001808311611b5157829003601f168201915b505050505090506000611b8c60408051602081019091526000815290565b9050805160001415611b9f575092915050565b815115611bd1578082604051602001611bb9929190612835565b60405160208183030381529060405292505050919050565b6112eb84611fce565b60006001600160e01b031982166380ac58cd60e01b1480611c0b57506001600160e01b03198216635b5e139f60e01b145b806105f857506105f882612042565b6001600160a01b03831660009081526101c560205260408120905b8154811015611d165782828281548110611c5157611c51612705565b90600052602060002001541415611d045781548290611c72906001906126ee565b81548110611c8257611c82612705565b9060005260206000200154828281548110611c9f57611c9f612705565b60009182526020909120015581548290611cbb906001906126ee565b81548110611ccb57611ccb612705565b906000526020600020016000905581805480611ce957611ce9612864565b60019003818190600052602060002001600090559055611d16565b80611d0e8161287a565b915050611c35565b506001600160a01b0380841660008181526101c5602090815260408083208054600181018255818552928420909201879055938816825283822092909152915184917fc25b6c75caa1e08ecf1bde1ed32857f71216fb992ddd4481c8d9119bb51750c391611d89918991899087906128d5565b60405180910390a25050505050565b6101915460ff16610d685760405162461bcd60e51b815260206004820152601460248201527314185d5cd8589b194e881b9bdd081c185d5cd95960621b604482015260640161072c565b60006001600160a01b0384163b15611ee457604051630a85bd0160e11b81526001600160a01b0385169063150b7a0290611e2690339089908890889060040161291d565b602060405180830381600087803b158015611e4057600080fd5b505af1925050508015611e70575060408051601f3d908101601f19168201909252611e6d9181019061295a565b60015b611eca573d808015611e9e576040519150601f19603f3d011682016040523d82523d6000602084013e611ea3565b606091505b508051611ec25760405162461bcd60e51b815260040161072c90612798565b805181602001fd5b6001600160e01b031916630a85bd0160e11b1490506112eb565b506001949350505050565b600054610100900460ff16611f165760405162461bcd60e51b815260040161072c906127ea565b60018055565b600054610100900460ff16611f435760405162461bcd60e51b815260040161072c906127ea565b8151611f569060c9906020850190612175565b5080516107cd9060ca906020840190612175565b600054610100900460ff16611f915760405162461bcd60e51b815260040161072c906127ea565b610d6833611884565b600054610100900460ff16611fc15760405162461bcd60e51b815260040161072c906127ea565b610191805460ff19169055565b6060611fd9826111a7565b6000611ff060408051602081019091526000815290565b90506000815111612010576040518060200160405280600081525061203b565b8061201a84612077565b60405160200161202b929190612835565b6040516020818303038152906040525b9392505050565b60006001600160e01b0319821663152a902d60e11b14806105f857506301ffc9a760e01b6001600160e01b03198316146105f8565b60608161209b5750506040805180820190915260018152600360fc1b602082015290565b8160005b81156120c557806120af8161287a565b91506120be9050600a836126da565b915061209f565b60008167ffffffffffffffff8111156120e0576120e0612347565b6040519080825280601f01601f19166020018201604052801561210a576020820181803683370190505b5090505b84156112eb5761211f6001836126ee565b915061212c600a86612977565b61213790603061271b565b60f81b81838151811061214c5761214c612705565b60200101906001600160f81b031916908160001a90535061216e600a866126da565b945061210e565b82805461218190612606565b90600052602060002090601f0160209004810192826121a357600085556121e9565b82601f106121bc57805160ff19168380011785556121e9565b828001600101855582156121e9579182015b828111156121e95782518255916020019190600101906121ce565b506121f59291506121f9565b5090565b5b808211156121f557600081556001016121fa565b6001600160e01b03198116811461119957600080fd5b60006020828403121561223657600080fd5b813561203b8161220e565b60005b8381101561225c578181015183820152602001612244565b83811115610f8b5750506000910152565b60008151808452612285816020860160208601612241565b601f01601f19169290920160200192915050565b60208152600061203b602083018461226d565b6000602082840312156122be57600080fd5b5035919050565b80356001600160a01b03811681146122dc57600080fd5b919050565b600080604083850312156122f457600080fd5b6122fd836122c5565b946020939093013593505050565b60008060006060848603121561232057600080fd5b612329846122c5565b9250612337602085016122c5565b9150604084013590509250925092565b634e487b7160e01b600052604160045260246000fd5b600067ffffffffffffffff8084111561237857612378612347565b604051601f8501601f19908116603f011681019082821181831017156123a0576123a0612347565b816040528093508581528686860111156123b957600080fd5b858560208301376000602087830101525050509392505050565b80356001600160601b03811681146122dc57600080fd5b600080604083850312156123fd57600080fd5b823567ffffffffffffffff81111561241457600080fd5b8301601f8101851361242557600080fd5b6124348582356020840161235d565b925050612443602084016123d3565b90509250929050565b6000806040838503121561245f57600080fd5b50508035926020909101359150565b60008060006060848603121561248357600080fd5b61248c846122c5565b95602085013595506040909401359392505050565b606080825284519082018190526000906020906080840190828801845b828110156124da578151845292840192908401906001016124be565b505050908301949094525060400152919050565b60006020828403121561250057600080fd5b61203b826122c5565b6000806040838503121561251c57600080fd5b612525836122c5565b91506020830135801515811461253a57600080fd5b809150509250929050565b6000806000806080858703121561255b57600080fd5b612564856122c5565b9350612572602086016122c5565b925060408501359150606085013567ffffffffffffffff81111561259557600080fd5b8501601f810187136125a657600080fd5b6125b58782356020840161235d565b91505092959194509250565b6000602082840312156125d357600080fd5b61203b826123d3565b600080604083850312156125ef57600080fd5b6125f8836122c5565b9150612443602084016122c5565b600181811c9082168061261a57607f821691505b6020821081141561263b57634e487b7160e01b600052602260045260246000fd5b50919050565b6020808252602e908201527f4552433732313a2063616c6c6572206973206e6f7420746f6b656e206f776e6560408201526d1c881b9bdc88185c1c1c9bdd995960921b606082015260800190565b634e487b7160e01b600052601160045260246000fd5b60008160001904831182151516156126bf576126bf61268f565b500290565b634e487b7160e01b600052601260045260246000fd5b6000826126e9576126e96126c4565b500490565b6000828210156127005761270061268f565b500390565b634e487b7160e01b600052603260045260246000fd5b6000821982111561272e5761272e61268f565b500190565b6000816127425761274261268f565b506000190190565b6020808252602e908201527f496e697469616c697a61626c653a20636f6e747261637420697320616c72656160408201526d191e481a5b9a5d1a585b1a5e995960921b606082015260800190565b60208082526032908201527f4552433732313a207472616e7366657220746f206e6f6e20455243373231526560408201527131b2b4bb32b91034b6b83632b6b2b73a32b960711b606082015260800190565b6020808252602b908201527f496e697469616c697a61626c653a20636f6e7472616374206973206e6f74206960408201526a6e697469616c697a696e6760a81b606082015260800190565b60008351612847818460208801612241565b83519083019061285b818360208801612241565b01949350505050565b634e487b7160e01b600052603160045260246000fd5b600060001982141561288e5761288e61268f565b5060010190565b6000815480845260208085019450836000528060002060005b838110156128ca578154875295820195600191820191016128ae565b509495945050505050565b600060018060a01b038087168352608060208401526128f76080840187612895565b818616604085015283810360608501526129118186612895565b98975050505050505050565b6001600160a01b03858116825284166020820152604081018390526080606082018190526000906129509083018461226d565b9695505050505050565b60006020828403121561296c57600080fd5b815161203b8161220e565b600082612986576129866126c4565b50069056fea264697066735822122036badfc09cfb9d4541ae675f209f37f6eb6877cf2fec67d1bea1c89dc1e526b364736f6c63430008090033",
  "linkReferences": {},
  "deployedLinkReferences": {}
}