{
  "_format": "hh-sol-artifact-1",
  "contractName": "HodlNFT",
  "sourceName": "contracts/HodlNFT.sol",
  "abi": [
    {
      "anonymous": false,
      "inputs": [
        {
          "indexed": true,
          "internalType": "address",
          "name": "owner",
          "type": "address"
        },
        {
          "indexed": true,
          "internalType": "address",
          "name": "approved",
          "type": "address"
        },
        {
          "indexed": true,
          "internalType": "uint256",
          "name": "tokenId",
          "type": "uint256"
        }
      ],
      "name": "Approval",
      "type": "event"
    },
    {
      "anonymous": false,
      "inputs": [
        {
          "indexed": true,
          "internalType": "address",
          "name": "owner",
          "type": "address"
        },
        {
          "indexed": true,
          "internalType": "address",
          "name": "operator",
          "type": "address"
        },
        {
          "indexed": false,
          "internalType": "bool",
          "name": "approved",
          "type": "bool"
        }
      ],
      "name": "ApprovalForAll",
      "type": "event"
    },
    {
      "anonymous": false,
      "inputs": [
        {
          "indexed": false,
          "internalType": "uint8",
          "name": "version",
          "type": "uint8"
        }
      ],
      "name": "Initialized",
      "type": "event"
    },
    {
      "anonymous": false,
      "inputs": [
        {
          "indexed": true,
          "internalType": "address",
          "name": "previousOwner",
          "type": "address"
        },
        {
          "indexed": true,
          "internalType": "address",
          "name": "newOwner",
          "type": "address"
        }
      ],
      "name": "OwnershipTransferred",
      "type": "event"
    },
    {
      "anonymous": false,
      "inputs": [
        {
          "indexed": false,
          "internalType": "address",
          "name": "account",
          "type": "address"
        }
      ],
      "name": "Paused",
      "type": "event"
    },
    {
      "anonymous": false,
      "inputs": [
        {
          "indexed": false,
          "internalType": "address",
          "name": "fromAddress",
          "type": "address"
        },
        {
          "indexed": false,
          "internalType": "uint256[]",
          "name": "fromTokens",
          "type": "uint256[]"
        },
        {
          "indexed": false,
          "internalType": "address",
          "name": "toAddress",
          "type": "address"
        },
        {
          "indexed": false,
          "internalType": "uint256[]",
          "name": "toTokens",
          "type": "uint256[]"
        },
        {
          "indexed": true,
          "internalType": "uint256",
          "name": "tokenId",
          "type": "uint256"
        }
      ],
      "name": "TokenMappingUpdated",
      "type": "event"
    },
    {
      "anonymous": false,
      "inputs": [
        {
          "indexed": true,
          "internalType": "address",
          "name": "from",
          "type": "address"
        },
        {
          "indexed": true,
          "internalType": "address",
          "name": "to",
          "type": "address"
        },
        {
          "indexed": true,
          "internalType": "uint256",
          "name": "tokenId",
          "type": "uint256"
        }
      ],
      "name": "Transfer",
      "type": "event"
    },
    {
      "anonymous": false,
      "inputs": [
        {
          "indexed": false,
          "internalType": "address",
          "name": "account",
          "type": "address"
        }
      ],
      "name": "Unpaused",
      "type": "event"
    },
    {
      "inputs": [
        {
          "internalType": "address",
          "name": "_address",
          "type": "address"
        },
        {
          "internalType": "uint256",
          "name": "offset",
          "type": "uint256"
        },
        {
          "internalType": "uint256",
          "name": "limit",
          "type": "uint256"
        }
      ],
      "name": "addressToTokenIds",
      "outputs": [
        {
          "internalType": "uint256[]",
          "name": "page",
          "type": "uint256[]"
        },
        {
          "internalType": "uint256",
          "name": "next",
          "type": "uint256"
        },
        {
          "internalType": "uint256",
          "name": "total",
          "type": "uint256"
        }
      ],
      "stateMutability": "view",
      "type": "function"
    },
    {
      "inputs": [
        {
          "internalType": "address",
          "name": "to",
          "type": "address"
        },
        {
          "internalType": "uint256",
          "name": "tokenId",
          "type": "uint256"
        }
      ],
      "name": "approve",
      "outputs": [],
      "stateMutability": "nonpayable",
      "type": "function"
    },
    {
      "inputs": [
        {
          "internalType": "address",
          "name": "owner",
          "type": "address"
        }
      ],
      "name": "balanceOf",
      "outputs": [
        {
          "internalType": "uint256",
          "name": "",
          "type": "uint256"
        }
      ],
      "stateMutability": "view",
      "type": "function"
    },
    {
      "inputs": [
        {
          "internalType": "string",
          "name": "_tokenURI",
          "type": "string"
        },
        {
          "internalType": "uint96",
          "name": "_royaltyFeeInBasisPoints",
          "type": "uint96"
        }
      ],
      "name": "createToken",
      "outputs": [
        {
          "internalType": "uint256",
          "name": "",
          "type": "uint256"
        }
      ],
      "stateMutability": "payable",
      "type": "function"
    },
    {
      "inputs": [
        {
          "internalType": "uint256",
          "name": "tokenId",
          "type": "uint256"
        }
      ],
      "name": "exists",
      "outputs": [
        {
          "internalType": "bool",
          "name": "",
          "type": "bool"
        }
      ],
      "stateMutability": "view",
      "type": "function"
    },
    {
      "inputs": [
        {
          "internalType": "uint256",
          "name": "tokenId",
          "type": "uint256"
        }
      ],
      "name": "getApproved",
      "outputs": [
        {
          "internalType": "address",
          "name": "",
          "type": "address"
        }
      ],
      "stateMutability": "view",
      "type": "function"
    },
    {
      "inputs": [
        {
          "internalType": "address",
          "name": "_address",
          "type": "address"
        }
      ],
      "name": "initialize",
      "outputs": [],
      "stateMutability": "nonpayable",
      "type": "function"
    },
    {
      "inputs": [],
      "name": "initializeV2",
      "outputs": [],
      "stateMutability": "nonpayable",
      "type": "function"
    },
    {
      "inputs": [
        {
          "internalType": "address",
          "name": "owner",
          "type": "address"
        },
        {
          "internalType": "address",
          "name": "operator",
          "type": "address"
        }
      ],
      "name": "isApprovedForAll",
      "outputs": [
        {
          "internalType": "bool",
          "name": "",
          "type": "bool"
        }
      ],
      "stateMutability": "view",
      "type": "function"
    },
    {
      "inputs": [],
      "name": "marketAddress",
      "outputs": [
        {
          "internalType": "address",
          "name": "",
          "type": "address"
        }
      ],
      "stateMutability": "view",
      "type": "function"
    },
    {
      "inputs": [],
      "name": "maxRoyaltyFee",
      "outputs": [
        {
          "internalType": "uint96",
          "name": "",
          "type": "uint96"
        }
      ],
      "stateMutability": "view",
      "type": "function"
    },
    {
      "inputs": [],
      "name": "mintFee",
      "outputs": [
        {
          "internalType": "uint256",
          "name": "",
          "type": "uint256"
        }
      ],
      "stateMutability": "view",
      "type": "function"
    },
    {
      "inputs": [],
      "name": "name",
      "outputs": [
        {
          "internalType": "string",
          "name": "",
          "type": "string"
        }
      ],
      "stateMutability": "view",
      "type": "function"
    },
    {
      "inputs": [],
      "name": "owner",
      "outputs": [
        {
          "internalType": "address",
          "name": "",
          "type": "address"
        }
      ],
      "stateMutability": "view",
      "type": "function"
    },
    {
      "inputs": [
        {
          "internalType": "uint256",
          "name": "tokenId",
          "type": "uint256"
        }
      ],
      "name": "ownerOf",
      "outputs": [
        {
          "internalType": "address",
          "name": "",
          "type": "address"
        }
      ],
      "stateMutability": "view",
      "type": "function"
    },
    {
      "inputs": [],
      "name": "pauseContract",
      "outputs": [],
      "stateMutability": "nonpayable",
      "type": "function"
    },
    {
      "inputs": [],
      "name": "paused",
      "outputs": [
        {
          "internalType": "bool",
          "name": "",
          "type": "bool"
        }
      ],
      "stateMutability": "view",
      "type": "function"
    },
    {
      "inputs": [],
      "name": "renounceOwnership",
      "outputs": [],
      "stateMutability": "nonpayable",
      "type": "function"
    },
    {
      "inputs": [
        {
          "internalType": "uint256",
          "name": "_tokenId",
          "type": "uint256"
        },
        {
          "internalType": "uint256",
          "name": "_salePrice",
          "type": "uint256"
        }
      ],
      "name": "royaltyInfo",
      "outputs": [
        {
          "internalType": "address",
          "name": "",
          "type": "address"
        },
        {
          "internalType": "uint256",
          "name": "",
          "type": "uint256"
        }
      ],
      "stateMutability": "view",
      "type": "function"
    },
    {
      "inputs": [
        {
          "internalType": "address",
          "name": "from",
          "type": "address"
        },
        {
          "internalType": "address",
          "name": "to",
          "type": "address"
        },
        {
          "internalType": "uint256",
          "name": "tokenId",
          "type": "uint256"
        }
      ],
      "name": "safeTransferFrom",
      "outputs": [],
      "stateMutability": "nonpayable",
      "type": "function"
    },
    {
      "inputs": [
        {
          "internalType": "address",
          "name": "from",
          "type": "address"
        },
        {
          "internalType": "address",
          "name": "to",
          "type": "address"
        },
        {
          "internalType": "uint256",
          "name": "tokenId",
          "type": "uint256"
        },
        {
          "internalType": "bytes",
          "name": "data",
          "type": "bytes"
        }
      ],
      "name": "safeTransferFrom",
      "outputs": [],
      "stateMutability": "nonpayable",
      "type": "function"
    },
    {
      "inputs": [
        {
          "internalType": "address",
          "name": "operator",
          "type": "address"
        },
        {
          "internalType": "bool",
          "name": "approved",
          "type": "bool"
        }
      ],
      "name": "setApprovalForAll",
      "outputs": [],
      "stateMutability": "nonpayable",
      "type": "function"
    },
    {
      "inputs": [
        {
          "internalType": "uint96",
          "name": "_maxRoyaltyFee",
          "type": "uint96"
        }
      ],
      "name": "setMaxRoyaltyFee",
      "outputs": [],
      "stateMutability": "nonpayable",
      "type": "function"
    },
    {
      "inputs": [
        {
          "internalType": "uint256",
          "name": "_mintFee",
          "type": "uint256"
        }
      ],
      "name": "setMintFee",
      "outputs": [],
      "stateMutability": "nonpayable",
      "type": "function"
    },
    {
      "inputs": [
        {
          "internalType": "bytes4",
          "name": "interfaceId",
          "type": "bytes4"
        }
      ],
      "name": "supportsInterface",
      "outputs": [
        {
          "internalType": "bool",
          "name": "",
          "type": "bool"
        }
      ],
      "stateMutability": "view",
      "type": "function"
    },
    {
      "inputs": [],
      "name": "symbol",
      "outputs": [
        {
          "internalType": "string",
          "name": "",
          "type": "string"
        }
      ],
      "stateMutability": "view",
      "type": "function"
    },
    {
      "inputs": [
        {
          "internalType": "uint256",
          "name": "tokenId",
          "type": "uint256"
        }
      ],
      "name": "tokenURI",
      "outputs": [
        {
          "internalType": "string",
          "name": "",
          "type": "string"
        }
      ],
      "stateMutability": "view",
      "type": "function"
    },
    {
      "inputs": [
        {
          "internalType": "address",
          "name": "from",
          "type": "address"
        },
        {
          "internalType": "address",
          "name": "to",
          "type": "address"
        },
        {
          "internalType": "uint256",
          "name": "tokenId",
          "type": "uint256"
        }
      ],
      "name": "transferFrom",
      "outputs": [],
      "stateMutability": "nonpayable",
      "type": "function"
    },
    {
      "inputs": [
        {
          "internalType": "address",
          "name": "newOwner",
          "type": "address"
        }
      ],
      "name": "transferOwnership",
      "outputs": [],
      "stateMutability": "nonpayable",
      "type": "function"
    },
    {
      "inputs": [],
      "name": "unpauseContract",
      "outputs": [],
      "stateMutability": "nonpayable",
      "type": "function"
    }
  ],
  "bytecode": "0x608060405234801561001057600080fd5b506129a6806100206000396000f3fe6080604052600436106101cd5760003560e01c806370a08231116100f7578063b33712c511610095578063e67605d711610064578063e67605d714610543578063e985e9c514610563578063eddd0d9c146105ac578063f2fde38b146105cc57600080fd5b8063b33712c5146104ce578063b88d4fde146104e3578063c4d66de814610503578063c87b56dd1461052357600080fd5b80638da5cb5b116100d15780638da5cb5b1461045a578063956236411461047857806395d89b4114610499578063a22cb465146104ae57600080fd5b806370a08231146103ec578063715018a61461040c5780638cdd9c8f1461042157600080fd5b80632a55205a1161016f5780634f558e791161013e5780634f558e791461037e5780635c975abb1461039e5780635cd8a76b146103b75780636352211e146103cc57600080fd5b80632a55205a146102db578063356d9eac1461031a57806342842e0e14610349578063439766ce1461036957600080fd5b8063095ea7b3116101ab578063095ea7b31461026157806313966db51461028357806323b872dd146102a85780632a077411146102c857600080fd5b806301ffc9a7146101d257806306fdde0314610207578063081812fc14610229575b600080fd5b3480156101de57600080fd5b506101f26101ed366004612209565b6105ec565b60405190151581526020015b60405180910390f35b34801561021357600080fd5b5061021c610617565b6040516101fe919061227e565b34801561023557600080fd5b50610249610244366004612291565b6106a9565b6040516001600160a01b0390911681526020016101fe565b34801561026d57600080fd5b5061028161027c3660046122c6565b6106d0565b005b34801561028f57600080fd5b5061029a6101625481565b6040519081526020016101fe565b3480156102b457600080fd5b506102816102c33660046122f0565b6107eb565b61029a6102d63660046123cf565b61081c565b3480156102e757600080fd5b506102fb6102f6366004612431565b610a61565b604080516001600160a01b0390931683526020830191909152016101fe565b34801561032657600080fd5b5061033a610335366004612453565b610b0f565b6040516101fe93929190612486565b34801561035557600080fd5b506102816103643660046122f0565b610d57565b34801561037557600080fd5b50610281610d72565b34801561038a57600080fd5b506101f2610399366004612291565b610d84565b3480156103aa57600080fd5b5061012d5460ff166101f2565b3480156103c357600080fd5b50610281610da3565b3480156103d857600080fd5b506102496103e7366004612291565b610e4d565b3480156103f857600080fd5b5061029a6104073660046124d3565b610ead565b34801561041857600080fd5b50610281610f33565b34801561042d57600080fd5b5061016554610442906001600160601b031681565b6040516001600160601b0390911681526020016101fe565b34801561046657600080fd5b5060fb546001600160a01b0316610249565b34801561048457600080fd5b5061016054610249906001600160a01b031681565b3480156104a557600080fd5b5061021c610f45565b3480156104ba57600080fd5b506102816104c93660046124ee565b610f54565b3480156104da57600080fd5b50610281610f63565b3480156104ef57600080fd5b506102816104fe36600461252a565b610f73565b34801561050f57600080fd5b5061028161051e3660046124d3565b610fab565b34801561052f57600080fd5b5061021c61053e366004612291565b6110f4565b34801561054f57600080fd5b5061028161055e3660046125a6565b611205565b34801561056f57600080fd5b506101f261057e3660046125c1565b6001600160a01b039182166000908152609c6020908152604080832093909416825291909152205460ff1690565b3480156105b857600080fd5b506102816105c7366004612291565b611235565b3480156105d857600080fd5b506102816105e73660046124d3565b611243565b60006001600160e01b0319821663152a902d60e11b14806106115750610611826112bc565b92915050565b606060978054610626906125eb565b80601f0160208091040260200160405190810160405280929190818152602001828054610652906125eb565b801561069f5780601f106106745761010080835404028352916020019161069f565b820191906000526020600020905b81548152906001019060200180831161068257829003601f168201915b5050505050905090565b60006106b48261130c565b506000908152609b60205260409020546001600160a01b031690565b60006106db82610e4d565b9050806001600160a01b0316836001600160a01b0316141561074e5760405162461bcd60e51b815260206004820152602160248201527f4552433732313a20617070726f76616c20746f2063757272656e74206f776e656044820152603960f91b60648201526084015b60405180910390fd5b336001600160a01b038216148061076a575061076a813361057e565b6107dc5760405162461bcd60e51b815260206004820152603e60248201527f4552433732313a20617070726f76652063616c6c6572206973206e6f7420746f60448201527f6b656e206f776e6572206e6f7220617070726f76656420666f7220616c6c00006064820152608401610745565b6107e6838361136b565b505050565b6107f533826113d9565b6108115760405162461bcd60e51b815260040161074590612626565b6107e6838383611457565b60006108266115f9565b600260015414156108795760405162461bcd60e51b815260206004820152601f60248201527f5265656e7472616e637947756172643a207265656e7472616e742063616c6c006044820152606401610745565b60026001556101625434146108c45760405162461bcd60e51b8152602060048201526011602482015270135a5b9d08119959481b9bdd081cd95b9d607a1b6044820152606401610745565b610165546001600160601b0390811690831611156109335760405162461bcd60e51b815260206004820152602660248201527f43616e6e6f7420736574206120726f79616c7479206665652061626f766520746044820152650d0ca40dac2f60d31b6064820152608401610745565b61094261015f80546001019055565b600061094e61015f5490565b905061095a3382611640565b610964818561178a565b61096f813385611824565b61016054610987906001600160a01b03166001610f54565b600061099b60fb546001600160a01b031690565b6001600160a01b03163460405160006040518083038185875af1925050503d80600081146109e5576040519150601f19603f3d011682016040523d82523d6000602084013e6109ea565b606091505b5050905080610a555760405162461bcd60e51b815260206004820152603160248201527f436f756c64206e6f742073656e642074686520636f6e7472616374206f776e656044820152707220746865206d696e74696e672066656560781b6064820152608401610745565b50600180559392505050565b6000828152610164602090815260408083208151808301909252546001600160a01b038116808352600160a01b9091046001600160601b0316928201929092528291610ad8575060408051808201909152610163546001600160a01b0381168252600160a01b90046001600160601b031660208201525b602081015160009061271090610af7906001600160601b03168761268a565b610b0191906126bf565b915196919550909350505050565b6001600160a01b03831660009081526101616020526040812060609190819084610b7b5760405162461bcd60e51b815260206004820152601f60248201527f4c696d6974206d757374206265206120706f736974697665206e756d626572006044820152606401610745565b6101f48510610bcc5760405162461bcd60e51b815260206004820152601d60248201527f4c696d6974656420746f20353030206974656d732070657220706167650000006044820152606401610745565b8054861115610c2d5760405162461bcd60e51b815260206004820152602760248201527f4f66667365742069732067726561746572207468616e206e756d626572206f6660448201526620746f6b656e7360c81b6064820152608401610745565b8054610c3a9087906126d3565b851115610c51578054610c4e9087906126d3565b94505b8467ffffffffffffffff811115610c6a57610c6a61232c565b604051908082528060200260200182016040528015610c93578160200160208202803683370190505b508154909450600090610caf575060009250829150610d4e9050565b8154600090610cc0906001906126d3565b90505b86821015610d355782610cd689836126d3565b81548110610ce657610ce66126ea565b9060005260206000200154868381518110610d0357610d036126ea565b6020908102919091010152610d19600183612700565b915080610d2557610d35565b610d2e81612718565b9050610cc3565b5084610d418789612700565b9254909550919350909150505b93509350939050565b6107e683838360405180602001604052806000815250610f73565b610d7a611933565b610d8261198d565b565b6000818152609960205260408120546001600160a01b03161515610611565b600054600290610100900460ff16158015610dc5575060005460ff8083169116105b610de15760405162461bcd60e51b81526004016107459061272f565b6000805461016580546bffffffffffffffffffffffff19166105dc17905561ffff191660ff83169081176101001761ff0019169091556040519081527f7f26b83ff96e1f2b6a682f133852f6798a09c465da95921460cefb38474024989060200160405180910390a150565b6000818152609960205260408120546001600160a01b0316806106115760405162461bcd60e51b8152602060048201526018602482015277115490cdcc8c4e881a5b9d985b1a59081d1bdad95b88125160421b6044820152606401610745565b60006001600160a01b038216610f175760405162461bcd60e51b815260206004820152602960248201527f4552433732313a2061646472657373207a65726f206973206e6f7420612076616044820152683634b21037bbb732b960b91b6064820152608401610745565b506001600160a01b03166000908152609a602052604090205490565b610f3b611933565b610d8260006119e8565b606060988054610626906125eb565b610f5f338383611a3a565b5050565b610f6b611933565b610d82611b09565b610f7d33836113d9565b610f995760405162461bcd60e51b815260040161074590612626565b610fa584848484611b43565b50505050565b600054610100900460ff1615808015610fcb5750600054600160ff909116105b80610fe55750303b158015610fe5575060005460ff166001145b6110015760405162461bcd60e51b81526004016107459061272f565b6000805460ff191660011790558015611024576000805461ff0019166101001790555b61102c611b76565b61107260405180604001604052806008815260200167121bd91b0813919560c21b815250604051806040016040528060048152602001631213919560e21b815250611ba5565b61107a611bd6565b611082611c05565b61016080546001600160a01b0319166001600160a01b038416179055670de0b6b3a7640000610162558015610f5f576000805461ff0019169055604051600181527f7f26b83ff96e1f2b6a682f133852f6798a09c465da95921460cefb38474024989060200160405180910390a15050565b60606110ff8261130c565b600082815260c9602052604081208054611118906125eb565b80601f0160208091040260200160405190810160405280929190818152602001828054611144906125eb565b80156111915780601f1061116657610100808354040283529160200191611191565b820191906000526020600020905b81548152906001019060200180831161117457829003601f168201915b5050505050905060006111af60408051602081019091526000815290565b90508051600014156111c2575092915050565b8151156111f45780826040516020016111dc92919061277d565b60405160208183030381529060405292505050919050565b6111fd84611c34565b949350505050565b61120d611933565b61016580546bffffffffffffffffffffffff19166001600160601b0392909216919091179055565b61123d611933565b61016255565b61124b611933565b6001600160a01b0381166112b05760405162461bcd60e51b815260206004820152602660248201527f4f776e61626c653a206e6577206f776e657220697320746865207a65726f206160448201526564647265737360d01b6064820152608401610745565b6112b9816119e8565b50565b60006001600160e01b031982166380ac58cd60e01b14806112ed57506001600160e01b03198216635b5e139f60e01b145b8061061157506301ffc9a760e01b6001600160e01b0319831614610611565b6000818152609960205260409020546001600160a01b03166112b95760405162461bcd60e51b8152602060048201526018602482015277115490cdcc8c4e881a5b9d985b1a59081d1bdad95b88125160421b6044820152606401610745565b6000818152609b6020526040902080546001600160a01b0319166001600160a01b03841690811790915581906113a082610e4d565b6001600160a01b03167f8c5be1e5ebec7d5bd14f71427d1e84f3dd0314c0f7b2291e5b200ac8c7c3b92560405160405180910390a45050565b6000806113e583610e4d565b9050806001600160a01b0316846001600160a01b0316148061142c57506001600160a01b038082166000908152609c602090815260408083209388168352929052205460ff165b806111fd5750836001600160a01b0316611445846106a9565b6001600160a01b031614949350505050565b826001600160a01b031661146a82610e4d565b6001600160a01b0316146114ce5760405162461bcd60e51b815260206004820152602560248201527f4552433732313a207472616e736665722066726f6d20696e636f72726563742060448201526437bbb732b960d91b6064820152608401610745565b6001600160a01b0382166115305760405162461bcd60e51b8152602060048201526024808201527f4552433732313a207472616e7366657220746f20746865207a65726f206164646044820152637265737360e01b6064820152608401610745565b61153b60008261136b565b6001600160a01b0383166000908152609a602052604081208054600192906115649084906126d3565b90915550506001600160a01b0382166000908152609a60205260408120805460019290611592908490612700565b909155505060008181526099602052604080822080546001600160a01b0319166001600160a01b0386811691821790925591518493918716917fddf252ad1be2c89b69c2b068fc378daa952ba7f163c4a11628f55a4df523b3ef91a46107e6838383611ca8565b61012d5460ff1615610d825760405162461bcd60e51b815260206004820152601060248201526f14185d5cd8589b194e881c185d5cd95960821b6044820152606401610745565b6001600160a01b0382166116965760405162461bcd60e51b815260206004820181905260248201527f4552433732313a206d696e7420746f20746865207a65726f20616464726573736044820152606401610745565b6000818152609960205260409020546001600160a01b0316156116fb5760405162461bcd60e51b815260206004820152601c60248201527f4552433732313a20746f6b656e20616c7265616479206d696e746564000000006044820152606401610745565b6001600160a01b0382166000908152609a60205260408120805460019290611724908490612700565b909155505060008181526099602052604080822080546001600160a01b0319166001600160a01b03861690811790915590518392907fddf252ad1be2c89b69c2b068fc378daa952ba7f163c4a11628f55a4df523b3ef908290a4610f5f60008383611ca8565b6000828152609960205260409020546001600160a01b03166118055760405162461bcd60e51b815260206004820152602e60248201527f45524337323155524953746f726167653a2055524920736574206f66206e6f6e60448201526d32bc34b9ba32b73a103a37b5b2b760911b6064820152608401610745565b600082815260c96020908152604090912082516107e69284019061215a565b6127106001600160601b03821611156118925760405162461bcd60e51b815260206004820152602a60248201527f455243323938313a20726f79616c7479206665652077696c6c206578636565646044820152692073616c65507269636560b01b6064820152608401610745565b6001600160a01b0382166118e85760405162461bcd60e51b815260206004820152601b60248201527f455243323938313a20496e76616c696420706172616d657465727300000000006044820152606401610745565b6040805180820182526001600160a01b0393841681526001600160601b039283166020808301918252600096875261016490529190942093519051909116600160a01b029116179055565b60fb546001600160a01b03163314610d825760405162461bcd60e51b815260206004820181905260248201527f4f776e61626c653a2063616c6c6572206973206e6f7420746865206f776e65726044820152606401610745565b6119956115f9565b61012d805460ff191660011790557f62e78cea01bee320cd4e420270b5ea74000d11b0c9f74754ebdbfc544b05a2586119cb3390565b6040516001600160a01b03909116815260200160405180910390a1565b60fb80546001600160a01b038381166001600160a01b0319831681179093556040519116919082907f8be0079c531659141344cd1fd0a4f28419497f9722a3daafe3b4186f6b6457e090600090a35050565b816001600160a01b0316836001600160a01b03161415611a9c5760405162461bcd60e51b815260206004820152601960248201527f4552433732313a20617070726f766520746f2063616c6c6572000000000000006044820152606401610745565b6001600160a01b038381166000818152609c6020908152604080832094871680845294825291829020805460ff191686151590811790915591519182527f17307eab39ab6107e8899845ad3d59bd9653f200f220920489ca2b5937696c31910160405180910390a3505050565b611b11611e26565b61012d805460ff191690557f5db9ee0a495bf2e6ff9c91a7834c1ba4fdd244a5e8aa4e537bd38aeae4b073aa336119cb565b611b4e848484611457565b611b5a84848484611e70565b610fa55760405162461bcd60e51b8152600401610745906127ac565b600054610100900460ff16611b9d5760405162461bcd60e51b8152600401610745906127fe565b610d82611f7d565b600054610100900460ff16611bcc5760405162461bcd60e51b8152600401610745906127fe565b610f5f8282611faa565b600054610100900460ff16611bfd5760405162461bcd60e51b8152600401610745906127fe565b610d82611ff8565b600054610100900460ff16611c2c5760405162461bcd60e51b8152600401610745906127fe565b610d82612028565b6060611c3f8261130c565b6000611c5660408051602081019091526000815290565b90506000815111611c765760405180602001604052806000815250611ca1565b80611c808461205c565b604051602001611c9192919061277d565b6040516020818303038152906040525b9392505050565b6001600160a01b038316600090815261016160205260408120905b8154811015611da45782828281548110611cdf57611cdf6126ea565b90600052602060002001541415611d925781548290611d00906001906126d3565b81548110611d1057611d106126ea565b9060005260206000200154828281548110611d2d57611d2d6126ea565b60009182526020909120015581548290611d49906001906126d3565b81548110611d5957611d596126ea565b906000526020600020016000905581805480611d7757611d77612849565b60019003818190600052602060002001600090559055611da4565b80611d9c8161285f565b915050611cc3565b506001600160a01b038084166000818152610161602090815260408083208054600181018255818552928420909201879055938816825283822092909152915184917fc25b6c75caa1e08ecf1bde1ed32857f71216fb992ddd4481c8d9119bb51750c391611e17918991899087906128ba565b60405180910390a25050505050565b61012d5460ff16610d825760405162461bcd60e51b815260206004820152601460248201527314185d5cd8589b194e881b9bdd081c185d5cd95960621b6044820152606401610745565b60006001600160a01b0384163b15611f7257604051630a85bd0160e11b81526001600160a01b0385169063150b7a0290611eb4903390899088908890600401612902565b602060405180830381600087803b158015611ece57600080fd5b505af1925050508015611efe575060408051601f3d908101601f19168201909252611efb9181019061293f565b60015b611f58573d808015611f2c576040519150601f19603f3d011682016040523d82523d6000602084013e611f31565b606091505b508051611f505760405162461bcd60e51b8152600401610745906127ac565b805181602001fd5b6001600160e01b031916630a85bd0160e11b1490506111fd565b506001949350505050565b600054610100900460ff16611fa45760405162461bcd60e51b8152600401610745906127fe565b60018055565b600054610100900460ff16611fd15760405162461bcd60e51b8152600401610745906127fe565b8151611fe490609790602085019061215a565b5080516107e690609890602084019061215a565b600054610100900460ff1661201f5760405162461bcd60e51b8152600401610745906127fe565b610d82336119e8565b600054610100900460ff1661204f5760405162461bcd60e51b8152600401610745906127fe565b61012d805460ff19169055565b6060816120805750506040805180820190915260018152600360fc1b602082015290565b8160005b81156120aa57806120948161285f565b91506120a39050600a836126bf565b9150612084565b60008167ffffffffffffffff8111156120c5576120c561232c565b6040519080825280601f01601f1916602001820160405280156120ef576020820181803683370190505b5090505b84156111fd576121046001836126d3565b9150612111600a8661295c565b61211c906030612700565b60f81b818381518110612131576121316126ea565b60200101906001600160f81b031916908160001a905350612153600a866126bf565b94506120f3565b828054612166906125eb565b90600052602060002090601f01602090048101928261218857600085556121ce565b82601f106121a157805160ff19168380011785556121ce565b828001600101855582156121ce579182015b828111156121ce5782518255916020019190600101906121b3565b506121da9291506121de565b5090565b5b808211156121da57600081556001016121df565b6001600160e01b0319811681146112b957600080fd5b60006020828403121561221b57600080fd5b8135611ca1816121f3565b60005b83811015612241578181015183820152602001612229565b83811115610fa55750506000910152565b6000815180845261226a816020860160208601612226565b601f01601f19169290920160200192915050565b602081526000611ca16020830184612252565b6000602082840312156122a357600080fd5b5035919050565b80356001600160a01b03811681146122c157600080fd5b919050565b600080604083850312156122d957600080fd5b6122e2836122aa565b946020939093013593505050565b60008060006060848603121561230557600080fd5b61230e846122aa565b925061231c602085016122aa565b9150604084013590509250925092565b634e487b7160e01b600052604160045260246000fd5b600067ffffffffffffffff8084111561235d5761235d61232c565b604051601f8501601f19908116603f011681019082821181831017156123855761238561232c565b8160405280935085815286868601111561239e57600080fd5b858560208301376000602087830101525050509392505050565b80356001600160601b03811681146122c157600080fd5b600080604083850312156123e257600080fd5b823567ffffffffffffffff8111156123f957600080fd5b8301601f8101851361240a57600080fd5b61241985823560208401612342565b925050612428602084016123b8565b90509250929050565b6000806040838503121561244457600080fd5b50508035926020909101359150565b60008060006060848603121561246857600080fd5b612471846122aa565b95602085013595506040909401359392505050565b606080825284519082018190526000906020906080840190828801845b828110156124bf578151845292840192908401906001016124a3565b505050908301949094525060400152919050565b6000602082840312156124e557600080fd5b611ca1826122aa565b6000806040838503121561250157600080fd5b61250a836122aa565b91506020830135801515811461251f57600080fd5b809150509250929050565b6000806000806080858703121561254057600080fd5b612549856122aa565b9350612557602086016122aa565b925060408501359150606085013567ffffffffffffffff81111561257a57600080fd5b8501601f8101871361258b57600080fd5b61259a87823560208401612342565b91505092959194509250565b6000602082840312156125b857600080fd5b611ca1826123b8565b600080604083850312156125d457600080fd5b6125dd836122aa565b9150612428602084016122aa565b600181811c908216806125ff57607f821691505b6020821081141561262057634e487b7160e01b600052602260045260246000fd5b50919050565b6020808252602e908201527f4552433732313a2063616c6c6572206973206e6f7420746f6b656e206f776e6560408201526d1c881b9bdc88185c1c1c9bdd995960921b606082015260800190565b634e487b7160e01b600052601160045260246000fd5b60008160001904831182151516156126a4576126a4612674565b500290565b634e487b7160e01b600052601260045260246000fd5b6000826126ce576126ce6126a9565b500490565b6000828210156126e5576126e5612674565b500390565b634e487b7160e01b600052603260045260246000fd5b6000821982111561271357612713612674565b500190565b60008161272757612727612674565b506000190190565b6020808252602e908201527f496e697469616c697a61626c653a20636f6e747261637420697320616c72656160408201526d191e481a5b9a5d1a585b1a5e995960921b606082015260800190565b6000835161278f818460208801612226565b8351908301906127a3818360208801612226565b01949350505050565b60208082526032908201527f4552433732313a207472616e7366657220746f206e6f6e20455243373231526560408201527131b2b4bb32b91034b6b83632b6b2b73a32b960711b606082015260800190565b6020808252602b908201527f496e697469616c697a61626c653a20636f6e7472616374206973206e6f74206960408201526a6e697469616c697a696e6760a81b606082015260800190565b634e487b7160e01b600052603160045260246000fd5b600060001982141561287357612873612674565b5060010190565b6000815480845260208085019450836000528060002060005b838110156128af57815487529582019560019182019101612893565b509495945050505050565b600060018060a01b038087168352608060208401526128dc608084018761287a565b818616604085015283810360608501526128f6818661287a565b98975050505050505050565b6001600160a01b038581168252841660208201526040810183905260806060820181905260009061293590830184612252565b9695505050505050565b60006020828403121561295157600080fd5b8151611ca1816121f3565b60008261296b5761296b6126a9565b50069056fea2646970667358221220a61b2338dfd35f69d9ea5f47261691cd936f61a0c3df2c0856fc2d794786e13564736f6c63430008090033",
  "linkReferences": {},
  "deployedLinkReferences": {}
}